:020000040800F2
:10000000804700207903000831700008C9610008AA
:100010002970000861090008B9800008000000008C
:100020000000000000000000000000000976000849
:10003000D10F000800000000697000084176000838
:100040009303000893030008930300089303000838
:100050009303000893030008930300089303000828
:10006000930300089303000893030008690900083C
:100070007909000889090008990900089303000814
:100080009303000893030008410900089303000844
:1000900093030008930300089303000893030008E8
:1000A00093030008930300089303000893030008D8
:1000B00093030008930300089303000893030008C8
:1000C00093030008930300089303000893030008B8
:1000D00093030008930300089303000893030008A8
:1000E0009303000893030008000000009303000836
:1000F0009303000893030008930300089303000888
:100100009303000893030008930300083173000869
:100110009303000893030008930300089303000867
:100120009303000893030008930300089303000857
:100130009303000893030008930300089303000847
:1001400000000000000000000000000000000000AF
:100150009303000893030008930300089303000827
:100160009303000893030008930300089303000817
:1001700093030008930300089303000800000000A5
:1001800093030008930300089303000893030008F7
:1001900093030008930300089303000893030008E7
:1001A00093030008930300089303000893030008D7
:1001B00093030008930300089303000893030008C7
:1001C00093030008930300089303000893030008B7
:1001D00093030008930300089303000893030008A7
:1001E0009303000893030008930300089303000897
:1001F0009303000893030008930300089303000887
:100200009303000893030008930300089303000876
:100210009303000893030008930300089303000866
:1002200093030008930300089303000800000000F4
:1002300093030008930300080000000093030008E4
:100240009303000893030008930300089303000836
:100250009303000893030008930300089303000826
:100260009303000893030008930300089303000816
:1002700093030008930300089303000800000000A4
:100280009303000893030008930300080000000094
:10029000000000009303000800F002F800F05CF892
:1002A0000AA090E8000C82448344AAF10107DA45D1
:1002B00001D100F051F8AFF2090EBAE80F0013F0C7
:1002C000010F18BFFB1A43F001031847D45207006F
:1002D000F45207000A444FF0000C10F8013B13F0F1
:1002E000070408BF10F8014B1D1108BF10F8015B8F
:1002F000641E05D010F8016B641E01F8016BF9D182
:1003000013F0080F1EBF10F8014BAD1C0C1B09D1D8
:100310006D1E58BF01F801CBFAD505E014F8016B4A
:1003200001F8016B6D1EF9D59142D6D370470000DC
:100330000023002400250026103A28BF78C1FBD8EE
:10034000520728BF30C148BF0B6070471FB50CF083
:1003500030F81FBD10B510BD00F084F91146FFF74D
:10036000F5FF09F0D5FB00F0A2F903B4FFF7F2FFA7
:1003700003BC00F0A5F90000094880470948004780
:10038000FEE7FEE7FEE7FEE7FEE7FEE7FEE7FEE745
:10039000FEE7FEE704480549054A064B70470000A2
:1003A000517700089902000880070020804700204C
:1003B000802700208027002053EA020C00F069808B
:1003C0002DE9F04B4FF00006002B1FBFB3FA83F569
:1003D00003FA05F424FA05F65E4012BF1643B2FA9A
:1003E00082F502FA05F4C5F120051EBF22FA05FCCC
:1003F00044EA0C04203556EA044C4FEA144418BF72
:10040000641C4FF000084FF00009904271EB030CA0
:1004100039D3002919BFB1FA81F701FA07F6B0FA0A
:1004200080F700FA07F6C7F120071EBF20FA07FC85
:1004300046EA0C062037B6FBF4FCA7EB0507103F95
:1004400007F01F0BCBF120062CFA06F60CFA0BFB7B
:1004500044BFB3460026202FA4BF5E464FF0000BDA
:100460005BEA060C08BF4FF0010B19EB0B0948EBD8
:100470000608ABFB027C06FB02CC0BFB03CCC01BCB
:1004800071EB0C01C1E70B46024641464846BDE808
:10049000F08B13B5084318BF4FF0FF300146AFF3A0
:1004A0000080BDE81C407047032A40F2308010F005
:1004B000030C00F0158011F8013BBCF1020F6244FF
:1004C00098BF11F801CB00F8013B38BF11F8013B90
:1004D000A2F1040298BF00F801CB38BF00F8013B3D
:1004E00011F0030300F02580083AC0F0088051F8AD
:1004F000043B083A51F804CBA0E80810F5E7121DB8
:100500005CBF51F8043B40F8043BAFF30080D207D6
:1005100024BF11F8013B11F801CB48BF11F8012BA2
:1005200024BF00F8013B00F801CB48BF00F8012BC5
:10053000704710B5203AC0F00B80B1E81850A0E821
:100540001850B1E81850A0E81850203ABFF4F5AFA1
:100550005FEA027C24BFB1E81850A0E8185044BFFD
:1005600018C918C0BDE810405FEA827C24BF51F86A
:10057000043B40F8043B08BF7047D20728BF31F85E
:10058000023B48BF11F8012B28BF20F8023B48BFAF
:1005900000F8012B704702F0FF0343EA032242EA0E
:1005A000024200F037B84FF0000200B513469446FF
:1005B0009646203922BFA0E80C50A0E80C50B1F1BB
:1005C0002001BFF4F7AF090728BFA0E80C5048BFCF
:1005D0000CC05DF804EB890028BF40F8042B08BF6D
:1005E000704748BF20F8022B11F0804F18BF00F869
:1005F000012B704770477047704710B500F02AF81C
:10060000006810BD10B5044600F024F8046010BD69
:100610004FF000020429C0F0128010F0030C3FF4E8
:10062000C4AFCCF1040CBCF1020F18BF00F8012BD1
:10063000A8BF20F8022BA1EB0C01FFF7B6BF5FEAC1
:10064000C17C24BF00F8012B00F8012B48BF00F843
:10065000012B704700487047C801002000487047D0
:10066000C80100207546FFF7F9FFAE460500694650
:10067000534620F00700854618B020B5FFF78AFEE4
:10068000BDE820404FF000064FF000074FF0000893
:100690004FF0000BAC46ACE8C009ACE8C009ACE8D0
:1006A000C009ACE8C00921F007018D46704710B5BC
:1006B0000446AFF300802046BDE81040FFF755BE6A
:1006C00001491820ABBEFEE726000200704700007B
:1006D000B0B50446006842F2001140F48070C4F2E4
:1006E0000201884204D142F20830C4F2020003E061
:1006F00046F20830C5F60200006810F4403F10D002
:1007000004F08EFE61680546B1F5803F05D0B1F575
:10071000403F22D0B1F5003F20D1080CB5FBF0F5E9
:100720001CE04FF40020002103F09EFE61680546A6
:10073000A1F580224FEAB2420A2A0FD8DFE802F080
:10074000060606060606494B4D4F51006FF00100A4
:1007500000EA5140B5FBF0F500E0AD0803F05CF8AD
:1007600041F2030188420DD8206842F60151C0F2DF
:1007700031118D4281682CBF41F4807121F4807168
:100780008160B0BD4BF62140C0F2BE00854205D865
:100790002068816821F440718160B0BD47F6410056
:1007A000C0F27D10854203D820680122816808E0EC
:1007B00020684FF28101C0F2FA218D42816804D88D
:1007C000022262F309218160B0BD41F44071816071
:1007D000B0BD2D09C2E76D09C0E7AD09BEE7ED095F
:1007E000BCE72D0ABAE7000010B5846B616D11F00B
:1007F000500F616D05D0C9060ED4E16CC96C8847F5
:1008000010BD41F40070606520680168090707D4D5
:10081000C068800716D10AE0204601F01DF810BD1F
:1008200006F0B6F870B12068C06880040AD4606D24
:1008300020F480706065606DC00403D4606D40F08A
:1008400001006065204600F09BFF10BD0000000025
:1008500080B5806B416D41F040014165816D41F093
:100860000401816500F0F8FF80BD00000000000079
:1008700080B5806B00F0ECFF80BD00000000000040
:1008800070B50446006806F06FF800281CBF002011
:1008900070BD20683F22C8F200028168114209D071
:1008A000606D40F010006065A06D40F00100A06533
:1008B000012070BD06F024F802F0B6FF42F20005F8
:1008C00046F20031C4F20205226805F5807605F58E
:1008D0004073C5F60201B24208BF1946AA42054656
:1008E00008BF1946084606F02BF821680A46B142AF
:1008F00004BF42F20002C4F20202002818BF8A427A
:1009000003D121680868C00708D0002070BD00BF6F
:1009100021680868C0074FF0000010D1084606F0B3
:1009200023F810B9206805F0EBFF02F07DFF401BB3
:100930000328EDD320680068C007E9D1B0E770BD97
:1009400080B540F29820C2F2000000F089FF40F22A
:10095000FC20C2F2000000F083FF80BD0000000018
:10096000FEE700000000000080B540F26030C2F2F7
:10097000000001F039FB80BD80B540F2D830C2F2F2
:10098000000001F031FB80BD80B540F25040C2F262
:10099000000001F029FB80BD80B540F2C840C2F2E2
:1009A000000001F021FB80BDB7210268C4F2020102
:1009B0008A424FF0010113DD40F25743C4F20203B3
:1009C0009A421EDC40F22743C4F202039A4233DC0F
:1009D000B823C4F202039A424AD040F2104343E0E3
:1009E0005723C4F202039A421ADD8723C4F202039A
:1009F0009A422ADC5823C4F202039A4238D0702368
:100A000032E040F28743C4F202039A4224DC40F20F
:100A10005843C4F202039A422AD040F2704323E0C2
:100A20001023C4F202039A4222D02823C4F2020304
:100A30009A421DD0402317E040F22843C4F202033B
:100A40009A4215D040F240430EE08823C4F20203DC
:100A50009A420DD0A02307E040F28843C4F202037B
:100A60009A4205D040F2A043C4F202039A421FD139
:100A70000029016817D06FF00F024AF6AB2352FA33
:100A800081FCCAF6AA23ACFB03320EA3BCF15F0FB4
:100A9000C2F302129A5C40F2FF3321EA0301C265FD
:100AA00088BF043101E021F0FF01816508467047ED
:100AB0004FF64831CBF6FD711144B1FA81F1490985
:100AC000D6E700BF00061016000610160000000052
:100AD00010B545F243420168C5F6020291424FF05B
:100AE00001020EDD45F26B43C5F60203994217DCA5
:100AF00045F24443C5F60203994225D045F25843D6
:100B000016E045F20843C5F6020399421CD045F2AF
:100B10001C43C5F60203994216D045F2304307E064
:100B200045F26C43C5F6020399420DD045F280436D
:100B3000C5F60203994207D045F29442C5F6020277
:100B40008A1AB2FA82F2520903788AB14CF6CD427F
:100B5000A3F10801CCF6CC42A1FB021245F294416C
:100B6000C5F60201120901F55B7301F57B711FE007
:100B7000A3F110024AF6AB23CAF6AA234FF0080EDF
:100B8000A2FB032340F20F42C4F202024FEA131CFD
:100B9000914202F1AA04624688BF0EEB131240F69E
:100BA0000003A142C4F2020303F1800128BF6246A0
:100BB00003EB820302F01F0203660123416603FA7E
:100BC00002F1816610BD000080B50179A1F1010E2E
:100BD000BEF1070F88BF80BD45F243420368C5F6EA
:100BE00002024FF0010C93420EDD45F26B42C5F656
:100BF0000202934217DC45F24442C5F602029342D8
:100C000026D045F2584216E045F20842C5F60202E7
:100C100093421DD045F21C42C5F60202934217D002
:100C200045F2304207E045F26C42C5F602029342BB
:100C30000ED045F28042C5F60202934208D04AF631
:100C40006C32CAF2FD721A44B2FA82F24FEA521CB6
:100C500040F60012BCF1000FC4F2020245F600118A
:100C600002F14003C5F602011CBF45F60012C5F6AD
:100C7000020218BF01F1400302EB8E01C16601219F
:100C8000036701FA0EF1416780BD0000000000001B
:100C9000816959B1B1F5005F816A0FD103290BD881
:100CA000DFE801F00211021501207047816A022974
:100CB00009D001290BD031B10020704703293CBF76
:100CC00001207047F8D1C06AC0F300607047C06A65
:100CD000A0F1C070B0FA80F0400970470000000039
:100CE00070B540F26F44D0F800E0C4F20204D0F8CE
:100CF00058C0A64519DC9F25C4F20205AE4531DC7B
:100D00005725C4F20205AE4556DC1025C4F2020593
:100D1000AE4500F092802825C4F20205AE4500F0F1
:100D20008C804025C4F2020584E045F22F45C5F6CB
:100D30000205AE452BDC40F2B745C4F20205AE45D4
:100D400048DC40F27045C4F20205AE4575D040F271
:100D50008845C4F20205AE456FD040F2A045C4F20A
:100D6000020567E040F22745C4F20205AE4540DCCB
:100D7000A025C4F20205AE455FD0B825C4F2020535
:100D8000AE455AD040F21045C4F2020552E045F299
:100D90006B45C5F60205AE453CDC45F23045C5F66F
:100DA0000205AE4549D045F24445C5F60205AE45BB
:100DB00043D045F258453BE05825C4F20205AE4504
:100DC0003BD07025C4F20205AE4536D08825C4F26A
:100DD00002052FE040F2B845C4F20205AE452CD022
:100DE00045F20845C5F60205AE4526D045F21C453C
:100DF0001EE040F22845C4F20205AE451DD040F287
:100E00004045C4F20205AE4517D040F25845C4F241
:100E100002050FE045F26C45C5F60205AE450CD063
:100E200045F29445C5F60205AE4506D045F280452B
:100E3000C5F60205AE4540F0C980456EC66E002E6F
:100E4000866E6E601CBFD0E91C566E60A64515DC30
:100E50009F24C4F20204A6452BDC5724C4F20204EA
:100E6000A6454EDC1024C4F20204A64576D0282400
:100E7000C4F20204A64571D040246BE045F22F4431
:100E8000C5F60204A64527DC40F2B744C4F20204CA
:100E9000A64542DC40F27044C4F20204A6455DD08F
:100EA00040F28844C4F20204A64557D040F2A04460
:100EB00050E040F22744C4F20204A6453CDCA024E2
:100EC000C4F20204A64549D0B824C4F20204A645DF
:100ED00044D040F210443DE045F26B44C5F60204B4
:100EE000A6454FDC45F23044C5F60204A6455BD06A
:100EF00045F24444C5F60204A64555D045F258448F
:100F00004EE05824C4F20204A64527D07024C4F24F
:100F10000204A64522D088241CE040F2B844C4F262
:100F20000204A6451AD045F20844C5F60204A645B7
:100F30003AD045F21C4433E040F22844C4F20204A3
:100F4000A6450BD040F24044C4F20204A64505D0A9
:100F500040F25844C4F20204A64537D104683F2544
:100F60008668C06D00F01F00402E05FA00F0CCF836
:100F70000800206820F480202060636021D0A160F8
:100F8000E26070BD45F26C44C5F60204A6450BD084
:100F900045F28044C5F60204A64505D045F29444C6
:100FA000C5F60204A64511D10468C66D806806F036
:100FB0001F060125402805FA06F6CCF80460636098
:100FC00002D1A260E16070BDA160E26070BD00006E
:100FD0007047000000000000EFF3108072B600BF01
:100FE000FEE70000000000002DE9F04F8DB08046C4
:100FF00040F26010C2F2000000680BF069F99FED4A
:10100000800B02460B4651EC100B0AF0BBFD0AF0B8
:1010100011FF074603A82821FFF7C5FA40F2000593
:1010200040F22824C2F20005C2F2000420462988BA
:1010300008F048F940F248260023C2F20006204694
:101040004146326808F01BF940F24C243068C2F285
:1010500000042A68216807F03FFD40F2405045F245
:101060007861C2F20000C1F2342100680160882179
:1010700041604FF6FE712D68C7F6FF7101EA450227
:1010800082600C302168FFF70FFAC7EB550BBB45A8
:1010900016D920689FED5C0AB7EE002AB0EE401A20
:1010A000690800EB8702A1EB4700111F91ED013A9F
:1010B00030EE020A31EE031A04310138F6D103E0B2
:1010C0009FED511AB0EE410ABB454FF0000A69D9B5
:1010D00081EE000AB2EE041AD4F800900021A9F1C2
:1010E00004083D4620EE010AB0EE001A7842029054
:1010F0007800019080FE010A9FED431AF8430090AA
:1011000006E000BF013501315D4508F1040849D012
:1011100009EB850090ED002AB4EE402AF1EE10FABA
:10112000F0DD02980023B84204DDB0EE413AB0EEA3
:10113000414A2AE0B0EE414AB0EE413A44460E46FA
:10114000009800BF06EE106A94ED015AB0F1FF3C22
:101150004FF0000EB4EE452A00F10100B8EEC66A69
:1011600004F1040418BF4FF0010CF1EE10FA05EE83
:10117000064A06F10106C8BF4FF0010E33EE053AEC
:10118000B8420CEA0E021344DCDB01988342B9DB5F
:1011900003A884EE032A00EB8A000AF1010A80ED1D
:1011A000002AAFE7BAF1000F18D0BAF1010F1ADB2D
:1011B00003A89DED031A04389FED130A514600BFA2
:1011C00090ED012A043082EE013A0139B8FE433A2B
:1011D00082EE032A30EE020AF2D106E09FED0A0AFF
:1011E0000DB0BDE8F08F9FED080A01EE10AAB8EE31
:1011F000C11A80EE010A0DB0BDE8F08F00BF00BF3C
:10120000000000000000444000000000000000005A
:10121000B0B5B3F5804F034615D1002053F822C076
:10122000CCF6F0708D680CEA000C8C69D1E9000EE8
:1012300040EA0C00C96840EA0E1040EA052020434D
:1012400040EA014101E06FF07041002043F82210B4
:10125000B0BD000000000000B0B50A6850F82230B0
:1012600023F0010340F82230D1E900EC8B684CEA0E
:101270000302082BD1F80CC008BF42F04002D1E9AC
:10128000043442EA0C02D1F818C01A43CB69224355
:101290000C6A42EA0C02D1F824C01A438B6A22433A
:1012A000CC6A42EA0C02D1F830C01A434D6B22439B
:1012B0008C6B42EA0C0250F82E302A4340F28045F3
:1012C000CFF6C07522432B401A4340F82E200A6BFC
:1012D000B2F5801F06D10B6823B1036823F4801395
:1012E0001A4302600A681AB1496B0268114301602F
:1012F0000020B0BD00000000F0B500EB820340F21A
:10130000000CCFF6F07C5A688E6802F0404E0D69F2
:10131000D1E9002742EA0E02CC6842EA07124F697F
:1013200042EA06228E690CEB0555FE3742EA04427A
:101330002A43324342EA07625A600268D2020BD55E
:101340004268096922F4700243680CEB01511143B1
:1013500023F47002114341600020F0BD0000000042
:10136000704700000000000070470000000000000F
:1013700070470000000000007047000000000000FF
:1013800070470000000000002DE9F04182B00446E3
:1013900090F85000012803D1022002B0BDE8F0818E
:1013A000012084F8500000200190009042F20007D4
:1013B000C4F202072068B8420BD107F580780D46C9
:1013C000404605F0E1FA0646206805F0DDFA3043B4
:1013D0000AD0606D40F0200060650120002184F893
:1013E000501002B0BDE8F08107F5407246F20000EF
:1013F0002168C5F602001646414518BF00F5407643
:10140000B94241F4807108BF16462A68B368002AC1
:1014100023F4404214D042F2001C6B68C4F2020C68
:10142000614543EA0201B1601AD1384605F0A0FADD
:101430000746404605F09CFA3843A8B10020CDE7A6
:1014400042F20013B260C4F20203994215D1384649
:1014500005F08EFA0546404605F08AFA28430EE06C
:1014600005F086FA0028E9D1B06840F61F7188437C
:101470002968AA680843104308E005F079FA08B122
:101480000020ABE7B06840F61F718843B0600020D1
:10149000A4E70000000000002DE9F04782B0002220
:1014A0000192044690F85000012803D1022002B0B6
:1014B000BDE8F08720680D46012684F8506005F0ED
:1014C0005FFA28B1606D40F0200060650120C7E040
:1014D0002A6892FAA2F0B0FA80F3100308BF930EC4
:1014E0002068696803F01F0306FA03F3C7693B43EA
:1014F000C36105F05DFA206805F042FA06462068EF
:1015000005F022FA304368D120682968AA6805F0FE
:1015100073FA41F20000C5F60040006800F0704028
:10152000B0F1805F06D120686A690E21C06801EAC7
:1015300050030CE02068C1686A69C068C9064FEAB8
:10154000500002D400F00E0301E000F00803296906
:101550002068042928D1016E2A6801F0F841B1EB16
:10156000826F4FEA826103D1026E22F0004202666E
:10157000426E02F0F8428A4203D1426E22F00042EB
:101580004266826E02F0F8428A4203D1826E22F0F5
:1015900000428266C26E02F0F8428A421DD1C16EDC
:1015A00021F00041C16618E002FA03F32A6805F051
:1015B00067FA687E0138B0FA80F120684A09296923
:1015C000D20705F069FA287E0138B0FA80F1206868
:1015D0004A092969D20205F047FA206805F0C4F9E2
:1015E00008B100203CE020682968EA6805F018FA94
:1015F0000021E868C4F2FF7188422CD128684FF6B8
:10160000FF71C0F20F01012390FAA0F20842B2FA72
:1016100082F208BF820E4FF08060511C00EB8260A6
:1016200001F01F0200F0F840934001F01E0602EBAB
:1016300042070022CFF62062034302EB07522068E4
:1016400042EA0301AA6841F000710A2E38BF43EA5A
:10165000075105F0D1F92868B0F1FF3F06DD002001
:10166000002184F8501002B0BDE8F08746F200086F
:1016700042F20007C5F60208C4F2020708F54079F5
:10168000216807F5807607F540724846B14208BFE9
:101690001046B94208BF104605F04AF9216842F2E7
:1016A000001241F48071C4F202029142824608D1D4
:1016B000384605F059F90746304605F055F93843E4
:1016C00002E0404605F050F900287FF4FBAE5FEAE7
:1016D0000A20296809D40020CCF68430814204D144
:1016E000206840451DD00020BAE75FEACA1009D43F
:1016F0000020CCF25270814204D12068404531D0A4
:101700000020ADE75FEA4A204FF00000A8D4002295
:10171000CCF6B8729142A3D12068404527D0002072
:101720009EE74AF40001484605F096F940F20400AD
:1017300042F66351C2F20000C0F23E5100688009D7
:10174000A0FB01018809022101EB400001900198F2
:1017500058B1019801380190019800284FF000001D
:10176000F7D17DE74AF0807103E0002078E74AF482
:101770008001484605F070F9002071E70000000084
:10178000B0B540F2422E40F2982340F2387540F254
:10179000007440F2412CC2F2000EC2F20003C2F209
:1017A0000005C2F20004C2F2000C724640F22001B1
:1017B0009842C3F2020104BF2C46624640F2000583
:1017C0001E31C3F20205984208BF05F11E0140F226
:1017D00043250888C2F20005012100EE100AB8EE88
:1017E000400A287811709EF8001004EB800001294F
:1017F00080ED000A2AD19CF80000012818BFB0BD76
:10180000287841F20044C5F602040130C1B208391B
:1018100018BF014600208EF80000297001F0010277
:101820008CF800008021204601F0EEFF28784FF46C
:10183000807100F00202204601F0E6FF28784FF4A4
:10184000007100F00402204601F0DEFFB0BD000090
:10185000704700000000000070470000000000001A
:101860002DE9F04F81B046F2003842F200090168DC
:10187000C5F60208C4F20209044609F5807B09F5A1
:10188000407A40460D68594508BF504649454E6864
:1018900008BF504605F054F835400646A9070CD558
:1018A000606DC00603D4606D40F400606065204642
:1018B000FFF756FD206802210160680758BF5FEA04
:1018C000057043D5606DC00603D4606D40F40070B0
:1018D0006065206805F05CF890B3206801465845C3
:1018E00008BF4946814218BF0946002E08BF01467D
:1018F000052E08BF0146092E08BF0146C9688904A4
:101900001ED4016809071BD505F03AF840B1606D97
:1019100040F010006065A06D40F00100A0650FE090
:101920002068416821F00C014160606D20F48070F6
:101930006065606DC00403D4606D40F001006065B7
:101940002046FFF71DFF20680C210160A80658BF44
:101950005FEA45604ED5606DC00603D4606D40F40B
:1019600000506065206804F0F3FF0746206805F02A
:101970000FF8216846F001030A46594508BF4A4658
:101980008A4218BF1246002E08BF0A46072B08BF1E
:101990000A46D26847B3930103D528B312F4005026
:1019A00022D1900208681FD410F040001CD00846D5
:1019B00004F0CAFF40B1606D40F010006065A06D9A
:1019C00040F00100A0650FE02068416821F060014F
:1019D0004160606D20F480506065606DC00503D487
:1019E000606D40F0010060652046FFF7BDFC206897
:1019F0006021016028060AD4E80514D4A8051FD484
:101A0000E8062AD4680546D401B0BDE8F08F606DC1
:101A100040F480306065204600F06EF92068802137
:101A20000160E805EAD5606D40F40030606520464D
:101A3000FFF7A2FC20684FF480710160A805DFD594
:101A4000606D40F4802060652046FFF799FC2068B7
:101A50004FF400710160E806D4D5206B58B12068BE
:101A60005EB3584508BFD046484508BFD0464046FB
:101A700004F062FF50B1606D40F480606065A06D5D
:101A800040F00200A0652046FFF7E6FE2068102126
:101A900001606805B8D52068616D41F480416165D9
:101AA000A16D41F00801A1654FF4806101602046FD
:101AB000FFF75EFC01B0BDE8F08FC06800F00300E6
:101AC0000028D8D1E2E70000F0B581B00446002834
:101AD0004FF00000009019D0606D30B9204600F042
:101AE0000FF90020A06584F85000206804F038FF4A
:101AF00010B1206804F0FCFE206804F03DFF38B10E
:101B0000206804F039FFE0B1002523E00125E3E07F
:101B1000206804F001FF40F2040042F66351C2F273
:101B20000000C0F23E5100688009A0FB01010120C5
:101B300000EB9110009000980028E1D00098013847
:101B4000F8E7606D012540F010006065A06D40F081
:101B50000100A065206804F013FF616D01F0100121
:101B60000843606D03D040F010000125B3E020F47D
:101B7000817002306065206804F0F6FE58BB206872
:101B800042F2001140F48070C4F2020142F20006F9
:101B90008842C4F2020640F0A280304604F0E4FE1F
:101BA000074606F5807004F0DFFE384398B906F565
:101BB000807006F54072216846F20003C5F6020304
:101BC0008142104618BF03F54070B142616808BFFA
:101BD000104604F039FF01F01FFE41F20401884273
:101BE0000CD3A068102809D1607D216B227F41EAC7
:101BF000403040EA024040F01C0108E0607D216B6B
:101C0000227F41EA4030A168084340EA0241207F38
:101C1000012806D1206A0022CFF6FE7202EB404076
:101C20000143606A28B100F47870A26A084340EA70
:101C3000020120684CF20303CFF6F073C2681A4029
:101C40001143C16004F09CFE0646206804F07CFE4F
:101C5000304331D1217D2068E26A44F20307C36832
:101C600042EA813123EA07021143C16094F8381037
:101C70000129016914D14FF61E020027CFF6004258
:101C8000CFF6FF771140D4E90F231943636C07EBBC
:101C900002421143A26C1943114341F0010101E0DA
:101CA00021F0010101610169626B21F07041114372
:101CB00001612046FEF70CFD2068E1680129026BF6
:101CC00022F00F0102D1A269013A114301630121FF
:101CD000606D61F301006065284601B0F0BD46F219
:101CE0000000C5F6020004F03FFE00287FF473AF49
:101CF0005DE70000000000007047000000000000E9
:101D000070B5B8B0044602A8C0210025CDE936550B
:101D1000CDE934553395FEF746FC42F200112068B8
:101D2000C4F20201884267D042F20001C4F202010B
:101D3000884240F0CA80002003904FF400200290B7
:101D40004FF400302B9002A802F03AFD08B1FFF7E3
:101D500043F940F2442144F2D840C2F20001C5F6F2
:101D600002000A68002A02F101020A6008D1016833
:101D700041F020010160016801F020010191019909
:101D80008168002641F004018160806833A900F079
:101D9000040001900198012033900320349040F614
:101DA0000000C5F60200359601F05EFC40F2603599
:101DB0001020C2F20005C4F2020028600920C5E923
:101DC0000106EE604FF4806028614FF400606861A6
:101DD0004FF40050A8614FF48070C5E9070628460B
:101DE0006E6200F0D1FE002865D0FFF7F5F840F2F2
:101DF0006035C2F200055EE04FF4002002904FF41F
:101E000000302B9002A8039502F0DAFC08B1FFF72E
:101E1000E3F840F2442144F2D840C2F20001C5F692
:101E200002000A68002A02F101020A6008D1016872
:101E300041F020010160016801F020010191019948
:101E40008168002641F004018160806833A900F0B8
:101E5000040001900198022033900320349040F652
:101E60000000C5F60200359601F0FEFB40F2D835C1
:101E70001020C2F20005C4F20200183028600A20C7
:101E8000C5E90106EE604FF4806028614FF4006000
:101E900068614FF40050A8614FF48070C5E90706EF
:101EA00028466E6200F070FE28B1FFF795F840F208
:101EB000D835C2F20005122000210022E564AC638F
:101EC00002F0C6F8122002F0BFF838B070BD000072
:101ED0002DE9F04742F200060446C4F20206036808
:101EE00046F2003006F5807706F54075C5F602002B
:101EF000BB42904608BF2846B342894608BF2846E1
:101F000004F01EFD8246206804F03AFD18B994F8EA
:101F10005000012802D10220BDE8F087BAF1090F74
:101F20004FF0010084F8500058D800FA0AF040F24F
:101F30002121084252D02046FEF7A2FC30B10546CE
:101F4000002084F850002846BDE8F0872068616DC5
:101F500040F60172B84221EA020118BF0646BAF102
:101F6000000F01F58071616518BF864203D1616D74
:101F700021F480116165616D40F67107C9044FF06D
:101F8000000144BFA16D21F00601C0F60007002248
:101F9000A16540F2E971E36CC0F60001C3E90F17D7
:101FA00040F65107E16AC0F60007DF641C230360B6
:101FB00084F85020426842F01002426004F0F0FCC5
:101FC0002168E06C40314A46434601F08DF80546F1
:101FD000206804F005FD2846BDE8F087002084F85D
:101FE00050000120BDE8F0872DE9F04381B00021C9
:101FF000009140F204010446C2F2000140F26F4930
:10200000A56DC4F20209086848F2B511C1F64E3157
:102010002668A0FB01084E452F682A6815DC9F2022
:10202000C4F2020086422BDC5720C4F20200864232
:102030004FDC1020C4F20200864278D02820C4F27F
:102040000200864273D040206CE045F22F40C5F676
:102050000200864227DC40F2B740C4F2020086420A
:1020600043DC40F27040C4F2020086425FD040F28E
:102070008840C4F20200864259D040F2A04051E0AC
:1020800040F22740C4F2020086423DDCA020C4F2A8
:10209000020086424BD0B820C4F20200864246D0ED
:1020A00040F210403EE045F26B40C5F60200864229
:1020B00074DC45F23040C5F60200864200F08180B3
:1020C00045F24440C5F6020086427AD045F25840B7
:1020D00072E05820C4F20200864228D07020C4F278
:1020E0000200864223D088201CE040F2B840C4F2AF
:1020F000020086421BD045F20840C5F60200864227
:102100005FD045F21C4057E040F22840C4F2020084
:1021100086420CD040F24040C4F20200864206D013
:1021200040F25840C4F20200864240F0ED84E06D77
:1021300000F01F01082000FA01F23A4200F0148179
:1021400040F20F40C4F20200864213DC6F20C4F25A
:102150000200864200F38E803F20C4F202008642D5
:1021600000F3CF801020C4F20200864200F0ED8020
:102170002820E5E04E4500F3898040F23F40C4F25C
:102180000200864200F3C48040F21040C4F2020014
:10219000864200F0DA8040F22840D1E045F26C40FF
:1021A000C5F6020086420CD045F28040C5F602001A
:1021B000864206D045F29440C5F60200864240F0C1
:1021C000A3842068E16D01F01F010368580727D53B
:1021D0000420884010EA020722D01904686000F148
:1021E0008780980600F18C8440F20F40C4F2020010
:1021F000864200F3AB836F20C4F20200864200F3F4
:10220000E6833F20C4F20200864200F3508410208F
:10221000C4F20200864200F06D84282000F066BC03
:10222000980742D50220884010EA02073DD01904E1
:10223000686000F10E83980600F1988440F20F4028
:10224000C4F20200864200F3AF836F20C4F20200A2
:10225000864200F311843F20C4F20200864200F35C
:1022600056841020C4F20200864200F073842820B5
:1022700000F06CBC9F20C4F20200864251DC70204A
:10228000C4F20200864260D0882059E040F29F40AC
:10229000C4F2020086424BDC40F27040C4F20200FD
:1022A000864252D040F288404AE0180740F12C8420
:1022B00008208840104000F0278440F20F40C4F20C
:1022C0000200864200F32C836F20C4F20200864293
:1022D00000F34F833F20C4F20200864200F3938351
:1022E0001020C4F20200864200F0B1832820A9E346
:1022F000D80300F1B482A16C002940F00C8300F0F7
:1023000003BC4020C4F2020086421ED0582017E0D1
:1023100040F24040C4F20200864216D040F25840DB
:102320000EE0A020C4F2020086420ED0B82007E0E2
:1023300040F2B840C4F20200864206D040F2A0400B
:10234000C4F20200864240F08E82206804230068B6
:10235000184209D02068036823F004030360AA60D0
:10236000606D40F001006065012000FA01F23A4220
:1023700070D040F20F40C4F20200864210DC6F20A1
:10238000C4F2020086421CDC3F20C4F202008642F6
:1023900032DC1020C4F20200864251D028204AE0EC
:1023A0004E451ADC40F23F40C4F2020086422ADC6D
:1023B00040F21040C4F20200864241D040F2284070
:1023C00039E09F20C4F20200864225DC7020C4F26E
:1023D0000200864234D088202DE040F29F40C4F2B3
:1023E000020086421FDC40F27040C4F202008642C6
:1023F00026D040F288401EE04020C4F2020086420F
:102400001ED0582017E040F24040C4F2020086423D
:1024100016D040F258400EE0A020C4F202008642DE
:102420000ED0B82007E040F2B840C4F20200864265
:1024300006D040F2A040C4F20200864240F016826C
:102440002068406900F0800020B1AA60606D40F013
:1024500002006065042000FA01F23A4270D040F2B6
:102460000F40C4F20200864210DC6F20C4F202006A
:1024700086421CDC3F20C4F20200864232DC10207F
:10248000C4F20200864251D028204AE04E451ADCB0
:1024900040F23F40C4F2020086422ADC40F2104083
:1024A000C4F20200864241D040F2284039E09F2029
:1024B000C4F20200864225DC7020C4F2020086428B
:1024C00034D088202DE040F29F40C4F202008642C2
:1024D0001FDC40F27040C4F20200864226D040F277
:1024E00088401EE04020C4F2020086421ED05820E0
:1024F00017E040F24040C4F20200864216D040F29B
:1025000058400EE0A020C4F2020086420ED0B8204F
:1025100007E040F2B840C4F20200864206D040F222
:10252000A040C4F20200864240F0A6812068006804
:1025300000F0020020B1AA60606D40F00400606508
:10254000102000FA01F139427ED040F20F40C4F26F
:102550000200864210DC6F20C4F2020086421CDCBE
:102560003F20C4F20200864232DC1020C4F2020096
:10257000864251D028204AE04E451ADC40F23F40C6
:10258000C4F2020086422ADC40F21040C4F202008B
:10259000864241D040F2284039E09F20C4F2020038
:1025A000864225DC7020C4F20200864234D08820A6
:1025B0002DE040F29F40C4F2020086421FDC40F250
:1025C0007040C4F20200864226D040F288401EE0ED
:1025D0004020C4F2020086421ED0582017E040F28C
:1025E0004040C4F20200864216D040F258400EE04D
:1025F000A020C4F2020086420ED0B82007E040F2CC
:10260000B840C4F20200864206D040F2A040C4F2B4
:102610000200864240F03681266808223068104267
:1026200012D0A960206801684903016806D4C90571
:1026300006D4016821F00801016001E008034FD4CD
:10264000216C09B120468847E06D202100F01F0071
:102650008140394200F0AE8040F20F432268C4F25C
:1026600002039A4210DC6F23C4F202039A421CDC7C
:102670003F23C4F202039A4236DC1023C4F2020361
:102680009A4255D028234EE04A451ADC40F23F4397
:10269000C4F202039A422EDC40F21043C4F2020359
:1026A0009A4245D040F228433DE09F23C4F2020302
:1026B0009A4229DC7023C4F202039A4238D088235C
:1026C00031E040F29F43C4F202039A4223DC40F21D
:1026D0007043C4F202039A422AD040F2884322E0B7
:1026E000A16C0029AED1AFE74023C4F202039A42A5
:1026F0001ED0582317E040F24043C4F202039A422E
:1027000016D040F258430EE0A023C4F202039A42CE
:102710000ED0B82307E040F2B843C4F202039A4255
:1027200006D040F2A043C4F202039A4240F0AC80CB
:102730002268102312681A423CD0A96094F8352010
:102740002168042A0A681DD122F016020A604A692B
:1027500022F080024A61226C0AB9A26C1AB10A689E
:1027600022F008020A603F2101FA00F0A86001206F
:1027700084F83500216D0020002984F8340040F0F1
:10278000CA80C1E1500308680CD4C0050ED40868A3
:1027900020F010000860012084F83500002084F843
:1027A000340003E0000301D4616C00E0E16B09B187
:1027B00020468847606D002800F0A681606DC00744
:1027C00000F0A580042084F8350040F20F41206815
:1027D000C4F20201884210DC6F21C4F20201884277
:1027E0001CDC3F21C4F2020188424FDC1021C4F2FC
:1027F000020188426FD0282167E048451ADC40F288
:102800003F41C4F20201884247DC40F21041C4F269
:10281000020188425FD040F2284156E09F21C4F275
:102820000201884242DC7021C4F20201884252D087
:1028300088214AE040F29F41C4F2020188423CDC18
:1028400040F27041C4F20201884244D040F2884113
:102850003BE0D80376D4616C00295CD154E1216C53
:10286000002958D150E10823304670E53068002037
:1028700000287FF4EAADEDE53068002000287FF401
:102880005AAE5DE60422C9E6022353E74021C4F2B2
:10289000020188421FD0582117E040F24041C4F2A3
:1028A0000201884217D040F258410EE0A021C4F244
:1028B000020188420FD0B82107E040F2B841C4F2CB
:1028C0000201884207D040F2A041C4F202018842CE
:1028D00008BF206800E020684FEA9821026822F0D3
:1028E00001020260009801300090884203D82068FD
:1028F0000068C007F6D120680068C0074FF00300E9
:1029000008BF012084F83500002084F83400E16C11
:10291000002900F0F9802046884701B0BDE8F08327
:102920004E4532DC40F23F40C4F20200864271DC88
:1029300040F21040C4F20200864200F0888040F26B
:1029400028407FE0E16B0029E5D1DDE04E454BDC1E
:1029500040F23F40C4F20200864200F3AF8040F2F2
:102960001040C4F20200864200F0C48040F22840C9
:10297000BCE09F20C4F20200864254DC7020C4F206
:102980000200864263D088205CE040F29F40C4F29F
:10299000020086424EDC40F27040C4F202008642E1
:1029A00055D040F288404DE04E4571DC40F23F404A
:1029B000C4F20200864200F3B18040F21040C4F23B
:1029C0000200864200F0C68040F22840BEE09F2010
:1029D000C4F2020086427ADC7020C4F20200864211
:1029E00000F08880882081E040F29F40C4F202001D
:1029F000864273DC40F27040C4F20200864279D015
:102A000040F2884072E04020C4F2020086421ED0AC
:102A1000582017E040F24040C4F20200864216D02F
:102A200040F258400EE0A020C4F2020086420ED0D0
:102A3000B82007E040F2B840C4F20200864206D057
:102A400040F2A040C4F20200864240F09480266822
:102A50006FF01C02306810403060012000FA01F174
:102A60006960606584F835000020E16C84F834000A
:102A700000297FF450AF47E09F20C4F20200864255
:102A800055DC7020C4F20200864263D088205DE0ED
:102A900040F29F40C4F2020086424FDC40F2704098
:102AA000C4F20200864255D040F288404EE04020F9
:102AB000C4F2020086421DD0582017E040F2404088
:102AC000C4F20200864215D040F258400EE0A02029
:102AD000C4F2020086420DD0B82007E040F2B840B0
:102AE000C4F20200864205D040F2A040C4F20200C7
:102AF000864243D126686FF0080130680840306094
:102B0000216C00297FF407AF01B0BDE8F0834020BD
:102B1000C4F2020086421DD0582017E040F2404027
:102B2000C4F20200864215D040F258400EE0A020C8
:102B3000C4F2020086420DD0B82007E040F2B8404F
:102B4000C4F20200864205D040F2A040C4F2020066
:102B5000864216D126686FF0140130680840306054
:102B6000012084F83500002084F83400E16B00294E
:102B70007FF4D1AEC8E76FF00E026BE76FF004018F
:102B8000BBE76FF00A01E8E72DE9F04381B00446A6
:102B900000F04AFE002C00F0758140F26F480546B7
:102BA0002068C4F20208404515DC9F21C4F20201EE
:102BB00088422BDC5721C4F20201884251DC1021EB
:102BC000C4F2020188427AD02821C4F2020188426C
:102BD00075D040216EE045F22F41C5F602018842D2
:102BE00027DC40F2B741C4F20201884245DC40F2E2
:102BF0007041C4F20201884261D040F28841C4F2BF
:102C0000020188425BD040F2A04153E040F22741EC
:102C1000C4F2020188423FDCA021C4F202018842D2
:102C20004DD0B821C4F20201884248D040F2104190
:102C300040E045F26B41C5F60201884200F3908006
:102C400045F23041C5F60201884200F09C8045F211
:102C50004441C5F60201884200F0958045F2584192
:102C60008CE05821C4F20201884228D07021C4F2BD
:102C70000201884223D088211CE040F2B841C4F20E
:102C8000020188421BD045F20841C5F60201884284
:102C900079D045F21C4171E040F22841C4F20201B2
:102CA00088420CD040F24041C4F20201884206D072
:102CB00040F25841C4F20201884240F0138240F2CF
:102CC0000F420221C4F2020284F8351090424FF004
:102CD000000184F8341012DC6F21C4F20201884232
:102CE00020DC3F21C4F20201884200F392801021CF
:102CF000C4F20201884200F0B1802821A8E04045DA
:102D00001EDC40F23F41C4F20201884200F3888099
:102D100040F21041C4F20201884200F09F8040F26C
:102D2000284195E09F21C4F20201884200F381808E
:102D30007021C4F20201884200F09080882187E06F
:102D400040F29F41C4F20201884279DC40F27041B6
:102D5000C4F20201884200F0818040F2884177E0AD
:102D600045F26C41C5F6020188420CD045F2804123
:102D7000C5F60201884206D045F29441C5F602012B
:102D8000884240F0AF8104F1080E022084F835003B
:102D9000002084F8340020689EE80640A1F18003FA
:102DA0004029B3FA83F34FEA5313D4E90579D4E900
:102DB000076C05684FEA83336FF3101508BF1023C3
:102DC00045EAD2014AF6F8321943CAF2FD7241EAE5
:102DD000DE014CF6CD4341EAD701024441EAD90174
:102DE000CCF6CC4341EAD601A2FB032341EA1C11F5
:102DF00001606FF0030000EA9300E0652046FDF7F4
:102E0000D3FDE16D012201F01F0102FA01F14160E1
:102E10009CE04021C4F2020188421FD0582117E0F3
:102E200040F24041C4F20201884217D040F25841BA
:102E30000EE0A021C4F2020188420FD0B82107E0C1
:102E400040F2B841C4F20201884207D040F2A041EA
:102E5000C4F20201884208BF206800E020680168CF
:102E600021F00101016000BF27683868C0070DD05C
:102E700000F0DAFC401B0628F6D320206065032012
:102E800084F83500012001B0BDE8F08348F23F012D
:102E900004F108053868CFF6106108402ECD0843CC
:102EA000A1691043E2691843236A0543606A294314
:102EB000042841EA020141EA030103D1D4E90B23CA
:102EC0001143194341F20002C5F600421268B2F103
:102ED000005F17D36268A2F12903202B06D23F2599
:102EE000CCF2C03525FA03F3DB0706D1A2F14F037C
:102EF0000022042B38BF012200E00122002A18BF63
:102F000041F4801139600428796921F0070141EA10
:102F1000000510D1D4E90A1045EA010558B1204650
:102F2000FDF7B6FE38B140206065012084F8350019
:102F300001B0BDE8F08320467D61FDF735FDE16D10
:102F40003F2201F01F0102FA01F181602068404533
:102F500019DC9F21C4F20201884231DC5721C4F2FE
:102F60000201884256DC1021C4F20201884200F0BE
:102F700091802821C4F20201884200F08B80402118
:102F8000C4F2020184E045F22F41C5F602018842F5
:102F90002BDC40F2B741C4F20201884248DC40F227
:102FA0007041C4F20201884274D040F28841C4F2F8
:102FB000020188426ED040F2A041C4F2020167E0F3
:102FC00040F22741C4F20201884240DCA021C4F251
:102FD000020188425ED0B821C4F20201884259D071
:102FE00040F21041C4F2020152E045F26B41C5F6D5
:102FF000020188423CDC45F23041C5F602018842BC
:1030000048D045F24441C5F60201884242D045F21B
:1030100058413BE05821C4F2020188423AD0702165
:10302000C4F20201884235D08821C4F202012FE0A7
:1030300040F2B841C4F2020188422BD045F2084167
:10304000C5F60201884225D045F21C411EE040F23F
:103050002841C4F2020188421CD040F24041C4F22F
:103060000201884216D040F25841C4F202010FE03A
:1030700045F26C41C5F6020188420BD045F29441FD
:10308000C5F60201884205D045F28041C5F602012D
:1030900088421FD12046FDF71BFDA068802801D182
:1030A0000020606004F160036068C7B201380ECB95
:1030B00007280F60536009D82046FDF785FD04F10D
:1030C0006C02002307CA03604A6003E00020C4E9E1
:1030D0001B00606700206065012184F8351001B095
:1030E000BDE8F0834020C9E6F0B581B0A8B304463E
:1030F00090F83400012802D1022001B0F0BD012077
:1031000084F8340094F83500012820D1022084F896
:1031100035000020606540F20F472068C4F20207C6
:1031200040F26F45B842C4F2020519DC6F26C4F2C2
:103130000206B04225DC3F26C4F20206B0423BDC68
:103140001026C4F20206B0425BD0282653E04FF4AA
:1031500000606065002084F83400012001B0F0BDFB
:10316000A8421ADC40F23F46C4F20206B0422ADC12
:1031700040F21046C4F20206B04242D040F2284665
:1031800039E09F26C4F20206B04225DC7026C4F264
:103190000206B04235D088262DE040F29F46C4F2A8
:1031A0000206B0421FDC40F27046C4F20206B04292
:1031B00027D040F288461EE04026C4F20206B04204
:1031C0001FD0582617E040F24046C4F20206B04233
:1031D00017D040F258460EE0A026C4F20206B042D4
:1031E0000FD0B82607E040F2B846C4F20206B0425B
:1031F00007D040F2A046C4F20206B04208BF2068E1
:1032000000E02068066826F0010606602046FDF70B
:1032100067FDB7212068C4F2020188424FF0010126
:1032200013DD40F25742C4F2020290421EDC40F22B
:103230002742C4F20202904233DCB822C4F20202F6
:1032400090424BD040F2104243E05722C4F20202B7
:1032500090421ADD8722C4F2020290422ADC5822F0
:10326000C4F20202904239D0702232E040F287422A
:10327000C4F20202904224DC40F25842C4F202023C
:1032800090422BD040F2704223E01022C4F202029E
:10329000904223D02822C4F2020290421ED0402243
:1032A00017E040F22842C4F20202904216D040F2E7
:1032B00040420EE08822C4F2020290420ED0A022C8
:1032C00007E040F28842C4F20202904206D040F287
:1032D000A042C4F20202904240F036810029016807
:1032E0000AD022680B26236C66F34401116073B187
:1032F000116841F0080109E022680526236C66F395
:10330000430111601BB1116841F004011160A84232
:1033100019DC9F21C4F20201884231DC5721C4F23A
:103320000201884256DC1021C4F20201884200F0FA
:1033300091802821C4F20201884200F08B80402154
:10334000C4F2020184E045F22F41C5F60201884231
:103350002BDC40F2B741C4F20201884248DC40F263
:103360007041C4F20201884274D040F28841C4F234
:10337000020188426ED040F2A041C4F2020167E02F
:1033800040F22741C4F20201884240DCA021C4F28D
:10339000020188425ED0B821C4F20201884259D0AD
:1033A00040F21041C4F2020152E045F26B41C5F611
:1033B000020188423CDC45F23041C5F602018842F8
:1033C00048D045F24441C5F60201884242D045F258
:1033D00058413BE05821C4F2020188423AD07021A2
:1033E000C4F20201884235D08821C4F202012FE0E4
:1033F00040F2B841C4F2020188422BD045F20841A4
:10340000C5F60201884225D045F21C411EE040F27B
:103410002841C4F2020188421CD040F24041C4F26B
:103420000201884216D040F25841C4F202010FE076
:1034300045F26C41C5F6020188420BD045F2944139
:10344000C5F60201884205D045F28041C5F6020169
:10345000884272D1216E0A68D20303D50A6842F409
:1034600080720A60E16E19B10A6842F480720A60E3
:10347000B84210DC6F21C4F2020188421CDC3F21FB
:10348000C4F20201884232DC1021C4F202018842F7
:1034900052D028214AE0A8421ADC40F23F41C4F24F
:1034A000020188422ADC40F21041C4F20201884243
:1034B00042D040F2284139E09F21C4F20201884203
:1034C00025DC7021C4F20201884235D088212DE02C
:1034D00040F29F41C4F2020188421FDC40F2704179
:1034E000C4F20201884227D040F288411EE0402108
:1034F000C4F2020188421FD0582117E040F2404137
:10350000C4F20201884217D040F258410EE0A021D7
:10351000C4F2020188420FD0B82107E040F2B8415E
:10352000C4F20201884207D040F2A041C4F2020175
:10353000884208BF206800E02068016841F001016E
:103540000160002001B0F0BD4FF64831CBF6FD71AF
:103550000144B1FA81F14909C0E600000000000011
:10356000B0B5044600F060F940F2C0110546C2F261
:103570000001621C097818BF0C4400BF00F054F928
:10358000401BA042FAD3B0BD2DE9F043B7B040F2E2
:1035900040200025C2F20000369535950178CDE92E
:1035A00033550029329559D102AC01210170C02157
:1035B0002046FCF7F8FF4FF08070029020460395FC
:1035C000149501F0FDF808B1FDF706FD44F2D44072
:1035D00040F60044C5F60200C5F6020432AD4FF0D5
:1035E000020801684FF0000941F480510160006851
:1035F000294600F48050019001984FF23F0032902C
:1036000004F50060CDF8CC800326CDF8D0900C27CF
:103610003596369700F028F832A97F2081E801031B
:1036200004F540602946CDE9356700F01DF832A960
:103630004FF6837081E8010304F580602946CDE9E7
:10364000356700F011F832A94FF6337081E80103B5
:1036500020462946CDE9356700F006F837B0BDE8C9
:10366000F0830000000000002DE9F04F83B00C68EB
:10367000002C00F0C68000F1264242F2004702F121
:10368000FF72C5F602074FEAB22201920A22B8423F
:1036900008BF0922002500274FF0010A009209E027
:1036A0000C68043734FA0AF20AF1010A05F102053E
:1036B00000F0A780AAF10109012202FA09FE14EA2A
:1036C0000E08EDD0D1F804B00BF00304A4F1010C06
:1036D000BCF1010F11D803228668AA40CB6826EA04
:1036E0000202AB401A4382604268CBF3001322EA25
:1036F0000E0203FA09F31A434260032C1ED003237F
:10370000C268AB40022C22EA03028B6803FA05F37D
:1037100042EA0302C26011D16FF0030207F01C06F7
:1037200002EA59020F23024403FA06F4D2F820C039
:103730000B692CEA0404B340234313620323026899
:10374000AB404E689A4306F00303AB4016F4403F8B
:1037500042EA03020260A3D044F2F44340F2084E6E
:10376000C5F60203C5F6000E1A6842F002021A609E
:103770001A6807F00C0302F002020292029A29F082
:103780000302019C009E092C38BF26460F2452F8E4
:103790000EC09C402CEA040406FA03F34FF0B04C30
:1037A000234342F80E30DCF800204B6842EA08065A
:1037B000DC0258BF22EA08069C02CCF8006040F206
:1037C000040CC5F6000CDCF8002042EA080658BFDD
:1037D00022EA08069C03CCF80060DCF8802042EA6C
:1037E000080658BF22EA0806DB03CCF88060DCF844
:1037F0007C2042EA080658BF22EA0806CCF87C6022
:103800004EE703B0BDE8F08F002A08BF09048161CC
:10381000704700000000000041F20000C5F60040C3
:103820000068000C7047000040F27C70C2F200009B
:1038300000687047000000002DE9F0414FF00105DD
:1038400019B1002A18BF002B02D12846BDE8F0812B
:10385000044690F84D00012803D194F84C0001284B
:1038600002D10220BDE8F081012584F84C50E162CC
:103870004FF0000862630520238646F2092763861D
:10388000C0F6000723876387C4F8508084F84D0092
:103890002268D4E91103966826F44046966046F201
:1038A000D1162032C0F60006C3E90F6746F2192789
:1038B000C0F60007DF64638EFFF716FC50B1206D81
:1038C00040F008002065284684F84D5084F84C806C
:1038D000BDE8F08121688868000403D4886840F45A
:1038E00000408860626BA06C638F3031FFF7FCFB97
:1038F00060B1206D012540F00800206584F84D502E
:10390000002084F84C002846BDE8F08120688168DA
:10391000490403D4816841F4804181600168C9078A
:1039200003D1016841F0010101600168002541F403
:103930000071016084F84C502846BDE8F081000019
:1039400010B56424204605F00BFF0134C82CF9D1D2
:1039500010BD00000000000010B50024204605F056
:10396000FFFE0134642CF9D110BD000000000000FE
:10397000704700000000000070B50446006801694F
:10398000406994F84D2000EA0105042A1DD105F094
:10399000410005F04006012802D1E16B204688472E
:1039A0009EB1206840F26112016991430161816911
:1039B00041F040018161012084F84D00206D40F00C
:1039C000020020652046FFF7D3FF94F84D0003283E
:1039D0001CD105F0220005F02006022802D1216C3E
:1039E0002046884796B12068016921F4B1710161D0
:1039F000816941F020018161012084F84D00206D32
:103A000040F0040020652046FFF7B2FF94F84D0017
:103A1000052842D1680705D5216C20468847E16B0F
:103A20002046884705F00500012802D1E16B2046B9
:103A3000884705F00600022802D1216C20468847FD
:103A4000A80613D5206840F2631201699143016111
:103A5000816941F020018161012084F84D00206DD1
:103A600040F0040020652046FFF782FF680658BF3B
:103A700070BD206840F26312016991430161816960
:103A800041F040018161012084F84D00206D40F03B
:103A9000020020652046FFF76BFF70BD00000000AC
:103AA00070B538B3044690F84D0028B9002084F86A
:103AB0004C00204600F0ACF8022084F84D0020684D
:103AC0000168C90703D0016821F0010101600021EC
:103AD000016560680A2855D8012101FA00F010F448
:103AE0008A6F4FD060690225022805D10020FF2D82
:103AF00032D987E0012070BDD4E9020140F0800096
:103B0000002908BF0125B0284FF480504FF0000174
:103B100014BF0026012600F0A7FC20212269F140F5
:103B20004FF480736943B2F1007F08BF23FA06F1B6
:103B3000B0FBF1F0616900EB80004000B0FBF1F0F8
:103B40004CF6CD410530CCF6CC41A0FB01010D096E
:103B5000C1F3C000FF2D55D880F0010185F00102AE
:103B60001143B1FA81F149094CD121680006002DB9
:103B70000A6D08BF4FF080706FF3184240EA0540AD
:103B80001043086594E80F1049F240060A29056DB4
:103B9000CFF6FF5606EA050646EA010642EA0602A5
:103BA000A66942EA0302236A42EA0602666A42EA18
:103BB000030242EA060242EA0C0242F001020265F6
:103BC00040F6F8728261026822F480320260C268B4
:103BD000E36922F4000242EA0302C2600CD8012227
:103BE00002FA01F111F48A6F1FBFC16821F0004190
:103BF000A26A114318BFC16000202065012184F82A
:103C00004D1070BD206D40F010002065012070BD8A
:103C10002DE9F04FB7B0044602A8C0210025CDE938
:103C20003555CDE933553295FCF7BDFC43F60041DF
:103C30002068C4F20001884202D037B0BDE8F08F9E
:103C400040F264100395C2F2000040F25045C2F207
:103C500000054FF480510078029118210C91002842
:103C600000F0B0804FF481700D904FF0030A0020F7
:103C7000CDE90EAACDF840A0CDE9110013904FF484
:103C800000501A9002A800F09BFD08B1FDF7A4F9BE
:103C900044F2E04040F60006C5F60200C5F6020612
:103CA00032AF4FF0020981684FF0010B41F400413F
:103CB000816081684FF0060801F40041019101998B
:103CC000016841F001010160016801F00101019109
:103CD0000199016841F002010160016801F00201EF
:103CE00001910199016841F00401016000683946C1
:103CF00000F004000190019810203290A6F50060B9
:103D0000CDF8CC90CDE934BACDF8D880FFF7ACFC33
:103D100032A9042081E8010A07203690A6F58060C8
:103D20003946CDF8D4A0FFF79FFC32A9802081E866
:103D3000010A30463946CDE935B8FFF795FC32A97E
:103D40004FF4406081E8010ACDF8D4A040F2400A67
:103D500030463946C4F2020ACDF8D880FFF784FC19
:103D600040F2C8460AF11800C2F200064FF480671C
:103D70004FF400684FF4005130603E2070604020E6
:103D8000B0600020F0604FF480793761C6F814808D
:103D9000B161C6E9079070623046FEF7F5FE08B1E2
:103DA000FDF71AF93D20686000206664B4634FF4A3
:103DB0000051C5F800A0C5E90200C5E90478C5E9CD
:103DC0000619ACE0D5200D9002260E9603270020A0
:103DD000CDE90F77CDE9110013904FF400501A9000
:103DE00002A800F0EDFC08B1FDF7F6F844F2E0405F
:103DF0004FF00109C5F602004FF0060A4FF0020B22
:103E00004FF00308816841F400418160816801F44A
:103E1000004101910199016841F0010101600168CF
:103E200001F0010101910199016841F00201016075
:103E3000016801F0020101910199016841F004015A
:103E40000160006800F00400019001981020CDE9A5
:103E5000320640F60006CDE93497C5F6020632AFC9
:103E6000A6F500603946CDF8D8A0FFF7FDFB042089
:103E70003946CDE9320BCDE9349807203690A6F5C6
:103E80008060FFF7F1FB80203946CDE9320B3046E8
:103E9000CDE93499CDF8D8A0FFF7E6FB4FF44060A8
:103EA0003946CDE9320BCDE9349840F2400830462E
:103EB000C4F20208CDF8D8A0FFF7D6FB40F2C846FE
:103EC00008F11800C2F2000600214FF480674FF499
:103ED000006930603E2070604020B0604FF40050B8
:103EE000B0613046F1604FF4807A3761C6F81490C3
:103EF000C6E907A17162FEF747FE08B1FDF76CF84D
:103F000066643D20B4634FF40051C5F800806860DA
:103F10000020C5E90200C5E90479C5E9061AC5E92A
:103F200008002846FEF730FE08B1FDF755F83320AB
:103F300000210022A564AC6300F08AF8332000F071
:103F400083F837B0BDE8F08F40F2C01040F27C71CA
:103F5000C2F20000C2F2000100780A681044086052
:103F6000704700000000000080B5032000F080F8DA
:103F700001F0A6FA44F218414CF2A853C5F602012A
:103F8000C0F600030A68C2F30322096801F00F01BA
:103F90009A5C595C02F01F02D04040F20802C2F263
:103FA000000201F01F0120FA01F1116040F204014A
:103FB000C2F2000108600F2000F00AF800281CBFC0
:103FC000012080BD00F030F8002080BD000000001E
:103FD000B0B540F2C011C2F20001097801B3044645
:103FE00040F20400C2F200004FF47A72B2FBF1F129
:103FF0000068B0FBF1F001F0FBFF0F2C4FF0010562
:104000000CD858B94FF0FF3000222146002500F0AF
:104010001FF840F2C410C2F2000004602846B0BD90
:104020000120B0BD0000000081B044F2F440C5F6AC
:104030000200016841F002010160006800F0020026
:104040000090009801B0704780B504F085F980BDFC
:1040500070B514460D46064604F08EF929462246F0
:1040600002F0EAFF0146304604F08EF970BD000010
:1040700080B504F09DF980BDB0B544F60C05C5F6D9
:10408000020529684907296805D401F00701081AC3
:1040900018BF0120B0BD21F0070108432860FFF7D9
:1040A000C3FB044655F8080C800407D4FFF7BCFB9B
:1040B000001BB0F57A7FF5D90120B0BD0020B0BD5E
:1040C00080B501F0ADF944F220414CF2A852C5F69A
:1040D0000201C0F600020968C1F30211515C01F04F
:1040E0001F01C84080BD000080B544F2304EC5F6C7
:1040F000020E5EF8083C5EF8082CC2F3051C5EF860
:10410000042CDEF8041002F00102BCF1000FC1F330
:10411000CC0102FB01F100EE101AB8EE400A0DD0FE
:1041200003F00303022B0ED0012B0FD01BB95EF856
:10413000301C89060DD49FED351A18E00021C0E926
:104140000011816080BD9FED301A10E09FED2D1AA7
:104150000DE05EF8301C49F20002C0F2D032C1F32B
:10416000C10122FA01F101EE101AB8EE411A02EE75
:1041700010CA9FED274AB8EE422ADEF800106FF30E
:104180005F2103EE101A81EE021AB8EE433ADEF810
:10419000001000EE043AB7EE000AC1F3462133EEF8
:1041A000002A03EE101AB8EE433A21EE021A33EE5B
:1041B000002A81EE022ABCEEC22A80ED002ADEF837
:1041C0000010C1F3064102EE101AB8EE422A32EE98
:1041D000002A81EE022ABCEEC22A80ED012ADEF816
:1041E0000010C1F3066102EE101AB8EE422A32EE58
:1041F000000A81EE000ABCEEC00A10EE101A8160BF
:1042000080BD00BF0024744A001BB74B0024744CCF
:10421000000000390000000080B544F2384EC5F6B9
:10422000020E5EF8103C5EF8102CC2F3053C5EF8FE
:104230000C2CBCF1000FC2F30012DEF80410C1F325
:10424000CC0102FB01F100EE101AB8EE400A0BD0CF
:1042500003F00303022B0CD073B95EF8381C8906F7
:104260000DD49FED351A18E00021C0E900118160DE
:1042700080BD9FED301A10E09FED2D1A0DE05EF825
:10428000381C49F20002C0F2D032C1F3C10122FA57
:1042900001F101EE101AB8EE411A02EE10CA9FEDBC
:1042A000274AB8EE422ADEF800106FF35F2103EED2
:1042B000101A81EE021AB8EE433ADEF8001000EE52
:1042C000043AB7EE000AC1F3462133EE002A03EEAA
:1042D000101AB8EE433A21EE021A33EE002A81EEAC
:1042E000022ABCEEC22A80ED002ADEF80010C1F3DB
:1042F000064102EE101AB8EE422A32EE002A81EE92
:10430000022ABCEEC22A80ED012ADEF80010C1F3B9
:10431000066102EE101AB8EE422A32EE000A81EE71
:10432000000ABCEEC00A10EE101A816080BD00BF0A
:104330000024744A001BB74B0024744C0000003961
:1043400080B544F2404EC5F6020E5EF8183C5EF8A9
:10435000182CC2F3055C5EF8142CBCF1000FC2F3FC
:104360000022DEF80410C1F3CC0102FB01F100EEE3
:10437000101AB8EE400A0BD003F00303022B0CD046
:1043800073B95EF8401C89060DD49FED351A18E00C
:104390000021C0E90011816080BD9FED301A10E05E
:1043A0009FED2D1A0DE05EF8401C49F20002C0F2AC
:1043B000D032C1F3C10122FA01F101EE101AB8EEB8
:1043C000411A02EE10CA9FED274AB8EE422ADEF8E3
:1043D00000106FF35F2103EE101A81EE021AB8EE9F
:1043E000433ADEF8001000EE043AB7EE000AC1F3DB
:1043F000462133EE002A03EE101AB8EE433A21EEBE
:10440000021A33EE002A81EE022ABCEEC22A80EDA7
:10441000002ADEF80010C1F3064102EE101AB8EED1
:10442000422A32EE002A81EE022ABCEEC22A80ED38
:10443000012ADEF80010C1F3066102EE101AB8EE90
:10444000422A32EE000A81EE000ABCEEC00A10EEEB
:10445000101A816080BD00BF0024744A001BB74B56
:104460000024744C0000003980B584B0024641F647
:10447000FF7300209B1A70EB010329DB40F2FF332E
:104480009B1A70EB01034FDA82F480630B4300F058
:10449000AD8082F400630B4300F0BB8082F4805255
:1044A000114340F07A8144F20041C5F60201086DE3
:1044B000C0F30232042A00F25D8148F20000C0F22B
:1044C000BB00DFE812F0B900E000E7006A01F0008D
:1044D00047F6FF739B1A70EB010343DA82F4004343
:1044E0000B4300F0AD8082F480330B4300F0C080BA
:1044F00082F40022114340F0508144F20040C5F69E
:104500000200816D01F44031B1F5003F00F01A81E5
:10451000B1F5803F00F02281002940F02B81006836
:10452000000140F12781B1E082F480730B4335D064
:1045300082F40072114340F0308144F20041C5F62C
:104540000201086DC0F38212042A00F2138148F2BE
:104550000000C0F2BB00DFE812F06F0096009D0083
:104560002001A60082F400530B432CD082F4804239
:10457000114340F0128144F20040C5F60200816D03
:10458000C1F30271052900F2F580DFE801F003AC08
:10459000B3BAC86AFFF794FD04B080BD44F200418D
:1045A000C5F60201086D00F00702042A00F2E2805D
:1045B00048F20000C0F2BB00DFE812F03E006500E8
:1045C0006C00EF00750044F20040C5F60200016D7A
:1045D000C1F30241052900F2CD80DFE801F0038438
:1045E0008B92A04200F044FF04B080BD44F2004131
:1045F000C5F60201886DC0F34252042A00F2BA8067
:1046000048F20000C0F2BB00DFE802F0163D44C7EC
:104610004D0044F20041C5F60201886DC0F302620C
:10462000042A00F2A78048F20000C0F2BB00DFE8D5
:1046300002F0032A31B43A00086880017CD499E082
:1046400044F20040C5F60200016D01F04051B1F1A5
:10465000005F00F08C80B1F1805F6AD0002940F0EB
:104660008980006843F200618003C0F26E115CE053
:1046700044F20040C5F60200C16C0068C9032CD4A6
:10468000800177D558E00868000173D501A8FFF7CD
:10469000C3FD05E0086880006CD501A8FFF750FE57
:1046A000019804B080BDC86C0B6810F040520868D7
:1046B00002D113F0040328D1B2F1805F02D110F4CB
:1046C000807060D1086810F400301CBF43F20060B5
:1046D000C0F26E10B2F1005F6BE000014AD501A894
:1046E000FFF79AFD40E00068000143D501A8FFF7FD
:1046F00093FD24E0006880003CD501A8FFF720FE70
:104700001DE00168490735D50068C0F3C10049F2D2
:104710000001C0F2D03121FA00F004B080BD006881
:1047200040F60011C005C0F23D0101EAE07004B09E
:1047300080BD006880011DD501A8FFF7D5FC029857
:1047400004B080BDC16C036811F04051026814D1FF
:1047500013F0040311D0C2F3C100D8E70068800051
:1047600008D501A8FFF7ECFD039804B080BD0068F0
:1047700000010ED4002004B080BDB1F1805F0ED1E5
:1047800012F480720BD040F60010C0F23D0004B06D
:1047900080BD01A8FFF740FD029804B080BD00680D
:1047A00010F400301CBF43F20060C0F26E10B1F193
:1047B000005F18BF002004B080BD000000000000B2
:1047C0002DE9F04381B00446C07844F22C4900073B
:1047D000C5F6020901D400252EE0A06E4FEA305044
:1047E00003280DD80025DFE800F0020E1714D9F8D1
:1047F0000000002540F40030C9F8000055B913E06E
:1048000001253DB910E004F10800022102F048FC46
:1048100005464DB1A84611E004F12800022102F03E
:10482000CFFC0546002DF5D1D9F82400A16E20F467
:1048300040100843C9F824004FF000086078C00712
:1048400030D0A06D042807D8DFE800F00A131C035D
:104850000300FDB1A84625E00125002DFAD119E09D
:10486000D9F8000040F40030C9F80000002DF1D163
:1048700010E004F10800002102F012FC0546002DB2
:10488000E8D107E004F12800002102F099FC054678
:10489000002DDFD1D9F82400A16D20F007000843D6
:1048A000C9F824006078800732D5E06D4FEAB01077
:1048B000042807D8DFE800F00A131C030300FDB149
:1048C000A84625E00125002DFAD119E0D9F800000D
:1048D00040F40030C9F80000002DF1D110E004F1DF
:1048E0000800002102F0DCFB0546002DE8D107E0BE
:1048F00004F12800002102F063FC0546002DDFD101
:10490000D9F82400E16D20F4E0700843C9F82400D0
:104910006078400734D5D4F8A8004FEA70500428D6
:1049200007D8DFE800F00A131C030300FDB1A84616
:1049300026E00125002DFAD119E0D9F8000040F455
:104940000030C9F80000002DF1D110E004F108009A
:10495000002102F0A5FB0546002DE8D107E004F197
:104960002800002102F02CFC0546002DDFD1D9F8EB
:104970002C00D4F8A81020F460000843C9F82C00DB
:104980006078000734D5D4F8AC004FEA30600428D2
:1049900007D8DFE800F00A131C030300FDB1A846A6
:1049A00026E00125002DFAD119E0D9F8000040F4E5
:1049B0000030C9F80000002DF1D110E004F108002A
:1049C000002102F06DFB0546002DE8D107E004F15F
:1049D0002800002102F0F4FB0546002DDFD1D9F8B4
:1049E0002C00D4F8AC1020F0E0600843C9F82C008B
:1049F000E078800728D5E06C4FEA3010032806D80D
:104A0000DFE800F002091202B5B1A8461CE001255A
:104A1000002DFAD110E0D9F8000040F40030C9F8B8
:104A20000000002DF1D107E004F10800022102F09E
:104A300037FB0546002DE8D1D9F82000E16C20F0C5
:104A400030000843C9F820006078C00632D5206ED7
:104A50004FEA3030042807D8DFE800F00A131C03BF
:104A60000300FDB1A84625E00125002DFAD119E08B
:104A7000D9F8000040F40030C9F80000002DF1D151
:104A800010E004F10800002102F00AFB0546002DA9
:104A9000E8D107E004F12800002102F091FB05466F
:104AA000002DDFD1D9F82400216E20F4E040084326
:104AB000C9F824006078800626D5606E4FEA304041
:104AC000052807D8DFE800F0030A100303039DB1AF
:104AD000A84619E00125002DFAD10DE004F10800E7
:104AE000012102F0DDFA04E004F12800012102F0C6
:104AF00067FB0546002DEBD1D9F82400616E20F448
:104B0000E0200843C9F824006078400628D5D4F88E
:104B1000B0004FEA3070052807D8DFE800F0030A3C
:104B2000100303039DB1A8461AE00125002DFAD118
:104B30000DE004F10800012102F0B2FA04E004F1F2
:104B40002800012102F03CFB0546002DEBD1D9F8ED
:104B50002C00D4F8B01020F0E0400843C9F82C0035
:104B60006078000620D5206FD8B1B0F1005F12D078
:104B7000B0F1805F25D1D9F8000040F40030C9F8C9
:104B8000000085B9D9F82400216F20F04050084377
:104B9000C9F8240008E004F10800012102F080FABD
:104BA0000546002DEED0A846E078C0072AD0A06CBC
:104BB00003280AD8DFE800F0020D1602D5B1A84696
:104BC00020E00125002DEED1DCE70125002DF6D1F6
:104BD00010E0D9F8000040F40030C9F80000002DC2
:104BE000EDD107E004F10800022102F059FA054670
:104BF000002DE4D1D9F82000A16C20F00300084377
:104C0000C9F82000A078400642D5D9F8D40340F472
:104C10008070C9F8D403FEF707FE0646D9F8D4031E
:104C2000C00505D4FEF700FE801B6528F6D30325DA
:104C30006DBBD9F84410D4F8B400414011F4407F62
:104C400011D0D9F84410D9F8442042F48032C9F880
:104C50004420D9F8442021F4407122F48032C9F86C
:104C60004420C9F84410B0F5807F0FD1FEF7DCFD79
:104C7000064641F2893700BFD9F84400800705D4C1
:104C8000FEF7D2FD801BB842F6D3032585B1A846B6
:104C90002078C00742D0E06F4FEAF000052823D803
:104CA000DFE800F003262C0303037DB3A84635E0BC
:104CB0004FF6CF73D4F8B40059F81C2CC0F2FF03A0
:104CC00000F4407122F47C5203EA1013B1F5407FE6
:104CD00008BF1A436FF31F3049F81C2CD9F8441051
:104CE0000843C9F84400D3E70125002DDED10DE0CB
:104CF00004F10800012102F0D3F904E004F12800D6
:104D0000012102F05DFA0546002DCFD1D9F8280027
:104D1000E16F20F038000843C9F8280020788007A8
:104D200024D5A06F052807D8DFE800F0030A100398
:104D300003039DB1A84619E00125002DFAD10DE02D
:104D400004F10800012102F0ABF904E004F12800AD
:104D5000012102F035FA0546002DEBD1D9F82800E3
:104D6000A16F20F007000843C9F828002078400709
:104D700026D5D4F89400052807D8DFE800F0030A08
:104D8000100303039DB1A8461AE00125002DFAD1B6
:104D90000DE004F10800012102F082F904E004F1C1
:104DA0002800012102F00CFA0546002DEBD1D9F8BC
:104DB0002C00D4F8941020F007000843C9F82C0008
:104DC0002078800628D5D4F890004FEA3070052866
:104DD00007D8DFE800F0030A100303039DB1A846DB
:104DE0001AE00125002DFAD10DE004F108000021A0
:104DF00002F056F904E004F12800022102F0E0F983
:104E00000546002DEBD1D9F82800D4F8901020F0F9
:104E1000E0400843C9F828002078400628D5D4F897
:104E20009C004FEAB020052807D8DFE800F0030A0D
:104E3000100303039DB1A8461AE00125002DFAD105
:104E40000DE004F10800002102F02AF904E004F169
:104E50002800022102F0B4F90546002DEBD1D9F863
:104E60002C00D4F89C1020F4E0500843C9F82C0022
:104E70002078000628D5D4F8A0004FEA7030052825
:104E800007D8DFE800F0030A100303039DB1A8462A
:104E90001AE00125002DFAD10DE004F108000021EF
:104EA00002F0FEF804E004F12800022102F088F983
:104EB0000546002DEBD1D9F82C00D4F8A01020F431
:104EC00060400843C9F82C002078000716D5D4F8B4
:104ED0008400B0F5805F08D104F12800022102F0BF
:104EE0006FF9002818BF4FF00108D9F82800D4F84E
:104EF000841020F440500843C9F828002078C006E8
:104F000016D5D4F89800B0F5807F08D104F12800B8
:104F1000022102F055F9002818BF4FF00108D9F816
:104F20002C00D4F8981020F440700843C9F82C00E5
:104F3000A078000722D5D4F8A400B0F5003F1AD01D
:104F4000B0F5803F11D0C8BB04F10800002102F089
:104F5000A7F805468DB9D9F82C00D4F8A41020F490
:104F600040300843C9F82C0008E004F12800022171
:104F700002F026F90546002DEDD0A846A07840079E
:104F800029D5D4F88800B0F5401F21D0B0F5001F16
:104F900018D0B0F5801F40F0BF80D9F8000040F471
:104FA0000030C9F80000ADB9D9F82800D4F888104D
:104FB00020F440100843C9F828000CE00125002D1A
:104FC000DBD1C8E704F12800012102F0F9F8054619
:104FD000002DE9D0A846A078C00720D0206DB0F5FC
:104FE000803F10D0B8B9D9F8000040F40030C9F8BB
:104FF00000009DB9D9F82000216D20F480300843CD
:10500000C9F820000BE004F10800022102F048F882
:1050100005461DB9EEE70125002DEBD0A846E07846
:10502000800608D504F12800022102F0C9F8002802
:1050300018BF4FF00108D4E900108A037BD5D4F8DB
:1050400080206FF0010303EB3223022B0AD34FEAD7
:1050500032233BB1012B64D1D9F8003043F4003343
:10506000C9F80030002D5FD0CA0267D4CA006FD4DF
:105070008A0279D44A0000F18280B1F1FF3F40F307
:105080008F80090200F19780C00707D004F1080063
:10509000002102F005F8002818BF05462079800796
:1050A00007D504F10800012101F0FAFF002818BF1C
:1050B00005462079400707D504F10800022101F0D8
:1050C000EFFF002818BF05462079000707D504F137
:1050D0002800002102F074F8002818BF0546207946
:1050E000C00607D504F12800012102F069F8002864
:1050F00018BF05462079800607D504F12800022153
:1051000002F05EF8002818BF0125002D18BF012508
:10511000284601B0BDE8F0830125002D7FF45AAF89
:1051200042E70125002D9FD1D9F8283023F44073A0
:105130001A43C9F828204546CA0297D5D9F8242031
:10514000636F22F000421A43C9F82420CA008FD5A9
:1051500059F81C2CD4F8B83022F480421A4349F88C
:105160001C2C8A027FF586AFD9F82420E36E22F04A
:1051700080721A43C9F824204A007FF57EAF59F89F
:105180001C2C22F4004249F81C2CD4F8BC2059F8FD
:105190001C3C1A4349F81C2CB1F1FF3F3FF771AF9B
:1051A000D9F82020636D22F040521A43C9F820201C
:1051B00009027FF569AFD9F82810D4F88C2021F4C2
:1051C00040011143C9F82810C0077FF45FAF65E7BD
:1051D0002DE9F04381B0002800F0F28042F200088F
:1051E0000446C5F200288946D8F8000000F00F00F8
:1051F00088420ED2D8F8000020F00F0040EA0900E3
:10520000C8F80000D8F8000000F00F00484540F052
:10521000D780206844F218474107C5F602070AD52F
:1052200021693A6802F07002914204D93A6822F08A
:1052300070021143396001070AD561697A6802F08A
:105240007002914204D97A6822F0700211437960A9
:10525000C1060AD5A1697A6802F4E062914204D9D4
:105260007A6822F4E0621143796081060AD5E16927
:10527000BA6802F07002914204D9BA6822F0700252
:105280001143B96081070AD5E1683A6802F00F025C
:10529000914204D93A6822F00F0211433960C007E5
:1052A0007ED1206881070AD5E1683A6802F00F02D2
:1052B000914204D23A6822F00F0211433960D8F8C3
:1052C000001001F00F0149450DD9D8F8001021F068
:1052D0000F0141EA0901C8F80010D8F8001001F0E8
:1052E0000F0149456CD141070AD521693A6802F09E
:1052F0007002914204D23A6822F070021143396080
:1053000001070AD561697A6802F07002914204D2FD
:105310007A6822F0700211437960C1060AD5A1694A
:105320007A6802F4E062914204D27A6822F4E06280
:105330001143796080060AD5E069B96801F070010F
:10534000884204D2B96821F070010843B86000F0C7
:10535000B7F839684CF2A852C0F60002C1F3032135
:105360003B6803F00F03515CD25C01F01F01C840A1
:1053700002F01F0140F2080220FA01F1C2F200021D
:10538000116040F2040140F2C412C2F20001C2F204
:10539000000208601068FEF71BFE01B0BDE8F08354
:1053A000386820F47061D4E90102032841EA02015F
:1053B000396009D0022829D157F8181C890307D46D
:1053C000012001B0BDE8F08357F8181C8901F7D51A
:1053D00057F8081C21F00701084347F8080CFEF7AE
:1053E00023FA064641F2883557F8080C616800F048
:1053F0003800B0EBC10F3FF454AFFEF715FA801B35
:10540000A842F1D9032001B0BDE8F083012857F884
:10541000181C02D1C905D3D5DAE74907D0D5D7E79B
:1054200080B500F04DF844F218414CF2A853C5F68F
:105430000201C0F600030A68C2F30322096801F002
:105440000F019A5C595C02F01F0220FA02F201F08F
:105450001F0040F2080122FA00F0C2F200010860C9
:1054600040F20401C2F200010A6080BD00000000A9
:1054700080B5FFF7D5FF44F21C414CF2A852C5F6A7
:105480000201C0F600020968C1F30211515C01F08B
:105490001F01C84080BD000080B5FFF7C1FF44F286
:1054A0001C414CF2A852C5F60201C0F60002096880
:1054B000C1F30221515C01F01F01C84080BD000012
:1054C00044F20041C5F602010869C0F3C200032896
:1054D0000FD002282BD078BB0868800649F2000064
:1054E000C0F2D03058BF70470968C1F3C101C8404D
:1054F00070478A6A886AC0F3051CCB6A486B03F060
:105500000103BCF1000FC0F3CC0003FB00F000EE80
:10551000100AB8EE400A14D002F00302022A12D098
:10552000A2B90868800614D49FED251A1EE043F244
:105530000060C0F26E10704740F60010C0F23D00EF
:105540007047002070479FED1D1A0FE09FED1A1A5B
:105550000CE0086849F20002C0F2D032C0F3C1008A
:1055600022FA00F001EE100AB8EE411A02EE10CA5B
:105570009FED144AB8EE422A086B6FF35F2003EEEA
:10558000100A81EE021AB8EE433A086B00EE043AB4
:10559000B7EE000AC0F34620013033EE000A21EED8
:1055A000000A01EE100AB8EE411A80EE010ABCEEC4
:1055B000C00A10EE100A70470024744A001BB74B53
:1055C0000024744C000000392DE9F041002800F05F
:1055D0005F810446007844F20046C007C5F6020623
:1055E0004AD0306900F03801B06A102905D0182976
:1055F0000AD100F00300022806D13068800337D5B5
:105600006068A8BB012726E065686DB1B5F5803FED
:1056100006D0B5F5A02F306807D140F48020306067
:10562000306840F4803006E0306820F4803030602C
:10563000306820F480203060FEF7F6F8002D054633
:1056400013D000BF3068800312D4FEF7EDF8401B82
:105650006428F7D903270020002800F030820BE0EF
:10566000FEF7E2F8401B6428F4D830688003F7D4D2
:105670000120002800F023822078800768D5306957
:1056800010F03801B06A18D0182908BF5FEA80709E
:1056900013D0E0683168C8B321F0190108433060C5
:1056A000FEF7C2F8054600BF306840071FD4FEF77A
:1056B000BBF8401B0228F7D936E03068400703D515
:1056C000E068002800F076813068E16820F0190079
:1056D00008433060FEF7A8F8054600BF3068400771
:1056E00005D4FEF7A1F8401B0228F7D91CE0FEF70D
:1056F00093F841F2030188421CD820697168402860
:1057000021F47C311DD141F400301CE021F0010076
:105710003060FEF789F805463068400714D5FEF77B
:1057200083F8401B0328F7D303270020002800F04C
:10573000C6810DE07068216920F0FE4040EA0160FA
:1057400001E041EA003070600120002800F0B781DC
:105750002078C00659D5306900F03801B06A0829B0
:1057600005D0182918D100F00300012814D13068A1
:10577000C00502D5E069802842D1FEF74DF841F21C
:10578000030188421BD8206A7168202821F0F84163
:105790002ED141F080402DE0E0690028306816D01D
:1057A00040F080003060FEF73FF805463068C005E5
:1057B000E3D4FEF739F8401B0228F7D916E0F06869
:1057C000216A20F07C5040EA0160F06013E020F094
:1057D00080003060FEF728F8054600BF3068C0053D
:1057E00009D5FEF721F8401B0328F7D3032708E06B
:1057F00041EA806070600120002800F0608104E0D0
:1058000001270020002800F05A812078000743D4A7
:105810002078800653D42078400764D4656A9DB30D
:10582000306900F03800182840F0A480012DB16ADA
:10583000306B2DD001F00302A36A9A4228D1C1F344
:105840000511E26A914223D10146226B6FF35F2179
:10585000013A91421CD1C0F34621626B013A914258
:1058600016D1C0F30641A26B013A914210D1C0F3A8
:105870000660E16B013988420AD1706BC0F3CC003D
:10588000A16C814240F01E810027F8B2BDE8F08192
:105890000127F8B2BDE8F08160690028706F38D048
:1058A00040F001007067FDF7BFFF0546706F80078D
:1058B000AED4FDF7B9FF401B0228F7D925E0A06957
:1058C0000028306845D040F480503060FDF7ACFFD0
:1058D000054600BF306880049DD4FDF7A5FF401B3E
:1058E0000228F7D911E0D6F8000440F48070C6F819
:1058F0000004FDF799FF0546D6F80004C00519D449
:10590000FDF792FF401B6428F6D90327F8B2BDE8E3
:10591000F08120F001007067FDF786FF0546032740
:10592000706F80077FF574AFFDF77EFF401B022884
:10593000F6D9C4E0A568002D3ED0012D05D0052D77
:10594000306F3AD140F004003067306F40F0010012
:1059500039E020F480503060FDF766FF05460327EC
:10596000306880047FF557AFFDF75EFF401B0228CB
:10597000F6D9A4E0306820F080703060FDF754FF65
:10598000022D05464FF003070AD100BF30688001A1
:1059900037D5FDF749FF401B0228F7D98FE000BF3C
:1059A000306880017FF570AFFDF73EFF401B022895
:1059B000F6D984E00127B8E6306F20F001003067A7
:1059C000306F20F004003067FDF72EFF002D0546F4
:1059D00041F288384FF003070FD000BF306F8007C7
:1059E0003FF51CAFFDF720FF401B4045F6D966E0B0
:1059F000FDF71AFF401B404561D8306F8007F7D490
:105A00000CE704F12807B06A40F2F33188438ECFE7
:105A10000843591E40EA02104FF47E42B06202EB86
:105A200047206FF35F214FF4FE0280B2E36B08441E
:105A3000A16B02EB01414FF0FE4201F4FE0102EBCB
:105A40000362084402F0FE4108443063F06A4FF6F6
:105A5000F87120F00100F062706BA26C884340EA9C
:105A6000C2007063F06A216C20F00C000843F06201
:105A7000F06A616C20F002000843F062F06A40F4C2
:105A80008030F062F06A40F40030F062F06A40F476
:105A90008020F062F06A40F00100F062306840F06F
:105AA00080703060FDF7C0FE044603273068800137
:105AB0003FF5EAAEFDF7B8FE001B0228F6D9F8B2B2
:105AC000BDE8F081F06A20F00100F062FDF7ACFE65
:105AD0000546FDF7A9FEA842FBD0706B4FF6F871A2
