:020000040800F2
:10000000F847002079030008C97D00081968000836
:10001000C17D000879090008C9A40008000000009B
:10002000000000000000000000000000A197000890
:10003000D10D000800000000D17D0008A99700083C
:100040009303000893030008930300089303000838
:100050009303000893030008930300089303000828
:100060009303000893030008930300088109000824
:1000700091090008A10900089303000893030008F0
:10008000930300089303000859090008930300082C
:1000900093030008930300089303000893030008E8
:1000A00093030008930300089303000893030008D8
:1000B00093030008930300089303000893030008C8
:1000C00093030008930300089303000819800008B5
:1000D00093030008930300089303000893030008A8
:1000E000D90D0008930300080000000093030008E6
:1000F0009303000893030008930300089303000888
:100100009303000893030008930300089303000877
:100110009303000893030008930300089303000867
:100120009303000893030008930300089303000857
:100130009303000893030008930300089303000847
:1001400000000000000000000000000000000000AF
:100150009303000893030008930300089303000827
:100160009303000893030008930300089303000817
:1001700093030008930300089303000800000000A5
:1001800093030008930300089303000893030008F7
:1001900093030008930300089303000893030008E7
:1001A00093030008930300089303000893030008D7
:1001B00093030008930300089303000893030008C7
:1001C00093030008930300089303000893030008B7
:1001D00093030008930300089303000893030008A7
:1001E0009303000893030008930300089303000897
:1001F0009303000893030008930300089303000887
:100200009303000893030008930300089303000876
:100210009303000893030008930300089303000866
:1002200093030008930300089303000800000000F4
:10023000930300089303000800000000D1060008A3
:10024000930300086909000893030008930300085A
:100250009303000893030008930300089303000826
:100260009303000893030008930300089303000816
:1002700093030008930300089303000800000000A4
:100280009303000893030008930300080000000094
:10029000000000009303000800F002F800F05CF892
:1002A0000AA090E8000C82448344AAF10107DA45D1
:1002B00001D100F051F8AFF2090EBAE80F0013F0C7
:1002C000010F18BFFB1A43F0010318475C39070000
:1002D0007C3907000A444FF0000C10F8013B13F082
:1002E000070408BF10F8014B1D1108BF10F8015B8F
:1002F000641E05D010F8016B641E01F8016BF9D182
:1003000013F0080F1EBF10F8014BAD1C0C1B09D1D8
:100310006D1E58BF01F801CBFAD505E014F8016B4A
:1003200001F8016B6D1EF9D59142D6D370470000DC
:100330000023002400250026103A28BF78C1FBD8EE
:10034000520728BF30C148BF0B6070471FB50EF081
:1003500080FB1FBD10B510BD00F084F91146FFF7FA
:10036000F5FF0BF0E9FB00F0A2F903B4FFF7F2FF91
:1003700003BC00F0A5F90000094880470948004780
:10038000FEE7FEE7FEE7FEE7FEE7FEE7FEE7FEE745
:10039000FEE7FEE704480549054A064B70470000A2
:1003A000F198000899020008F8070020F84700209B
:1003B000F8270020F827002053EA020C00F069809B
:1003C0002DE9F04B4FF00006002B1FBFB3FA83F569
:1003D00003FA05F424FA05F65E4012BF1643B2FA9A
:1003E00082F502FA05F4C5F120051EBF22FA05FCCC
:1003F00044EA0C04203556EA044C4FEA144418BF72
:10040000641C4FF000084FF00009904271EB030CA0
:1004100039D3002919BFB1FA81F701FA07F6B0FA0A
:1004200080F700FA07F6C7F120071EBF20FA07FC85
:1004300046EA0C062037B6FBF4FCA7EB0507103F95
:1004400007F01F0BCBF120062CFA06F60CFA0BFB7B
:1004500044BFB3460026202FA4BF5E464FF0000BDA
:100460005BEA060C08BF4FF0010B19EB0B0948EBD8
:100470000608ABFB027C06FB02CC0BFB03CCC01BCB
:1004800071EB0C01C1E70B46024641464846BDE808
:10049000F08B13B5084318BF4FF0FF300146AFF3A0
:1004A0000080BDE81C407047032A40F2308010F005
:1004B000030C00F0158011F8013BBCF1020F6244FF
:1004C00098BF11F801CB00F8013B38BF11F8013B90
:1004D000A2F1040298BF00F801CB38BF00F8013B3D
:1004E00011F0030300F02580083AC0F0088051F8AD
:1004F000043B083A51F804CBA0E80810F5E7121DB8
:100500005CBF51F8043B40F8043BAFF30080D207D6
:1005100024BF11F8013B11F801CB48BF11F8012BA2
:1005200024BF00F8013B00F801CB48BF00F8012BC5
:10053000704710B5203AC0F00B80B1E81850A0E821
:100540001850B1E81850A0E81850203ABFF4F5AFA1
:100550005FEA027C24BFB1E81850A0E8185044BFFD
:1005600018C918C0BDE810405FEA827C24BF51F86A
:10057000043B40F8043B08BF7047D20728BF31F85E
:10058000023B48BF11F8012B28BF20F8023B48BFAF
:1005900000F8012B704702F0FF0343EA032242EA0E
:1005A000024200F002B84FF000020429C0F01280AD
:1005B00010F0030C00F01B80CCF1040CBCF1020F16
:1005C00018BF00F8012BA8BF20F8022BA1EB0C01EB
:1005D00000F00DB85FEAC17C24BF00F8012B00F8E1
:1005E000012B48BF00F8012B70474FF0000200B507
:1005F000134694469646203922BFA0E80C50A0E846
:100600000C50B1F12001BFF4F7AF090728BFA0E8F3
:100610000C5048BF0CC05DF804EB890028BF40F8BF
:10062000042B08BF704748BF20F8022B11F0804F01
:1006300018BF00F8012B704770477047704710B51E
:1006400000F008F8006810BD10B5044600F002F88C
:10065000046010BD004870479802002000487047B1
:10066000980200207546FFF7F9FFAE46050069467F
:10067000534620F00700854618B020B5FFF78AFEE4
:10068000BDE820404FF000064FF000074FF0000893
:100690004FF0000BAC46ACE8C009ACE8C009ACE8D0
:1006A000C009ACE8C00921F007018D46704710B5BC
:1006B0000446AFF300802046BDE81040FFF755BE6A
:1006C00001491820ABBEFEE726000200704700007B
:1006D00040F23C40C2F2000001F042B800000000CD
:1006E000B0B50446006842F2001140F48070C4F2D4
:1006F0000201884218D142F20830C4F202000068B8
:1007000010F4403F18D005F07BF861680546B1F55C
:10071000803F05D0B1F5403F2AD0B1F5003F28D148
:10072000080CB5FBF0F524E046F20830C5F60200EF
:10073000006810F4403FE6D14FF40020002103F0A0
:100740003BFF61680546A1F580224FEAB2420A2AC2
:100750000FD8DFE802F00606060606064C4E505299
:1007600054006FF0010000EA5140B5FBF0F500E0E5
:10077000AD0802F055FE41F2030188420DD8206811
:1007800042F60151C0F231118D4281682CBF41F413
:10079000807121F480718160B0BD4BF62140C0F2C0
:1007A000BE00854205D82068816821F440718160CF
:1007B000B0BD47F64100C0F27D10854206D82068E2
:1007C0000122816862F309218160B0BD20684FF287
:1007D0008101C0F2FA218D42816804D8022262F3BD
:1007E00009218160B0BD41F440718160B0BD2D0927
:1007F000BFE76D09BDE7AD09BBE7ED09B9E72D0A14
:10080000B7E70000000000000146806B426D12F067
:10081000500F426D05D0D2060FD4C06CC26C084692
:10082000104742F40071416501680A681207CA68FE
:1008300005D4910716D000F07FBF00F08DBF12F4F1
:10084000406FF8D1C9688904F5D4416D21F48071F5
:100850004165416DC904EED4416D41F0010141652E
:1008600000F06ABF416D21F480714165416DC9049A
:10087000E1D4416D41F00101416500F05DBF000030
:10088000806B416D41F040014165816D41F0040193
:10089000816500F061BF0000806B00F059BF00006F
:1008A000F0B581B0044600688168C90751D14FF6A0
:1008B000C0778168C7F6FF7707F17F0211420AD03F
:1008C000606D40F010006065A06D40F00100A06513
:1008D000012001B0F0BD8168394041F00101816023
:1008E00002F0A6FD42F2000246F20036C4F2020215
:1008F000216802F5807302F54075C5F6020699423B
:1009000008BF2E4691420A4608BF2E469942054628
:1009100004BF42F20002C4F20202B0688A4218BF69
:1009200010F01F0015D100BF0868C00711D18868FA
:10093000C00704D18868384040F00100886002F0A8
:1009400077FD401B21680328EED30868C007EBD170
:10095000B6E7002001B0F0BD40F20030C2F2000066
:1009600000F0FEBE0000000040F21850C2F200008D
:1009700001F01ABB00000000FEE7000000000000CC
:1009800040F2A040C2F2000001F00EBB00000000E7
:1009900040F29050C2F2000001F006BB00000000DF
:1009A00040F20860C2F2000001F0FEBA0000000050
:1009B00040F20F42D0F800C0C4F20202944510DCAD
:1009C0006F22C4F20202944520DC3F22C4F20202EC
:1009D000944536DC1022C4F20202944554D02822F9
:1009E0004EE040F26F42C4F2020294451ADC40F23B
:1009F0003F42C4F2020294452ADC40F21042C4F2A3
:100A00000202944540D040F2284239E09F22C4F2CD
:100A10000202944525DC7022C4F20202944533D0D0
:100A200088222DE040F29F42C4F2020294451FDC6E
:100A300040F27042C4F20202944525D040F288424E
:100A40001EE04022C4F2020294451DD0582217E055
:100A500040F24042C4F20202944515D040F258429E
:100A60000EE0A022C4F2020294450DD0B82207E0A5
:100A700040F2B842C4F20202944505D040F2A042CE
:100A8000C4F20202944518D16FF00F024AF6AB236C
:100A900052FA8CF2CAF6AA23A2FB033109A35F2AF9
:100AA000C1F302115B5C40F2FF312CEA0101C36526
:100AB00088BF04318165084670472CF0FF018165CD
:100AC00008467047000610160006101600000000C9
:100AD00070B540F26F44D0F800C0C4F20204D0F800
:100AE00058E0A44519DC9F25C4F20205AC4531DC71
:100AF0005725C4F20205AC4556DC1025C4F20205A8
:100B0000AC4500F092802825C4F20205AC4500F007
:100B10008C804025C4F2020584E045F22F45C5F6DD
:100B20000205AC452BDC40F2B745C4F20205AC45EA
:100B300048DC40F27045C4F20205AC4575D040F285
:100B40008845C4F20205AC456FD040F2A045C4F21E
:100B5000020567E040F22745C4F20205AC4540DCDF
:100B6000A025C4F20205AC455FD0B825C4F2020549
:100B7000AC455AD040F21045C4F2020552E045F2AD
:100B80006B45C5F60205AC453CDC45F23045C5F683
:100B90000205AC4549D045F24445C5F60205AC45D1
:100BA00043D045F258453BE05825C4F20205AC4518
:100BB0003BD07025C4F20205AC4536D08825C4F27E
:100BC00002052FE040F2B845C4F20205AC452CD036
:100BD00045F20845C5F60205AC4526D045F21C4550
:100BE0001EE040F22845C4F20205AC451DD040F29B
:100BF0004045C4F20205AC4517D040F25845C4F256
:100C000002050FE045F26C45C5F60205AC450CD077
:100C100045F29445C5F60205AC4506D045F280453F
:100C2000C5F60205AC4540F0D180456EC66E002E7B
:100C3000866E6E601CBFD0E91C566E60A44515DC44
:100C40009F24C4F20204A4452BDC5724C4F20204FE
:100C5000A4454EDC1024C4F20204A44576D0282416
:100C6000C4F20204A44571D040246BE045F22F4445
:100C7000C5F60204A44527DC40F2B744C4F20204DE
:100C8000A44542DC40F27044C4F20204A4455DD0A5
:100C900040F28844C4F20204A44557D040F2A04474
:100CA00050E040F22744C4F20204A4453CDCA024F6
:100CB000C4F20204A44549D0B824C4F20204A445F5
:100CC00044D040F210443DE045F26B44C5F60204C6
:100CD000A44553DC45F23044C5F60204A4455FD078
:100CE00045F24444C5F60204A44559D045F258449F
:100CF00052E05824C4F20204A44527D07024C4F260
:100D00000204A44522D088241CE040F2B844C4F276
:100D10000204A4451AD045F20844C5F60204A445CD
:100D20003ED045F21C4437E040F22844C4F20204AD
:100D3000A4450BD040F24044C4F20204A44505D0BF
:100D400040F25844C4F20204A4453FD18468C06D07
:100D500000F01F003F2505FA00F0CEF80800DCF88F
:100D60000000402C20F48020CCF80000CCF80430A7
:100D700023D0CCF80810CCF80C2070BD45F26C44A0
:100D8000C5F60204A4450BD045F28044C5F6020422
:100D9000A44505D045F29444C5F60204A44515D1F6
:100DA000C46D806804F01F040125402805FA04F48E
:100DB000CEF80440CCF8043004D1CCF80820CCF8AC
:100DC0000C1070BDCCF80810CCF80C2070BD0000E1
:100DD000704700000000000080B54FF4005002F0A2
:100DE0000FFA4FF4804002F00BFA4FF40040BDE8D8
:100DF000804002F005BA0000EFF3108072B600BF29
:100E0000FEE70000000000002DE9F04F8DB040F239
:100E10008C058146C2F2000568680DF0A9FD9FEDC2
:100E20009C0B02460B4651EC100B0DF02FF90DF008
:100E300085FA824603A82821FFF7D7FB40F2E43465
:100E40002988C2F2000404F1300738460AF008FC91
:100E5000E2680023384649460AF0DFFBD4E9030183
:100E60002A680AF007F8606945F27861C1F2342116
:100E7000D4F810900160882141604FF6FE712C6813
:100E8000C7F6FF7101EA440282600C304946FFF761
:100E90000BFBCAEB540CD44516D96008A0EB4A01F1
:100EA0006FEA4A0211F0030600EB020311D009EBCE
:100EB0008A01012E91ED001A0AF1010111D1B7EE5C
:100EC000002A032B28D247E09FEDE80A0DB0BDE8C9
:100ED000F08F9FEDE62A5146B0EE421A032B1BD24B
:100EE0003AE009EB8101022E91ED000A0AF10201BC
:100EF00030EE011A04D1B0EE002A032B0CD22BE005
:100F000009EB8101B0EE082A91ED000A0AF1030114
:100F100030EE011A032B1FD3B1EE000A01EB0A02D7
:100F200009EB8107111AA7F1100200BF92ED043AF4
:100F300032EE002A33EE011A92ED053A043133EE17
:100F4000011A92ED063A33EE011A92ED073A02F1D8
:100F5000100233EE011AE9D1D4459FEDC40A40F2E4
:100F60008181B2EE043ACAF1000151454FEA4A01CB
:100F7000029121EE031A81EE021AB0EE002A81FEE0
:100F8000021A1EDD032B71D24FF0000B5246002EC9
:100F900000F0E98009EB820191ED002AB4EE412ACC
:100FA000F1EE10FA40F3B880BAF1000F00F3B4800C
:100FB00003AA0020C7F6C07042F82B000BF1010B0A
:100FC000ABE06FEA0A000190A9F1040000219FED57
:100FD000A72A4FF0000B554607E000BF013501314D
:100FE000654500F1040000F0BE8009EB850292ED3A
:100FF000003AB4EE413AF1EE10FAEFDDB0EE424ABB
:10100000B0EE425A002703460C46019A07EE104AFA
:1010100093ED016AB2F1FF384FF0000EB4EE463A9C
:1010200002F10102B8EEC77A03F1040318BF4FF0D2
:101030000108F1EE10FAA6EE074A04F10104C8BF58
:101040004FF0010E36EE055A524508EA0E063744B7
:10105000DCDB029A9742C1DB03AA84EE053A02EB7D
:101060008B020BF1010B82ED003AB7E709EB8A0125
:10107000029A324401F108030021171A4FF0000BC5
:10108000C7F6C071524603A80DE000BF00BF00BF05
:101090000000000000004440043702F1040203F1A4
:1010A00010033FF474AF13ED022AB4EE412AF1EEBF
:1010B00010FA06DDBAF1000FDCBF40F82B100BF17F
:1010C000010B13ED012AB4EE412AF1EE10FA06DD10
:1010D000BAF1000FDCBF40F82B100BF1010B93EDC0
:1010E000002AB4EE412AF1EE10FA06DDBAF1000F43
:1010F000DCBF40F82B100BF1010B93ED012AB4EE8D
:10110000412AF1EE10FAC7DDBAF1000FDCBF40F85A
:101110002B100BF1010BBFE703AA012E23D091ED99
:10112000012AB4EE412AF1EE10FA09DDBAF1000FFE
:1011300006DC0020C7F6C07042F82B000BF1010B53
:10114000022E10D091ED022AB4EE412AF1EE10FAEF
:1011500009DDBAF1000F06DC0020C7F6C07042F8C6
:101160002B000BF1010BBBF1000F7BD0BBF1010F8A
:1011700006DB9DED030A03AE05D1B0EE401A6BE02D
:101180009FED3A1A68E0ABF10200ABF101010328D0
:1011900001F0030103D20122B0EE401A37E0B7EEAE
:1011A000001AA6F11003ABEB0107012281EE002A21
:1011B000B0EE401A93ED053A93ED065A23EE024A3B
:1011C000043225EE026A9742B8FE444AB8FE466AE7
:1011D00083EE043A93ED074A24EE027A33EE011AC5
:1011E00085EE063A93ED085AB8FE476A03F11003FC
:1011F00025EE027A33EE011A84EE063AB8FE474A2B
:1012000033EE011A85EE043A33EE011AD2D119B346
:1012100006EB8200012990ED002A82EE003AB8FE2A
:10122000433A82EE032A32EE011A15D090ED012ADC
:10123000022982EE003AB8FE433A82EE032A32EEE9
:10124000011A09D090ED022A82EE000AB8FE400A87
:1012500082EE000A30EE011A00EE10BAB8EEC00AB3
:1012600081EE000A0DB0BDE8F08F00BF0000000065
:101270007047000000000000704700000000000000
:1012800070470000000000007047000000000000F0
:101290007047000000000000B0B582B090F8502008
:1012A000012A03D10221084602B0B0BD012280F814
:1012B000502042F2083200230193C4F2020200934C
:1012C000A2F542740368A34227D14FF6006C4FF693
:1012D0000055CFF6FF7CCFF6FF7552F80C405359FE
:1012E00023435B0719D4D1F800E01368BEF1000F67
:1012F00023F440441CD04B6823431360535952F8E5
:101300000C502B43DB0721D1136840F61F75896809
:10131000AB4341EA0E01194315E0416D41F0200154
:1013200041650121002280F85020084602B0B0BD7E
:101330001460515952F80C301943C90708D111688B
:1013400040F61F73994311600021EBE70021E9E7A4
:101350000021E7E7000000002DE9F04181B0002204
:10136000009290F85020012A04D10221084601B0D1
:10137000BDE8F0810768012380F85030BC6864073D
:1013800000F17B810C684FF01F0C250394FAA4F246
:10139000B2FA82F208BFA20E4D6802F01F0203FAF1
:1013A00002F2FB691A43FA61C5F3012205F01F033B
:1013B0000CFA03F607EB8202156BC4F3846425EA8A
:1013C000060604FA03F333431363BA68BB68DB0809
:1013D00043EA9202D2077CD10A6807248B68C2F3E1
:1013E000406607EB86067569C2F304529440A54334
:1013F00003FA02F22A43726141F20002C5F600428A
:10140000126802F07042B2F1805F09D1D1F814C0C5
:10141000FA680E2303EA52040B69042B0DD13CE059
:10142000FA68D1F814C0FB68D2064FEA53032FD4F0
:1014300003F00E040B69042B2FD007F160020D6836
:101440000CFA04F605F0F84552F823402E4304F058
:101450000044264342F823600B694E7E52F8235025
:10146000012E25F0004508BF05F1004542F8235044
:101470000A7E0B693E69013A03F01F03B2FA82F259
:1014800026F4F0465209D2029A4032433A6120E0F3
:1014900003F008040B69042BCFD13A6E0B6802F0FD
:1014A000F842B2EB836F4FEA836344D07A6E02F066
:1014B000F8429A4248D0BA6E02F0F8429A424CD0B2
:1014C000FA6E02F0F8429A4203D1FA6E22F000421C
:1014D000FA66BA68D2072CD14FF6FF72CE68C0F216
:1014E0000F02D1F8008006F0180308EA0204DA407F
:1014F0000023D7F8C050C4F2FF73A54322409E4298
:1015000042EA0502C7F8C0205ED198FAA8F2002C82
:10151000B2FA82FC4FEA9863624608BF4FEA9862CB
:10152000013202F01E02092A21D824B30CF1010273
:1015300022E00021A6E03A6E22F000423A667A6E7E
:1015400002F0F8429A42B6D17A6E22F000427A66F0
:10155000BA6E02F0F8429A42B2D1BA6E22F000425C
:10156000BA66FA6E02F0F8429A42AED0B1E764B1C0
:101570000CF101020AE05A1C02F01F0301229A40FA
:1015800003EB430642EA06530EE05A1C02F01F0327
:1015900001229A4003EB43060023CFF6206303EBBE
:1015A00006531A4342F000738A680724C3F3406667
:1015B00007EB86067569C3F304539C40A5439A4024
:1015C0002A437261D1F80080B8F1FF3F01DD0021AC
:1015D00058E042F2000146F2083CC4F20201C5F6AE
:1015E000020C01F5807201F5407397421A4618BF4C
:1015F000ACF108028F4242F2001608BF1A4647F4C7
:101600008073C4F20206B342D2F808E02DD18A6892
:10161000D1F808111143C9072FD100210EF0E07451
:10162000CCF68431884508BF1EF4000131D000217A
:10163000CCF25271884508BF1EF080712FD0ACF5F6
:1016400042718F424FF000011CD10022CCF6B872DB
:10165000904508BF1EF4800214D1DCF8001021F080
:10166000E071214341F480015AE04FF60051CFF67A
:10167000FF715CF80110C907CFD0416D41F0200126
:1016800041650121002280F85020084601B0BDE8E4
:10169000F081ACF542718F4207D00021F2E7ACF542
:1016A00042718F4235D00021ECE7DCF8001042F6A1
:1016B000635221F0E071C0F23E52214341F4000137
:1016C000CCF8001040F20801C2F200010968890953
:1016D000A1FB02129109022202EB41010091009943
:1016E00011B30099013900910099F9B100990139BC
:1016F00000910099E1B10099013900910099C9B1B7
:10170000009901390091009900294FF00001E8D1BA
:10171000B8E7DCF8001021F0E071214341F080715E
:10172000CCF800100021ADE70021ABE70021A9E7CC
:101730000021A7E70021A5E740F2FC210323C2F224
:1017400000010A1D904208BF01230B707047000082
:10175000704700000000000070470000000000001B
:101760002DE9F04746F2003942F2000804460068CD
:10177000C5F60209C4F2020808F5807A08F5407738
:101780004A460168504508BF3A464045436808BF8D
:101790003A4603EA0105A90796680CD5606DC006B4
:1017A00003D4606D40F4006060652046FFF760FD83
:1017B00020680221016015F00C0F06F01F0641D0D1
:1017C000616DC90603D4616D41F400716165C16842
:1017D00011F4406F30D10146504508BF4146814267
:1017E00018BF0946002E08BF0146052E08BF014656
:1017F000092E08BF0146C96889041DD4016809077C
:101800001AD5816849070FD4416821F00C01416065
:10181000606D20F480706065606DC0040CD4606DF4
:1018200040F00100606507E0606D40F01000606509
:10183000A06D40F00100A0652046FFF77DFF206805
:101840000C21016015F0600F21D0616DC90603D431
:10185000616D41F4005161650146504508BF414644
:1018600046F00102814218BF0946002E08BF01461A
:10187000072A08BF0146C26C12F4C07FC268C9685B
:1018800065D02046FFF7F8FC20686021016029063A
:1018900006D4E90510D4A9051BD4E90643D525E0F3
:1018A000606D40F480306065204600F0BDF920682E
:1018B00080210160E905EED5606D40F4003060657F
:1018C0002046FFF7E1FC20684FF480710160A90514
:1018D000E3D5606D40F4802060652046FFF7D8FCBA
:1018E00020684FF400710160E9061CD5216B61B1DD
:1018F000002E50D0504508BFB946404508BFB946F4
:10190000D9F8081011F4404F0BD0606D40F480609E
:101910006065A06D40F00200A0652046FFF71CFF47
:10192000206810210160690558BFBDE8F087616D2E
:1019300041F480416165A16D41F00801A1654FF45A
:10194000806101602046BDE8F047FFF799BC8B013C
:1019500005D502F4406201F40053D21891D18902F6
:1019600001683FF58EAF11F040013FF48AAF816806
:10197000090714D4416821F060014160606D20F4D2
:1019800080506065606DC0053FF57BAF606D40F0D5
:101990000100606575E7C1688907B6D1C1E7606D70
:1019A00040F010006065A06D40F00100A06568E7A0
:1019B000B0B582B0044600284FF00000019009D075
:1019C000606D58B120688168890012D48168C900AF
:1019D00019D54DE00125284602B0B0BD204600F0E3
:1019E00027F90020A06584F85000206881688900EC
:1019F000ECD54FF6C0728168C5F6FF721140816068
:101A00008168C90034D44FF6C0718268C5F6FF7191
:101A100001F18051114042F6635201F18051816021
:101A200040F20801C0F23E52C2F200010968890981
:101A3000A1FB0212012101EB921101910199B9B1AF
:101A4000019901390191019900291FBF01990139BB
:101A50000191019918BF00290AD00199013901911A
:101A6000019929B101990139019101990029E7D121
:101A70008168C90009D4616D012541F010016165DB
:101A8000A16D41F00101A16500E000258168C1F36D
:101A90008001626D02F010028918616D06D041F07C
:101AA000100001256065284602B0B0BD21F48171A7
:101AB000023161658168C90728D142F2001240F401
:101AC0008071C4F20202914242F20001C4F20201AA
:101AD00040F09E808A68D1F808311A43D20715D1A8
:101AE00001F5807201F5407346F2080C9042C5F68C
:101AF000020C1A4618BF0CF53E72884208BF1A46FF
:101B00006068916821F47C110843906001F088FCC2
:101B1000617D41F20402A36890424FEA4131226B99
:101B20000AD3102B08D1207F114341EA004141F034
:101B30001C01012807D00DE0207F1143194341EA21
:101B40000041012806D1206A0022CFF6FE7202EB86
:101B500040400143606A28B100F47870A26A0843EB
:101B600040EA020120684CF20303CFF6F073C2682A
:101B70001A401143C16081688268D20842EA91012B
:101B8000C90733D1217D44F2030CE26AC36842EAFB
:101B9000813123EA0C021143C16094F83810012905
:101BA000016916D14FF61E02CFF6004201EA020C7F
:101BB0000021D4E90F23CFF6FF7101EB02414CEA7B
:101BC0000302636C1143A26C1943114341F00101FC
:101BD00001E021F0010101610169626B21F07041B6
:101BE000114301612046FEF77BFD2068E168026B2E
:101BF000012922F00F0102D1A269013A11430163C8
:101C00000121606D61F301006065284602B0B0BD3E
:101C100046F20802C5F602021268D2073FF460AF2E
:101C200074E70000000000007047000000000000A2
:101C30002DE9F041B8B0804602A8C0210024CDE9CA
:101C40003644CDE934443394FEF7CFFC46F200012C
:101C5000D8F80000C5F60201884200F0968042F2F2
:101C60000001C4F20201884240F008814FF40020D4
:101C700002904FF400302B9002A80027039702F047
:101C8000FBFE08B1FFF7B8F844F2E04041F200452E
:101C9000C5F60200C5F6020533AE032450F8081C51
:101CA00041F0200140F8081C50F8081C01F0200108
:101CB00001910199016841F004010160016801F09E
:101CC000040101910199016841F00101016001687D
:101CD00001F0010101910199016841F002010160E7
:101CE000016801F0020101910199016841F02001B0
:101CF00001600068314600F0200001900198A5F5D0
:101D00004060CDE93344359701F086FA33A90F20BE
:101D100091C1A5F5A050314601F07EFA33A9022009
:101D200091C1A5F58050314601F076FA33A94FF400
:101D3000C05091C12846314601F06EFA40F2A045EC
:101D40001020C2F20005C4F2020028600920C5E993
:101D50000107EF604FF4806028614FF40060686114
:101D60004FF40050A8614FF48070C5E9070728467A
:101D70006F6200F015FD002871D0FFF73DF840F2CA
:101D8000A0451226C2F200056CE04FF4002002903C
:101D90004FF400302B9002A8039402F06DFE08B1BE
:101DA000FFF72AF844F2E04633A9C5F602060027F9
:101DB000306840F080703060306800F080700190D2
:101DC0000198306840F020003060306800F020005A
:101DD00001900198306840F004003060306800F0F5
:101DE0000400019001984FF4FF6033900320349079
:101DF00041F20040C5F60200359701F00DFA4FF0B0
:101E000080604FF0806104F0BBFB4FF000604FF04A
:101E1000006104F0B5FB40F2185506F62870C2F2D6
:101E2000000528601120C5E90107EF604FF48060CC
:101E300028614FF4006068614FF40050A8614FF4CE
:101E40008070C5E90707284600F0AAFC48B1FEF7F4
:101E5000D3FF40F218557F26C2F2000502E0122699
:101E600000E07F26002100223046C8F84C50C5F81B
:101E7000388002F0C5F8304602F0B2F838B0BDE85C
:101E8000F0810000000000002DE9F04381B042F233
:101E9000000746F20036C4F202070446036807F55D
:101EA000807507F54070C5F60206AB4208BF0646CE
:101EB000BB4208BF0646B0689B685B0704D48946EE
:101EC00094F85010012903D1022001B0BDE8F0833D
:101ED00000F01F060120092E84F850005CD8B040A5
:101EE00040F22121084257D020469046FEF7D8FC08
:101EF00028B1002184F8501001B0BDE8F0832168BA
:101F0000606D40F60172A94220EA020018BF0F4638
:101F1000002E00F58070606518BF8F4203D1606DA0
:101F200020F480106065606D40F60903C0044FF036
:101F3000000044BFA06D20F0060040F69907C0F6EF
:101F40000003A065C0F60007E06C0022C0E90F376F
:101F500040F68103E76AC0F60003C3641C230B60EC
:101F600084F8502043464A6842F010024A60CA682A
:101F700022F003023A43CA6040314A4600F030FF83
:101F800021684FF6C073C7F6FF738A681A4004329F
:101F90008A6001B0BDE8F083002084F85000012081
:101FA00001B0BDE8F08300002DE9F04782B00021C8
:101FB000019140F208010446C2F2000148F2B51254
:101FC000C1F64E32A56D096840F26F490068C4F24F
:101FD0000209A1FB021848452E68296815DC9F21DB
:101FE000C4F2020188422BDC5721C4F2020188426C
:101FF0004EDC1021C4F20201884276D02821C4F2BE
:102000000201884271D040216BE045F22F42C5F6B3
:102010000202904227DC40F2B742C4F20202904230
:1020200042DC40F27041C4F2020188425DD040F2CD
:102030008841C4F20201884257D040F2A04150E0EA
:1020400040F22741C4F2020188423CDCA021C4F2E4
:102050000201884249D0B821C4F20201884244D02A
:1020600040F210413DE045F26B42C5F6020290425B
:1020700071DC45F23042C5F6020290427DD045F255
:102080004442C5F60202904277D045F2584270E0D1
:102090005821C4F20201884227D07021C4F2020103
:1020A000884222D088211CE040F2B842C4F20202E9
:1020B00090421AD045F20842C5F6020290425CD026
:1020C00045F21C4255E040F22841C4F20201884228
:1020D0000BD040F24041C4F20201884205D040F2E8
:1020E0005841C4F2020188425FD1E16D082201F03B
:1020F0001F0140F20F4A8A40C4F2020A324200F045
:10210000E28050454FF0040312DC6F27C4F202074F
:10211000B84269DC3F27C4F20207B84200F3A3804B
:102120001027C4F20207B84200F0C1802827B9E0A6
:10213000484565DC40F23F47C4F20207B84200F36D
:10214000998040F21047C4F20207B84200F0AF8015
:1021500040F22847A6E045F26C42C5F602029042E2
:102160000BD045F28042C5F60202904205D045F2FE
:102170009442C5F60202904217D10268E36D5707F8
:1021800003F01F0314D504279F4017EA01060FD060
:1021900011046F6043D4910603D4016821F0040157
:1021A0000160216C002940F0DC8202B0BDE8F087BC
:1021B00097073CD502279F4017EA010637D0110444
:1021C0006F6000F1D382910609D4016821F00A0101
:1021D0000160012084F83500002084F83400E16BB0
:1021E000002940F0BE82E0E79F27C4F20207B84210
:1021F00049DC7027C4F20207B84258D0882751E062
:1022000040F29F47C4F20207B84243DC40F27047F5
:10221000C4F20207B8424AD040F2884742E0D003F5
:1022200000F1AA82A16C002940F09B82BDE7120751
:10223000BBD508229A401140B7D0016821F00E01A9
:102240000160012000FA03F16960606584F83500DF
:102250000020E16C84F834000029A6D0204688478D
:1022600002B0BDE8F0874027C4F20207B8421ED092
:10227000582717E040F24047C4F20207B84216D090
:1022800040F258470EE0A027C4F20207B8420ED031
:10229000B82707E040F2A047C4F20207B84206D0D0
:1022A00040F2B847C4F20207B84218BF08230768D3
:1022B0001F4208D0036823F004030360AA60626D24
:1022C00042F00102626501228A4032426AD05045E2
:1022D00010DC6F23C4F2020398421CDC3F23C4F2DB
:1022E0000203984232DC1023C4F20203984251D018
:1022F00028234AE048451ADC40F23F43C4F2020377
:1023000098422ADC40F21043C4F20203984241D0C2
:1023100040F2284339E09F23C4F20203984225DCAF
:102320007023C4F20203984234D088232DE040F297
:102330009F43C4F2020398421FDC40F27043C4F290
:102340000203984226D040F288431EE04023C4F2A4
:10235000020398421ED0582317E040F24043C4F2D3
:102360000203984216D040F258430EE0A023C4F274
:10237000020398420ED0B82307E040F2A043C4F213
:102380000203984206D040F2B843C4F202039842D6
:1023900040F0FA8143691B0604D5AA60626D42F0E1
:1023A0000202626504228A4032426AD0504510DC43
:1023B0006F23C4F2020398421CDC3F23C4F20203E1
:1023C000984232DC1023C4F20203984251D02823F1
:1023D0004AE048451ADC40F23F43C4F20203984207
:1023E0002ADC40F21043C4F20203984241D040F28A
:1023F000284339E09F23C4F20203984225DC70236E
:10240000C4F20203984234D088232DE040F29F4367
:10241000C4F2020398421FDC40F27043C4F202038C
:10242000984226D040F288431EE04023C4F20203C3
:1024300098421ED0582317E040F24043C4F20203F2
:10244000984216D040F258430EE0A023C4F2020393
:1024500098420ED0B82307E040F2A043C4F2020332
:10246000984206D040F2B843C4F20203984240F0CA
:10247000928103689B0704D5AA60626D42F0040252
:102480006265102202FA01F131427BD050454FF0D3
:10249000080210DC6F23C4F2020398421CDC3F23C5
:1024A000C4F20203984232DC1023C4F202039842C1
:1024B00051D028234AE048451ADC40F23F43C4F299
:1024C000020398422ADC40F21043C4F2020398420D
:1024D00041D040F2284339E09F23C4F202039842DE
:1024E00025DC7023C4F20203984234D088232DE007
:1024F00040F29F43C4F2020398421FDC40F2704353
:10250000C4F20203984226D040F288431EE04023E2
:10251000C4F2020398421ED0582317E040F2404311
:10252000C4F20203984216D040F258430EE0A023B2
:10253000C4F2020398420ED0B82307E040F2A04351
:10254000C4F20203984206D040F2B843C4F2020338
:10255000984218BF04220368134213D0A96001688F
:102560004903016808D4C90508D4016821F00801AD
:102570000160216C21B905E008034DD4216C09B13B
:1025800020468847E06D00F01F01202000FA01F28C
:10259000324200F0A68020681023504510DC6F27DF
:1025A000C4F20207B8421CDC3F27C4F20207B8425B
:1025B00036DC1027C4F20207B84255D028274EE077
:1025C00048451ADC40F23F47C4F20207B8422EDC0D
:1025D00040F21047C4F20207B84245D040F2284703
:1025E0003DE09F27C4F20207B84229DC7027C4F2FD
:1025F0000207B84238D0882731E040F29F47C4F242
:102600000207B84223DC40F27047C4F20207B84226
:102610002AD040F2884722E0A16C0029B0D1B1E76E
:102620004027C4F20207B8421ED0582717E040F2F4
:102630004047C4F20207B84216D040F258470EE0B5
:10264000A027C4F20207B8420ED0B82707E040F234
:10265000A047C4F20207B84206D040F2B847C4F21D
:102660000207B84218BF022307681F4239D0AA6088
:1026700094F83520042A02681BD122F01602026069
:10268000426922F080024261226C0AB9A26C1AB13E
:10269000026822F0080202603F208840A860012002
:1026A00084F83500216D0020002984F8340058D1C9
:1026B0007BE5510301680CD4C9050ED4016821F0F3
:1026C00010010160012084F83500002084F83400F6
:1026D00003E0080301D4616C00E0E16B09B120461E
:1026E0008847606D00283FF460AD606DC00734D04E
:1026F000042084F8350020684FEA9821026822F00F
:1027000001020260019A013201928A421AD80268DB
:10271000D20717D0019A013201928A4212D8026878
:10272000D2070FD0019A013201928A420AD8026878
:10273000D20707D0019A013201928A4202D8026878
:10274000D207DFD10068C0074FF0030008BF0120A7
:1027500084F83500002084F83400E16C00293FF44F
:1027600024AD2046884702B0BDE8F087D00307D4E7
:10277000616C0029F5D118E5216C0029F1D114E52F
:10278000E16B0029EDD110E5026804228A40324253
:102790007FF40CAE75E6026873E6000000000000EE
:1027A000F0B581B0044600F043FE002C00F0128129
:1027B00040F26F4705462068C4F20207B84215DCB4
:1027C0009F21C4F2020188422BDC5721C4F202018E
:1027D000884251DC1021C4F2020188427BD02821BA
:1027E000C4F20201884276D040216FE045F22F41C9
:1027F000C5F60201884227DC40F2B741C4F202016B
:10280000884245DC40F27041C4F20201884262D045
:1028100040F28841C4F2020188425CD040F2A041FB
:1028200054E040F22741C4F20201884240DCA0217A
:10283000C4F2020188424ED0B821C4F2020188429B
:1028400049D040F2104141E045F26B41C5F602012A
:10285000884200F3C28045F23041C5F60201884249
:1028600000F0CE8045F24441C5F60201884200F0F6
:10287000C78045F25841BEE05821C4F202018842A7
:1028800029D07021C4F20201884224D088211DE0A1
:1028900040F2B841C4F2020188421CD045F208411E
:1028A000C5F60201884200F0AB8045F21C41A2E06F
:1028B00040F22841C4F2020188420CD040F240416B
:1028C000C4F20201884206D040F25841C4F202012B
:1028D000884240F07382022184F83510002184F888
:1028E0003410016821F0010101600168C90709D0B5
:1028F00000F09EFD401B052800F2678020680168FB
:10290000C907F5D148F23F0204F108060168CFF685
:10291000106211406CCE1143A2691943E369294347
:10292000256A0E43616A1643042943EA060343EA13
:10293000050303D1D4E90B6533432B4341F2000671
:10294000C5F600463668B6F1005F1DD36668A6F18D
:102950002905292D18D8DFE805F0151515151515C9
:1029600017171717171717171717171717171717F7
:1029700015151515171717171515171717171717F3
:102980001515151543F4801303600429436923F0DA
:10299000070341EA030140F0E780D4E90A53002B22
:1029A00041EA050100F0E080B2F5005F00F0C3806D
:1029B000002A40F0CC80022D00F0CC80012D00F0E8
:1029C000C080002D00F0C680CEE02020606503208E
:1029D00084F83500012001B0F0BD45F26C41C5F628
:1029E000020188420CD045F28041C5F602018842BE
:1029F00006D045F29441C5F60201884240F0DE81DE
:102A0000022184F83510002184F834100168A2688E
:102A1000A2F18003E668B3FA83F3402A4FEA531326
:102A20004FEA83336FF3101108BF1023226941EA84
:102A3000D60166691943A36941EAD201E26941EA14
:102A4000D601266A41EAD30141EAD20141EA1611D0
:102A500040F808194CF6CD41C0B2CCF6CC41A0FBF1
:102A600001016FF0030000EA9100E0652046FDF7E8
:102A70009FFFE16D012201F01F0102FA01F14160A7
:102A80002068B84240F37F8045F22F41C5F602012D
:102A9000884216DC40F2B741C4F20201884227DCCA
:102AA00040F27041C4F20201884200F0B48040F26A
:102AB0008841C4F20201884200F0AD8040F2A0419A
:102AC000A4E045F26B41C5F60201884221DC45F2E3
:102AD0003041C5F60201884200F09D8045F2444134
:102AE000C5F60201884200F0968045F258411FE089
:102AF00040F2B841C4F20201884200F08C8045F2F5
:102B00000841C5F60201884200F0858045F21C416B
:102B10000EE045F26C41C5F60201884200F07B8070
:102B200045F29441C5F60201884274D045F28041D5
:102B3000C5F602016CE0032D16D8DFE805F00E0B98
:102B40000E02A3F1C072B2FA82F2520904E0032D20
:102B500003D309D1C3F3006232B140206065012084
:102B600084F8350001B0F0BD41612046FDF720FF3B
:102B7000E16D3F2201F01F0102FA01F1816020683E
:102B8000B8423FF781AF9F21C4F20201884210DCB6
:102B90005721C4F2020188421EDC1021C4F2020156
:102BA000884238D02821C4F20201884233D0402123
:102BB0002CE040F22741C4F20201884218DCA02137
:102BC000C4F20201884226D0B821C4F20201884230
:102BD00021D040F2104119E05821C4F2020188428C
:102BE00019D07021C4F20201884214D088210DE06E
:102BF00040F22841C4F2020188420CD040F2404128
:102C0000C4F20201884206D040F25841C4F20201E7
:102C1000884240F0CC8045F2434C45F2944EC5F6D4
:102C2000020CC5F6020E604512DD45F26B41C5F699
:102C3000020188421FDC45F24441C5F60201884288
:102C400025D045F25841C5F6020188421FD061E007
:102C500045F20841C5F60201884218D045F21C41F0
:102C6000C5F60201884212D045F23041C5F6020194
:102C700088420CD04EE045F28041C5F60201884200
:102C800005D045F26C41C5F60201884242D1C3B27B
:102C90004CF6CD42A3F10801CCF6CC420EF55B76A2
:102CA000A1FB02120EF57B731509A26805F01F0146
:102CB000802A4FF0010206EB8506266602FA01F52E
:102CC0006366A56602D10022626000E06268D1B24C
:102CD000013A072A31605D6013D84B1E082B15D2CC
:102CE00060453ADD45F26B41C5F60201884243DC9E
:102CF00045F24441C5F60201884249D045F25841A7
:102D000042E00020C4E91B00606750E004F16C025F
:102D100007CA49E07045C3B2BAD04AF6AB22A3F164
:102D20001001CAF6AA2240F20F43A1FB0212C4F21C
:102D30000203082698424FEA121103F1AA030D4636
:102D400088BF06EB121540F600069842C4F2020650
:102D500006F1800328BF0D46A7E745F20841C5F6F6
:102D60000201884214D045F21C41C5F60201884296
:102D70000ED045F2304107E045F28041C5F6020130
:102D8000884205D045F26C41C5F60201884217D150
:102D9000980045F60011C5F60201084440310122B1
:102DA000E0669A4021676267002303604A60002062
:102DB0006065012184F8351001B0F0BD402005E6C2
:102DC00070454FEA8300E4D040F60001C4F20201EE
:102DD000084401F5A07100F58070E0E700000000F4
:102DE000B0B5D0B3054690F83400012801D10220D7
:102DF000B0BD012085F8340095F83500012826D1B2
:102E0000022085F83500002068652868046824F0F1
:102E1000010404602846FDF75BFEB7212868C4F270
:102E2000020188421BDD40F25741C4F20201884290
:102E300026DC40F22741C4F2020188423BDCB82183
:102E4000C4F20201884253D040F210414BE04FF4EB
:102E500000606865002085F834000120B0BD57216E
:102E6000C4F2020188421ADD8721C4F202018842BD
:102E70002ADC5821C4F20201884239D0702132E0A4
:102E800040F28741C4F20201884224DC40F25841FA
:102E9000C4F2020188422BD040F2704123E010219D
:102EA000C4F20201884223D02821C4F202018842E0
:102EB0001ED0402117E040F22841C4F202018842AE
:102EC00016D040F240410EE08821C4F2020188424F
:102ED0000ED0A02107E040F2A041C4F202018842D6
:102EE00006D040F28841C4F20201884240F02B81B2
:102EF00001680B2262F344010160296C19B1016879
:102F000041F00801016040F26F41C4F202018842C1
:102F100019DC9F22C4F20202904231DC5722C4F233
:102F20000202904256DC1022C4F20202904200F0EB
:102F300091802822C4F20202904200F08B8040224D
:102F4000C4F2020284E045F22F42C5F6020290422A
:102F50002BDC40F2B742C4F20202904248DC40F25D
:102F60007042C4F20202904274D040F28842C4F22D
:102F7000020290426ED040F2A042C4F2020267E028
:102F800040F22742C4F20202904240DCA022C4F286
:102F9000020290425ED0B822C4F20202904259D09E
:102FA00040F21042C4F2020252E045F26B42C5F612
:102FB000020290423CDC45F23042C5F602029042E9
:102FC00048D045F24442C5F60202904242D045F252
:102FD00058423BE05822C4F2020290423AD070229A
:102FE000C4F20202904235D08822C4F202022FE0DD
:102FF00040F2B842C4F2020290422BD045F208429D
:10300000C5F60202904225D045F21C421EE040F275
:103010002842C4F2020290421CD040F24042C4F264
:103020000202904216D040F25842C4F202020FE06F
:1030300045F26C42C5F6020290420BD045F2944232
:10304000C5F60202904205D045F28042C5F6020262
:10305000904272D12A6E1368DB0303D5136843F4E0
:1030600080731360EA6E1AB1136843F480731360BF
:1030700040F20F42C4F20202904210DC6F21C4F20F
:10308000020188421CDC3F21C4F20201884232DC8A
:103090001021C4F2020188424FD028214AE0884220
:1030A0001ADC40F23F41C4F2020188422ADC40F2BD
:1030B0001041C4F2020188423FD040F2284139E079
:1030C0009F21C4F20201884225DC7021C4F2020172
:1030D000884232D088212DE040F29F41C4F20201A3
:1030E00088421FDC40F27041C4F20201884224D0C1
:1030F00040F288411EE04021C4F2020188421CD007
:10310000582117E040F24041C4F20201884214D035
:1031100040F258410EE0A021C4F2020188420CD0D6
:10312000B82107E040F2B841C4F20201884204D05D
:1031300040F2A041C4F202018842016841F001015D
:1031400001600020B0BD40F2B841C4F202018842E3
:1031500001683FF4CEAE052262F343010160296CA1
:1031600000293FF4D0AE016841F00401CAE6000036
:10317000B0B5044600F05CF940F200010546C2F229
:103180000001621C097818BF0C4400BF00F050F920
:10319000401BA042FAD3B0BD10B540F2F824B0F500
:1031A000004FC2F200044FF00001E1700CD0B0F506
:1031B000804F1DD0B0F5005F18BF10BD2078B0FA69
:1031C00080F04009207010BDA0780130C1B2022902
:1031D0004FF4804188BF0020A07041F20040C5F646
:1031E000020000F00DF900281CBF0120E07010BDA6
:1031F0006078B0FA80F04009607010BD00000000F7
:103200008821C5F600010A68024208BF70470860BD
:10321000FFF7C2BF000000002DE9F04F85B00D6838
:103220000290002D00F0E68002988E4600F12642C2
:103230000A2102F1FF7342F20042C5F602020024A5
:1032400090424FEAB32208BF0921092A4FF0010733
:1032500038BF4FEAB32100264FF000080091CDF8A7
:103260000CE00DE0DEF8005008F1010835FA07F037
:1032700006F1020607F1010704F1040400F0BA8028
:10328000A7F1010A012000FA0AF315EA0309E9D0BF
:10329000DEF804B00BF003056A1E012A22D802985A
:1032A0004FEA4801D0F808C00191032101FA06F263
:1032B00003992CEA020CD1F80CE00EFA06F1DDF8C5
:1032C0000CE041EA0C01816041686FEA020CCBF32B
:1032D000001299430346019802FA0AF21143596019
:1032E0000CE000BF0320032D00FA06F0029B6FEAFA
:1032F000000C304602D13046032526E0D968DEF8BE
:10330000082001EA0C018240022D41EA0201D96045
:103310001BD102466FF0030000EA5A010F20194446
:1033200004F01C0300FA03F51046D1F820E0039ADC
:103330002EEA0505DDF80CE012699A40029B2A434B
:103340000A62DEF804B00BF00305196805FA00F014
:1033500001EA0C011BF4403F40EA010018603FF411
:1033600081AF44F2F44140F20845C5F60201C5F6CA
:1033700000050F23086840F002000860086800F0AC
:10338000020004902AF00300049904F00C01425951
:103390008B409A43009B03FA01F1114341514FF0D6
:1033A000B0452868DEF8041040EA0902CB0258BF95
:1033B00020EA09028B022A6040F20405C5F60005E6
:1033C000286840EA090258BF20EA09028B032A60F4
:1033D000D5F8800040EA090258BF20EA0902C90373
:1033E000C5F88020E86F40EA090258BF20EA0902C8
:1033F000EA6737E705B0BDE8F08F00000000000085
:103400000069084018BF012070470000000000005C
:10341000002A08BF09048161704700000000000015
:1034200041F20000C5F600400068000C7047000043
:1034300040F2F470C2F20000006870470000000023
:103440002DE9F0414FF0010519B1002A18BF002BFA
:1034500002D12846BDE8F081044690F84D000128CD
:1034600003D194F84C00012802D10220BDE8F0817C
:10347000012584F84C50E1624FF00008626305209A
:10348000238646F651076386C0F6000723876387C5
:10349000C4F8508084F84D002268D4E9110396687E
:1034A00026F44046966046F621062032C0F6000615
:1034B000C3E90F6746F65907C0F60007DF64638E5D
:1034C000FFF78EFC50B1206D40F0080020652846C3
:1034D00084F84D5084F84C80BDE8F08121688868FC
:1034E000000403D4886840F400408860626BA06CDC
:1034F000638F3031FFF774FC60B1206D012540F01F
:103500000800206584F84D50002084F84C002846BF
:10351000BDE8F08120688168490403D4816841F4E2
:10352000804181600168C90703D1016841F0010150
:1035300001600168002541F40071016084F84C507D
:103540002846BDE8F0810000B0B500244FF480515A
:10355000C5F6020400222046FFF75AFF642500BF8B
:10356000284608F085F90135C82DF9D140F26430BC
:103570000022C2F200009FEDA50A9FEDA51AD0E936
:10358000001001F55B719FEDA32A0EE0BDEEC43A79
:103590002832B2F5C87F01F1500113EE105AA3F89A
:1035A000B651A3F8B45100F0288111ED123AB0EEF3
:1035B000414A23EE003A01ED123AB4EE413AF1EEFF
:1035C00010FA08DCB0EE424AB4EE423AF1EE10FADC
:1035D00001DBB0EE434ABDEEC44A11ED103A23EED2
:1035E000003A831801ED103A14EE105AB0EE414A39
:1035F000B4EE413AF1EE10FAA3F89251A3F89051CB
:1036000008DCB0EE424AB4EE423AF1EE10FA01DBC9
:10361000B0EE434ABDEEC44A11ED0E3A23EE003A35
:1036200001ED0E3A14EE105AB0EE414AB4EE413AB2
:10363000F1EE10FAA3F89651A3F8945108DCB0EE1D
:10364000424AB4EE423AF1EE10FA01DBB0EE434AE0
:10365000BDEEC44A11ED0C3A23EE003A01ED0C3AEE
:1036600014EE105AB0EE414AB4EE413AF1EE10FABF
:10367000A3F89A51A3F8985108DCB0EE424AB4EE90
:10368000423AF1EE10FA01DBB0EE434ABDEEC44A15
:1036900011ED0A3A23EE003A01ED0A3A14EE105AFF
:1036A000B0EE414AB4EE413AF1EE10FAA3F89E5161
:1036B000A3F89C5108DCB0EE424AB4EE423AF1EE77
:1036C00010FA01DBB0EE434ABDEEC44A11ED083AF0
:1036D00023EE003A01ED083A14EE105AB0EE414ADA
:1036E000B4EE413AF1EE10FAA3F8A251A3F8A051BA
:1036F00008DCB0EE424AB4EE423AF1EE10FA01DBD9
:10370000B0EE434ABDEEC44A11ED063A23EE003A4C
:1037100001ED063A14EE105AB0EE414AB4EE413AC9
:10372000F1EE10FAA3F8A651A3F8A45108DCB0EE0C
:10373000424AB4EE423AF1EE10FA01DBB0EE434AEF
:10374000BDEEC44A11ED043A23EE003A01ED043A0D
:1037500014EE105AB0EE414AB4EE413AF1EE10FACE
:10376000A3F8AA51A3F8A85108DCB0EE424AB4EE7F
:10377000423AF1EE10FA01DBB0EE434ABDEEC44A24
:1037800011ED023A23EE003A01ED023A14EE105A1E
:10379000B0EE414AB4EE413AF1EE10FAA3F8AE5160
:1037A000A3F8AC5108DCB0EE424AB4EE423AF1EE76
:1037B00010FA01DBB0EE434ABDEEC44A91ED003A87
:1037C00023EE003A81ED003A14EE105AB0EE414A71
:1037D000B4EE413AF1EE10FAA3F8B251A3F8B051A9
:1037E0003FF7D4AEB0EE424AB4EE423AF1EE10FAF0
:1037F000FFF6CCAEB0EE434AC8E64FF4805101224A
:103800002046BDE8B040FFF703BE00BF0000004700
:1038100000FEFF4600FEFFC6B0B500244FF4805105
:10382000C5F60204002220460025FFF7F1FD00BF87
:10383000284608F01DF80135642DF9D140F26430B6
:103840000022C2F200009FED9B0A9FED9B1AD0E977
:1038500000104C319FED992A0DE000BFBDEEC43A37
:103860002832B2F5C87F01F1500113EE105ADD8401
:103870009D8400F0168111ED123AB0EE414A23EE1C
:10388000003A01ED123AB4EE413AF1EE10FA08DCDA
:10389000B0EE424AB4EE423AF1EE10FA01DBB0EE7D
:1038A000434ABDEEC44A11ED103A23EE003A8318A4
:1038B00001ED103A14EE105AB0EE414AB4EE413A1E
:1038C000F1EE10FA5D80855208DCB0EE424AB4EEAB
:1038D000423AF1EE10FA01DBB0EE434ABDEEC44AC3
:1038E00011ED0E3A23EE003A01ED0E3A14EE105AA5
:1038F000B0EE414AB4EE413AF1EE10FADD809D801F
:1039000008DCB0EE424AB4EE423AF1EE10FA01DBC6
:10391000B0EE434ABDEEC44A11ED0C3A23EE003A34
:1039200001ED0C3A14EE105AB0EE414AB4EE413AB1
:10393000F1EE10FA5D811D8108DCB0EE424AB4EE72
:10394000423AF1EE10FA01DBB0EE434ABDEEC44A52
:1039500011ED0A3A23EE003A01ED0A3A14EE105A3C
:10396000B0EE414AB4EE413AF1EE10FADD819D81AC
:1039700008DCB0EE424AB4EE423AF1EE10FA01DB56
:10398000B0EE434ABDEEC44A11ED083A23EE003AC8
:1039900001ED083A14EE105AB0EE414AB4EE413A45
:1039A000F1EE10FA5D821D8208DCB0EE424AB4EE00
:1039B000423AF1EE10FA01DBB0EE434ABDEEC44AE2
:1039C00011ED063A23EE003A01ED063A14EE105AD4
:1039D000B0EE414AB4EE413AF1EE10FADD829D823A
:1039E00008DCB0EE424AB4EE423AF1EE10FA01DBE6
:1039F000B0EE434ABDEEC44A11ED043A23EE003A5C
:103A000001ED043A14EE105AB0EE414AB4EE413AD8
:103A1000F1EE10FA5D831D8308DCB0EE424AB4EE8D
:103A2000423AF1EE10FA01DBB0EE434ABDEEC44A71
:103A300011ED023A23EE003A01ED023A14EE105A6B
:103A4000B0EE414AB4EE413AF1EE10FADD839D83C7
:103A500008DCB0EE424AB4EE423AF1EE10FA01DB75
:103A6000B0EE434ABDEEC44A91ED003A23EE003A6F
:103A700081ED003A14EE105AB0EE414AB4EE413AEC
:103A8000F1EE10FA5D841D843FF7E8AEB0EE424AD5
:103A9000B4EE423AF1EE10FAFFF6E0AEB0EE434A71
:103AA000DCE64FF4805101222046BDE8B040FFF72C
:103AB000AFBC00BF0000004700FEFF4600FEFFC68F
:103AC000704700000000000070B5044600680169FE
:103AD000406994F84D2000EA0105042A1DD105F043
:103AE000410005F04006012802D1E16B20468847DD
:103AF0009EB1206840F261120169914301618169C0
:103B000041F040018161012084F84D00206D40F0BA
:103B1000020020652046FFF7D3FF94F84D000328EC
:103B20001CD105F0220005F02006022802D1216CEC
:103B30002046884796B12068016921F4B17101617E
:103B4000816941F020018161012084F84D00206DE0
:103B500040F0040020652046FFF7B2FF94F84D00C6
:103B6000052818BF70BD68070CD405F005000128B2
:103B700011D005F00600022814D0A80617D4680654
:103B80002BD470BD216C20468847E16B20468847C6
:103B9000A806F4D50BE0E16B2046884705F0060047
:103BA0000228EAD1216C20468847A806E7D520687C
:103BB00040F26312016991430161816941F0200182
:103BC0008161012084F84D00206D40F004002065E3
:103BD0002046FFF775FF6806D3D5206840F26312D0
:103BE000016991430161816941F0400181610120D6
:103BF00084F84D00206D40F0020020652046BDE8AD
:103C00007040FFF75DBF000070B530B3044690F818
:103C10004D0028B9002084F84C00204600F0A8F898
:103C2000022084F84D0020680168C90703D00168AC
:103C300021F0010101600021016561680A2955D860
:103C400001228A4012F48A6F50D06069022502284E
:103C500005D10022FF2D32D982E0012070BDD4E9C8
:103C6000020140F08000002908BF0125B0284FF470
:103C700080504FF0000114BF0026012600F09CFC8C
:103C800020212269F1404FF480736943B2F1007F33
:103C900008BF23FA06F1B0FBF1F0616900EB800088
:103CA0004000B0FBF1F04CF6CD410530CCF6CC41F4
:103CB000A0FB01010D09C1F3C002FF2D50D882F015
:103CC000010085F001010843B0FA80F0400947D1B6
:103CD000D4E900011206002D036D08BF4FF0807279
:103CE0006FF3184342EA05421A43026549F2400362
:103CF000026DCFF6FF53A6681A4041EA0603E66854
:103D00001A43A3693243266A1A43636A3243266917
:103D10001A4332430A2942F00102026540F6F87262
:103D20008261026822F480320260C268E36922F490
:103D3000000242EA0302C2600CD8012202FA01F139
:103D400011F48A6F1FBFC16821F00041A26A1143BC
:103D500018BFC16000202065012184F84D1070BD9E
:103D6000206D40F010002065012070BD00000000B3
:103D70002DE9F04FB7B0044602A8C0210025CDE9D7
:103D80003555CDE933553295FCF72FFC43F2000150
:103D90002068C4F20101884202D037B0BDE8F08F3C
:103DA00003954FF48050029018200C904FF48170CE
:103DB0000D900320CDE90E00CDE9100502A84FF4C7
:103DC0000058CDE91255CDF8688000F055FE08B1D5
:103DD000FDF712F844F2E0400025C5F60200C5F6F2
:103DE000020532AE40F2280901694FF0020A41F49F
:103DF000805101610169002701F48051019101990D
:103E0000016841F0010101600168C4F2020901F09A
:103E1000010101910199016841F00401016000680C
:103E2000314600F0040001900198F02032902846BD
:103E3000CDF8CCA04FF0050B34973597CDF8D8B01E
:103E4000FFF7EAF910203146CDE9320A05F50060A6
:103E5000CDE93477CDF8D8B0FFF7DEF940F29055D0
:103E60002520C2F200054FF480664FF4006AC5F8C1
:103E70000090C5E901072846EF602E61C5E905A855
:103E80004FF48078C5E907876F62FEF789FC08B1B7
:103E9000FCF7B2FFA56409F11800AC6340F20865B5
:103EA000C2F200052860262068604020C5E90207AC
:103EB000C5E9046A4FF40050C5E906082846C5E97B
:103EC0000877FEF76DFC08B1FCF796FF2320002170
:103ED00000226564AC6300F093F8232000F080F8C2
:103EE00037B0BDE8F08F000040F2000040F2F471FE
:103EF000C2F20000C2F2000100780A6810440860B3
:103F0000704700000000000080B5032000F0A8F812
:103F100001F0FEFC44F218414EF66843C5F602017A
:103F2000C0F600030A68C2F30322096801F00F011A
:103F30009A5C595C02F01F02D04040F20C02C2F2BF
:103F4000000201F01F0120FA01F1116040F20801A6
:103F5000C2F2000108600F2000F00AF800281CBF20
:103F6000012080BD00F02CF8002080BD0000000082
:103F700070B540F20006C2F200063178E1B10446A5
:103F800040F20800C2F200004FF47A72B2FBF1F185
:103F90000068B0FBF1F002F0FFFA0F2C4FF00105C2
:103FA00008D838B94FF0FF3000222146002500F034
:103FB00027F87460284670BD012070BD0000000025
:103FC00081B044F2F440C5F60200016841F00201FC
:103FD0000160006800F002000090009801B0704796
:103FE000002848BF704700F01F01012202FA01F1CA
:103FF0004EF200124009CEF2000242F82010704743
:1040000070B54EF60C5C4FF0FF36CEF2000C00F1AE
:104010006045DCF80030C3F3022E8EF00703042B5A
:1040200028BF0423BEF1030406FA03F321EA0301C7
:1040300000F00F0338BF0024043BB0F1FF3F63449E
:1040400006FA04F003F10C0301FA04F1C8BF05F508
:10405000644322EA000008430001187070BD0000AC
:104060004EF60C514FF6FF03CEF200010A681A40DB
:1040700060F30A2242F0806040F0FD7008607047F3
:10408000B0B544F60C05C5F602052968490729684C
:1040900005D401F00701081A18BF0120B0BD21F0B6
:1040A000070108432860FFF7C3F9044655F8080CD8
:1040B000800407D4FFF7BCF9001BB0F57A7FF5D96F
:1040C0000120B0BD0020B0BD80B501F099FB44F2E5
:1040D00020414EF66842C5F60201C0F600020968AA
:1040E000C1F30211515C01F01F01C84080BD000006
:1040F00080B544F2304CC5F6020C5CF8083C5CF824
:10410000082CC2F3051E5CF8041CDCF8042001F046
:104110000101BEF1000FC2F3CC0202FB01F100EE7F
:10412000101AB8EE400A1DD003F00303022B1ED074
:10413000012B2FD01BB95CF8301C890674D401EE1A
:1041400010EA9FED4D3AB8EE411ADCF800106FF31B
:104150005F2102EE101AB8EE422AA0EE032A9FED6C
:10416000490A29E00021C0E90011816080BD01EE0B
:1041700010EA9FED413AB8EE411ADCF800106FF3F7
:104180005F2102EE101AB8EE422AA0EE032A9FED3C
:104190003B0A11E001EE10EA9FED373AB8EE411A02
:1041A000DCF800106FF35F2102EE101AB8EE422A1D
:1041B000A0EE032A9FED320AA2EE000A80EE010A69
:1041C000DCF80010B7EE002AC1F3462101EE101A08
:1041D000B8EE411A31EE021A80EE011ABCEEC11A95
:1041E00080ED001ADCF80010C1F3064101EE101A50
:1041F000B8EE411A31EE021A80EE011ABCEEC11A75
:1042000080ED011ADCF80010C1F3066101EE101A0E
:10421000B8EE411A31EE021A80EE010ABCEEC00A75
:1042200010EE101A816080BD5CF8301C49F200026B
:10423000C0F2D03202EE10EAC1F3C1019FED0E3A96
:1042400022FA01F1B7EE004A01EE101AA0EE034A7D
:10425000B8EE411AB8EE422ADCF800106FF35F2185
:1042600000EE101AB8EE400A34EE000A20EE010A01
:1042700080EE020AA4E700BF00000039001BB74B24
:104280000024744A0024744C80B544F2384CC5F6BE
:10429000020C5CF8103C5CF8102CC2F3053E5CF894
:1042A0000C1CBEF1000FC1F30011DCF80420C2F3B6
:1042B000CC0202FB01F100EE101AB8EE400A1DD04C
:1042C00003F00303022B31D0012B1CD0DBB95CF8C7
:1042D000381C890674D401EE10EA9FED4D3AB8EE11
:1042E000411ADCF800106FF35F2102EE101AB8EEED
:1042F000422AA0EE032A9FED490A29E00021C0E9E5
:104300000011816080BD01EE10EA9FED413AB8EEE8
:10431000411ADCF800106FF35F2102EE101AB8EEBC
:10432000422AA0EE032A9FED3C0A11E001EE10EABA
:104330009FED373AB8EE411ADCF800106FF35F21B9
:1043400002EE101AB8EE422AA0EE032A9FED310ABF
:10435000A2EE000A80EE010ADCF80010B7EE002A97
:10436000C1F3462101EE101AB8EE411A31EE021ADD
:1043700080EE011ABCEEC11A80ED001ADCF80010C4
:10438000C1F3064101EE101AB8EE411A31EE021ADD
:1043900080EE011ABCEEC11A80ED011ADCF80010A3
:1043A000C1F3066101EE101AB8EE411A31EE021A9D
:1043B00080EE010ABCEEC00A10EE101A816080BDCA
:1043C0005CF8381C49F20002C0F2D03202EE10EA6A
:1043D000C1F3C1019FED0E3A22FA01F1B7EE004A96
:1043E00001EE101AA0EE034AB8EE411AB8EE422AC6
:1043F000DCF800106FF35F2100EE101AB8EE400AEF
:1044000034EE000A20EE010A80EE020AA4E700BFA3
:1044100000000039001BB74B0024744A0024744C80
:1044200080B544F2404CC5F6020C5CF8183C5CF8D0
:10443000182CC2F3055E5CF8141CBEF1000FC1F32A
:104440000021DCF80420C2F3CC0202FB01F100EEF3
:10445000101AB8EE400A1DD003F00303022B31D02E
:10446000012B1CD0DBB95CF8401C890674D401EE2A
:1044700010EA9FED4D3AB8EE411ADCF800106FF3E8
:104480005F2102EE101AB8EE422AA0EE032A9FED39
:10449000490A29E00021C0E90011816080BD01EED8
:1044A00010EA9FED413AB8EE411ADCF800106FF3C4
:1044B0005F2102EE101AB8EE422AA0EE032A9FED09
:1044C0003C0A11E001EE10EA9FED373AB8EE411ACE
:1044D000DCF800106FF35F2102EE101AB8EE422AEA
:1044E000A0EE032A9FED310AA2EE000A80EE010A37
:1044F000DCF80010B7EE002AC1F3462101EE101AD5
:10450000B8EE411A31EE021A80EE011ABCEEC11A61
:1045100080ED001ADCF80010C1F3064101EE101A1C
:10452000B8EE411A31EE021A80EE011ABCEEC11A41
:1045300080ED011ADCF80010C1F3066101EE101ADB
:10454000B8EE411A31EE021A80EE010ABCEEC00A42
:1045500010EE101A816080BD5CF8401C49F2000228
:10456000C0F2D03202EE10EAC1F3C1019FED0E3A63
:1045700022FA01F1B7EE004A01EE101AA0EE034A4A
:10458000B8EE411AB8EE422ADCF800106FF35F2152
:1045900000EE101AB8EE400A34EE000A20EE010ACE
:1045A00080EE020AA4E700BF00000039001BB74BF1
:1045B0000024744A0024744C10B584B0024641F6BD
:1045C000FF7300209B1A70EB01032EDB40F2FF33D8
:1045D0009B1A70EB010354DA82F480630B4300F002
:1045E000CD8082F400630B4300F0E08082F48052BF
:1045F000114340F0448144F20041C5F60201086DC8
:10460000C0F30232042A00F2058248F20000C0F230
:10461000BB00DFE812F0050036013B013401400128
:104620000868800140F1F68103E147F6FF739B1AA9
:1046300070EB010348DA82F400430B4300F0CE80B4
:1046400082F480330B4300F0DB8082F400221143BC
:1046500040F0158144F20040C5F60200816D01F47E
:104660004031B1F5003F00F0EA80B1F5803F00F045
:10467000F480002940F0CE810068000100F17081D3
:10468000C8E182F480730B4348D082F40072114376
:1046900040F0F58044F20041C5F60201086DC0F318
:1046A0008212042A00F2B68148F20000C0F2BB0078
:1046B000DFE812F0050003010801E5000D010868BC
:1046C000800140F1A781B4E082F400530B433FD056
:1046D00082F48042114340F0D28044F20044C5F697
:1046E0000204A06DC0F30270052800F29381DFE898
:1046F00010F00600630167016B017001720101F0A7
:104700007FF8216A4EF66842C0F60002C1F302113A
:10471000515C01F01F01C84004B010BD44F20041DB
:10472000C5F60201086D00F00702042A00F272814A
:1047300048F20000C0F2BB00DFE812F00500DB0029
:10474000E000A100E5000868800140F1638170E0AD
:1047500044F20040C5F60200016DC1F30241052993
:1047600000F25881DFE811F0060041014A015301CF
:1047700059014A0001F06CF804B010BD44F2004148
:10478000C5F60201886DC0F34252042A00F242814C
:1047900048F20000C0F2BB00DFE802F003C7CB71B3
:1047A000CF000868800140F1358142E044F20041C9
:1047B000C5F60201886DC0F30262042A00F22A8164
:1047C00048F20000C0F2BB00DFE802F003C7D05996
:1047D000D9000868800140F11D812AE044F20040C0
:1047E000C5F60200016D01F04051B1F1005F3ED00D
:1047F000B1F1805F19D0002940F00C810068EBE036
:1048000044F20040C5F60200C16C0068C90303D43D
:10481000800140F1FF800CE0000140F1FB8001A825
:10482000FFF732FD039804B010BD0068800140F12D
:10483000F18001A8FFF75CFC029804B010BDC16CC8
:10484000036811F04051026840F0F18013F0040356
:1048500000F0ED80C2F3C100F8E00068800040F194
:10486000D98001A8FFF7DCFD039804B010BD0068F3
:10487000000140F1CF8001A8FFF706FD029804B0C7
:1048800010BD0868000140F1C58069E0086880003B
:1048900040F1C0806DE0C86C0B6810F040520868B1
:1048A00003D113F0040340F0CF80B2F1805F75D1E3
:1048B00010F4807040F0C18070E00868000140F1A1
:1048C000A9804DE00868800040F1A48051E0C86CE8
:1048D0000B6810F04052086803D113F0040340F055
:1048E000B380B2F1805F59D110F4807040F0A580A0
:1048F00054E00868000140F18D8031E008688000D4
:1049000040F1888035E0C86C0B6810F040520868B0
:1049100003D113F0040340F09780B2F1805F3DD1E2
:1049200010F4807040F0898038E00868000171D58B
:1049300016E0086880006DD51BE0C86C0B6810F0AD
:104940004052086802D113F004037DD1B2F1805FB8
:1049500024D110F4807070D120E00868000159D58E
:1049600001A8FFF791FC019804B010BD0868800011
:1049700050D501A8FFF754FD019804B010BDC86CD4
:104980000B6810F04052086802D113F004035BD1A9
:10499000B2F1805F02D110F480704ED1086810F43B
:1049A00000301CBF43F20060C0F26E10B2F1005F35
:1049B00018BF002004B010BD206800012AD517E000
:1049C0002068800026D51CE02068400722D520689A
:1049D0003AE0206822E0206843F200618003C0F2E0
:1049E0006E1101EAE07004B010BD0068000111D53D
:1049F00001A8FFF749FC029804B010BD00688000D0
:104A000008D501A8FFF70CFD029804B010BD01689D
:104A1000490718D4002004B010BD006840F600110A
:104A2000C005C0F23D0101EAE07004B010BDB1F173
:104A3000805F13D112F4807210D040F60010C0F2E3
:104A40003D0004B010BD0068C0F3C10049F2000190
:104A5000C0F2D03121FA00F004B010BD006810F4AB
:104A600000301CBF43F20060C0F26E10B1F1005F75
:104A700018BF002004B010BD2DE9F0470446C078EF
:104A800044F22C480007C5F6020830D5A06E4FEA64
:104A9000305103290AD8DFE801F0020E1A23D8F8B2
:104AA000001041F40031C8F8001019E001266078C8
:104AB000C0070AD01FE004F10800022103F08CF9BE
:104AC000064660B16078C00715D1354645E004F16F
:104AD0002800022103F010FA06460028F2D1A06E49
:104AE000D8F8241021F440110843C8F82400002607
:104AF0006078C007E9D0A06D04280DD83546DFE8FE
:104B000000F00311171D1D00D8F80000354640F4D1
:104B10000030C8F8000011E0012501276078800707
:104B20001FD450E004F10800002103F055F904E01F
:104B300004F12800002103F0DFF905462F461DB1DE
:104B4000607880070DD43EE0D8F82400A16D20F0F5
:104B5000070000250843C8F824003746607880071E
:104B600031D5E06D4FEAB01004280BD8DFE800F033
:104B70000310161C1C00D8F8000040F40030C8F8E0
:104B8000000011E001250126607840071FD453E0A2
:104B900004F10800002103F01FF904E004F12800EB
:104BA000002103F0A9F905462E461DB160784007A3
:104BB0000DD441E0D8F82400E16D20F4E070002528
:104BC0000843C8F824003E466078400734D5D4F83E
:104BD000A8004FEA705004280BD8DFE800F003115A
:104BE000171D1D00D8F8000040F40030C8F8000080
:104BF00012E001254FF001096078000720D453E04E
:104C000004F10800002103F0E7F804E004F12800B3
:104C1000002103F071F90546A9461DB1607800072F
:104C20000ED441E0D8F82C00D4F8A81020F460008D
:104C300000250843C8F82C00B1466078000733D53A
:104C4000D4F8AC004FEA306004280BD8DFE800F05D
:104C50000310161C1C00D8F8000040F40030C8F8FF
:104C6000000011E001250127E078800720D44CE006
:104C700004F10800002103F0AFF804E004F128007B
:104C8000002103F039F905462F461DB1E078800771
:104C90000ED43AE0D8F82C00D4F8AC1020F0E06044
:104CA00000250843C8F82C004F46E07880072CD533
:104CB000E06C4FEA301003280CD8DFE800F008025F
:104CC0001108D8F8000040F40030C8F800002E4663
:104CD00075B911E0012501266078C00619D44AE0B3
:104CE00004F10800022103F077F805462E461DB1B5
:104CF0006078C0060DD43EE0D8F82000E16C20F0CA
:104D0000300000250843C8F820003E466078C00601
:104D100031D5206E4FEA303004280BD8DFE800F0A0
:104D20000310161C1C00D8F8000040F40030C8F82E
:104D3000000011E001250127607880061FD44FE0B4
:104D400004F10800002103F047F804E004F1280012
:104D5000002103F0D1F805462F461DB1607880068A
:104D60000DD43DE0D8F82400216E20F4E040002569
:104D70000843C8F8240037466078800630D5606E56
:104D80004FEA3040052807D8DFE800F0030C18038D
:104D900003032E4675B91AE0012501266078400606
:104DA00022D454E004F10800012103F015F805466F
:104DB0002E4665B16078400616D448E004F128001C
:104DC000012103F099F80546002D2E46F2D1D8F8BE
:104DD0002400616E20F4E02000250843C8F8240078
:104DE0003E466078400632D5D4F8B0004FEA3070C5
:104DF000052807D8DFE800F0030C180303032F464B
:104E000075B91AE0012501276078000623D444E033
:104E100004F10800012102F0DFFF05462F4665B1CD
:104E20006078000617D438E004F12800012103F06F
:104E300063F80546002D2F46F2D1D8F82C00D4F89F
:104E4000B01020F0E04000250843C8F82C00374699
:104E50006078000621D5206F58B1B0F1005F0BD00B
:104E6000B0F1805F2DD1D8F8000040F40030C8F8D0
:104E700000002E4695B907E004F10800012102F078
:104E8000ABFF05462E464DB9D8F82400216F20F01F
:104E9000405000250843C8F824003E46E078C0078B
:104EA00031D0A06C032812D8DFE800F008021808FF
:104EB000D8F8000040F40030C8F80000A946ADB9A9
:104EC00018E001250126E078C007EAD11BE00125A2
:104ED0004FF00109A078400619D51AE004F1080046
:104EE000022102F079FF0546A9461DB1A0784006CF
:104EF0000DD50EE0D8F82000A16C20F003000025AD
:104F00000843C8F82000B146A078400601D44F46B7
:104F100016E0D8F8D40340F48070C8F8D403FEF744
:104F200087FA0646D8F8D403C00507D4FEF780FAFE
:104F3000801B6428F6D90325032701E02F4685B19D
:104F40002078C00761D0E06F4FEAF000052838D81C
:104F5000DFE800F0033D49030303002D2E463ED158
:104F60004AE0D8F84410D4F8B400414011F4407F2E
:104F700011D0D8F84410D8F8442042F48032C8F850
:104F80004420D8F8442021F4407122F48032C8F83B
:104F90004420C8F84410B0F5807F40F0E482FEF76A
:104FA00047FA064641F2883A03250327D8F8440019
:104FB000800700F1D682FEF73BFA801B5045F5D9F9
:104FC000BEE7012601252078800722D450E004F1B5
:104FD0000800012102F000FF05462E4665B1207849
:104FE000800716D444E004F12800012102F084FF78
:104FF0000546002D2E46F2D1D8F82800E16F20F0AA
:10500000380000250843C8F828003E46207880076D
:105010002ED5A06F052807D8DFE800F0030C180391
:1050200003032F4675B91AE00127012520784007B0
:1050300022D452E004F10800012102F0CDFE054621
:105040002F4665B12078400716D446E004F12800C9
:10505000012102F051FF0546002D2F46F2D1D8F86C
:105060002800A16F20F0070000250843C8F8280099
:1050700037462078400730D5D4F89400052807D863
:10508000DFE800F0030C180303032E4675B91AE09D
:10509000012601252078800623D455E004F108007C
:1050A000012102F099FE05462E4665B12078800662
:1050B00017D449E004F12800012102F01DFF054644
:1050C000002D2E46F2D1D8F82C00D4F8941020F000
:1050D000070000250843C8F82C003E4620788006CB
:1050E00032D5D4F890004FEA3070052807D8DFE8B1
:1050F00000F0030C180303032F4675B91AE00127CB
:1051000001252078400623D455E004F10800002151
:1051100002F062FE05462F4665B12078400617D49E
:1051200049E004F12800022102F0E6FE0546002DC8
:105130002F46F2D1D8F82800D4F8901020F0E040A3
:1051400000250843C8F8280037462078400632D5A5
:10515000D4F89C004FEAB020052807D8DFE800F01B
:10516000030C180303032E4675B91AE00126012526
:105170002078000623D45AE004F10800002102F050
:105180002BFE05462E4665B12078000617D44EE06A
:1051900004F12800022102F0AFFE0546002D2E4644
:1051A000F2D1D8F82C00D4F89C1020F4E05000255F
:1051B0000843C8F82C003E462078000637D5D4F8BE
:1051C000A0004FEA703005280ED8DFE800F0031386
:1051D0001D0303032F4605B3206801072BD4C10626
:1051E00042D4000359D479E0012701252068010742
:1051F000F5D520E004F10800002102F0EDFD0546A0
:10520000002D2F46E8D108E004F12800022102F029
:1052100073FE0546002D2F46DED1D8F82C00D4F8B9
:10522000A01020F4604000250843C8F82C00374641
:1052300020680107D3D5D4F88410B1F5805F0AD176
:1052400004F12800022102F057FE002818BF0127B0
:105250002068D4F88410D8F8282022F44052114352
:10526000C8F82810C106BCD5D4F89810B1F5807FD5
:105270000AD104F12800022102F03EFE002818BFE6
:1052800001272068D4F89810D8F82C2022F4407216
:105290001143C8F82C10000320D5D4F8A400B0F5B1
:1052A000003F0FD0B0F5803F06D078BB04F1080076
:1052B000002102F091FD04E004F12800022102F037
:1052C0001BFE05462E4655B9D8F82C00D4F8A4107C
:1052D00020F4403000250843C8F82C003E46A07852
:1052E00040072BD5D4F88800B0F5401F0BD0B0F59F
:1052F000001F11D0B0F5801F29D1D8F8000040F46C
:105300000030C8F800002F46CDB90DE00126012578
:10531000A0784007E6D411E004F12800012102F052
:10532000EBFD05462F4655B9D8F82800D4F888106B
:1053300020F4401000250843C8F828003746A0781C
:10534000C00709D13E462168880015D530E0012705
:105350000125A078C007F5D0206DB0F5803F0FD0B3
:1053600008BBD8F8000040F40030C8F800002E4612
:105370007DB1216888001BD460688A0324D468E06A
:1053800004F10800022102F027FD0546002D2E46FB
:10539000EFD1D8F82000216D20F48030002508439B
:1053A000C8F82000CEE70126012521688800E3D552
:1053B00004F12800022102F09FFD002818BF0126F9
:1053C000D4E900108A0344D5D4F880206FF001039B
:1053D00003EB3223022B0BD34FEA322343B1012BD1
:1053E00040F0BA80D8F8003043F40033C8F80030F9
:1053F00045B3CA0230D4CA0038D48A0241D44A0024
:1054000049D4B1F1FF3F56DD09025ED4C10767D12F
:10541000810770D441077AD4010700F18480C10666
:1054200000F18D80800607D504F12800022102F0EA
:1054300063FD002818BF0125002D18BF012528464F
:10544000BDE8F087D8F8283023F440731A43C8F831
:1054500028203546CA02CED5D8F82420636F22F022
:1054600000421A43C8F82420CA00C6D558F81C2C9C
:10547000D4F8B83022F480421A4348F81C2C8A022F
:10548000BDD5D8F82420E36E22F080721A43C8F804
:1054900024204A00B5D558F81C2C22F4004248F8C4
:1054A0001C2CD4F8BC2058F81C3C1A4348F81C2C7F
:1054B000B1F1FF3FA8DCD8F82020636D22F0405204
:1054C0001A43C8F820200902A0D5D8F82810D4F82B
:1054D0008C2021F440011143C8F82810C10797D04F
:1054E00004F10800002102F077FC002818BF0546EF
:1054F000606881078ED504F10800012102F06CFC80
:10550000002818BF0546606841077FF585AF04F1A4
:105510000800022102F060FC002818BF0546606800
:1055200001077FF57CAF04F12800002102F0E4FCC4
:10553000002818BF05466068C1067FF573AF04F107
:105540002800012102F0D8FC002818BF0546606839
:1055500080067FF571AF67E70125CA027FF54BAF83
:105560007AE7D4F8B4004FF6CF7358F81C2CC0F289
:10557000FF0300F4407122F47C5203EA1013B1F5EA
:10558000407F4FF0000508BF1A436FF31F3048F803
:105590001C2CD8F844100843C8F84400FFF7B7BCE7
:1055A0002DE9F04381B0002800F0268142F2000886
:1055B0000446C5F200288946D8F8000000F00F0024
:1055C00088420ED2D8F8000020F00F0040EA09000F
:1055D000C8F80000D8F8000000F00F00484540F07F
:1055E0000B81206844F218474107C5F602070AD527
:1055F00021693A6802F07002914204D93A6822F0B7
:1056000070021143396001070AD561697A6802F0B6
:105610007002914204D97A6822F0700211437960D5
:10562000C1060AD5A1697A6802F4E062914204D900
:105630007A6822F4E0621143796081060AD5E16953
:10564000BA6802F07002914204D9BA6822F070027E
:105650001143B96010F002010AD0E2683B6803F020
:105660000F039A4204D93B6823F00F031A433A60B0
:10567000C20743D0386820F47061D4E901020328DE
:1056800041EA0201396007D002280BD157F8181CF3
:10569000890340F1B18010E057F8181C890140F1EE
:1056A000AB800AE0012857F8181C03D1C90540F166
:1056B000A38002E0490740F19F8057F8081C21F0C1
:1056C0000701084347F8080CFDF7B2FE064641F211
:1056D000883500BF57F8080C616800F03800B0EB5F
:1056E000C10F08D0FDF7A4FE801BA842F2D9032009
:1056F00001B0BDE8F083206800F0020151B1E1681B
:105700003A6802F00F02914204D23A6822F00F0286
:1057100011433960D8F8001001F00F0149450DD947
:10572000D8F8001021F00F0141EA0901C8F8001073
:10573000D8F8001001F00F0149455DD141070AD5A5
:1057400021693A6802F07002914204D23A6822F06C
:1057500070021143396001070AD561697A6802F065
:105760007002914204D27A6822F07002114379608B
:10577000C1060AD5A1697A6802F4E062914204D2B6
:105780007A6822F4E0621143796080060AD5E06904
:10579000B96801F07001884204D2B96821F0700143
:1057A0000843B86000F0B4F839684EF66843C0F6B4
:1057B0000003C1F303213A6802F00F02595C9A5CBE
:1057C00001F01F0120FA01F102F01F0040F20C026B
:1057D00021FA00F0C2F20002106040F2040040F230
:1057E0000802C2F20000C2F200020068116001B0BB
:1057F000BDE8F043FEF7BCBB012001B0BDE8F0837B
:1058000080B500F085F844F218414EF66843C5F6BD
:105810000201C0F600030A68C2F30322096801F01E
:105820000F019A5C595C02F01F0220FA02F201F0AB
:105830001F0040F20C0122FA00F0C2F200010860E1
:1058400040F20801C2F200010A6080BD00000000C1
:1058500080B500F05DF844F2184C4EF66841C5F68C
:10586000020CC0F60001DCF80020C2F30322DCF8D1
:10587000003003F00F038A5CCB5C02F01F02D040C3
:1058800003F01F0240F20C0320FA02F2C2F20003FE
:105890001A6040F20803C2F200031860DCF804004A
:1058A000C0F30210085C00F01F0022FA00F080BD77
:1058B00080B500F02DF844F2184C4EF66841C5F65C
:1058C000020CC0F60001DCF80020C2F30322DCF871
:1058D000003003F00F038A5CCB5C02F01F02D04063
:1058E00003F01F0240F20C0320FA02F2C2F200039E
:1058F0001A6040F20803C2F200031860DCF80400EA
:10590000C0F30220085C00F01F0022FA00F080BD06
:1059100044F23041C5F6020151F8200CC0F3C20038
:10592000032812D0022843D0002846D151F8300C69
:10593000800649F20000C0F2D03058BF704751F8DD
:10594000301CC1F3C101C840704751F8082C51F810
:10595000080CC0F3051C51F8043C486803F001032F
:10596000BCF1000FC0F3CC0003FB00F000EE100A06
:10597000B8EE400A26D002F00302022A36D0012AED
:1059800022D00ABB51F8300C800653D401EE10CA65
:105990009FED3B3AB8EE411A08686FF35F2002EEC4
:1059A000100AB8EE422AA0EE032A9FED380A2EE034
:1059B00043F20060C0F26E10704740F60010C0F273
:1059C0003D0070470020704701EE10CA9FED2C3A51
:1059D000B8EE411A08686FF35F2002EE100AB8EEC5
:1059E000422AA0EE032A9FED280A10E001EE10CA19
:1059F0009FED233AB8EE411A08686FF35F2002EE7C
:105A0000100AB8EE422AA0EE032A9FED1E0AA2EE6B
:105A1000000A80EE010A0868C0F34620013001EE5A
:105A2000100AB8EE411A80EE010ABCEEC00A10EE70
:105A3000100A704751F8300C49F20002C0F2D0321F
:105A400002EE10CAC0F3C1009FED0D3A22FA00F039
:105A5000B7EE004A01EE100AA0EE034AB8EE411A72
:105A6000B8EE422A08686FF35F2000EE100AB8EE25
:105A7000400A34EE000A20EE010A80EE020ACAE76C
:105A800000000039001BB74B0024744A0024744CFA
:105A9000F0B581B0002800F057810446007844F248
:105AA0000046C007C5F6020621D12078800740F1E4
:105AB000B280306910F03801B06A3CD0182908BFB4
:105AC0005FEA807037D0E068316800285CD021F050
:105AD000190108433060FDF7ABFC0546306840070C
