:020000040800F2
:10000000287A0120A1010008BF7B00088967000849
:10001000BD7B0008992300082D8C0008000000001B
:10002000000000000000000000000000CD88000873
:10003000D9230008000000002D800008CF880008A8
:10004000BB010008BB010008BB010008BB010008A0
:10005000BB010008BB010008BB010008BB01000890
:10006000BB010008BB010008BB0100089D2300087C
:10007000BB010008BB010008A9230008B523000844
:10008000BB010008C1230008BB010008BB01000838
:10009000BB010008BB010008BB010008BB01000850
:1000A000BB010008BB010008BB010008BB01000840
:1000B000BB0100087D890008BB01000899670008A2
:1000C0008D670008BB010008BB010008BB010008E8
:1000D00031800008218C0008BB010008BB0100082A
:1000E000BB010008BB010008BB010008BB01000800
:1000F000BB010008BB010008BB010008BB010008F0
:10010000BB010008BB010008BB010008BB010008DF
:10011000BB010008BB010008BB010008BB010008CF
:10012000BB010008BB010008BB010008BB010008BF
:10013000BB010008BB010008BB010008BB010008AF
:10014000BB010008BB010008BB010008BB0100089F
:10015000BB010008BB010008CD230008BB0100085B
:10016000BB010008BB010008BB010008BB0100087F
:10017000BB010008BB010008BB0100080000000033
:10018000BB010008BB010008DFF810D000F082FCC2
:1001900000480047019D0008AFF30080287A012045
:1001A0000648804706480047FEE7FEE7FEE7FEE711
:1001B000FEE7FEE7FEE7FEE7FEE7FEE76D890008E3
:1001C000890100082DE9F05F0546002092469B4614
:1001D00088460646814640241BE02846414647465D
:1001E000224600F02DFB53465A46C01A914110D3C7
:1001F00011461846224600F014FB2D1A67EB010841
:100200004F4622460120002100F00BFB17EB0009AE
:100210004E41201EA4F10104DFDC484631462A4647
:100220004346BDE8F09F40EA01039B0703D009E085
:1002300008C9121F08C0042AFAD203E011F8013BD2
:1002400000F8013B521EF9D27047D2B201E000F82B
:10025000012B491EFBD270470022F6E710B513466A
:100260000A4604461946FFF7F0FF204610BDF0B4D9
:1002700080EA0102D40F4200B2EB410F02D20246E3
:10028000084611464A0042D0C30DDDB2C1F3C75241
:10029000AD1A202D35DAC1F3160141F4000204B184
:1002A0005242C5F1200602FA06F12A411044B3EB8E
:1002B000D05F23D0C4B1012DA0EBC35009DCF0BC4A
:1002C0004FF0004202EAC352DBB200F5000000F03A
:1002D000E2BA400000F1807000EBC350A0F18070E2
:1002E00040EAD170490009E0490841EAC071A0EB39
:1002F000C35000F50000400800EBC350F0BC00F014
:10030000C1BA6142012202EB4101001BF6E7F0BCD9
:10031000704781F00041AAE780F00040A7E780EA3B
:10032000010210B502F00043400022D04A001FD065
:10033000010E01EB1261C0F35600C2F3560240F405
:10034000000042F40002A0FB022000047F391404E4
:1003500000D0401C50EA124001D44000491EC2B2F5
:100360000C0604EBD010401C4008802A02D003E0A9
:10037000002010BD20F00100002900DA0020184301
:1003800010BD30B480EA010202F0004530F00042B6
:1003900021F0004013D090B1C30DD40DC2F316016B
:1003A000C0F31600E41A41F4000140F400027D3469
:1003B000914201D3641C00E04900002C02DA30BCF9
:1003C000002070474FF400000023914201D3891AA6
:1003D000034340084FEA4101F7D151B1914202D1A4
:1003E0004FF0004105E002D24FF0010101E06FF053
:1003F000010103EBC450284430BC00F043BA2DE99E
:10040000FE4F804681EA0300C00F0C46009021F0A9
:10041000004123F00045B8EB0200A94105D2404657
:10042000214690461C460B46024623F000401043EE
:1004300047D0270DC7F30A00C3F30A510290401AB0
:10044000019040286BDAC3F3130040F4801B00983E
:10045000924620B10023D2EB030A63EB0B0B019809
:100460005946C0F14002504600F0DBF906460D4601
:1004700050465946019A00F0F3F910EB080061412B
:10048000002487EA115284EAE7731A4340D0009AA5
:1004900062B3019A012A4FEA075215DC001B61EB97
:1004A00002014FF0004202EA0752CDE90042001C6F
:1004B00041F5801132462B4600F02AFA03B0BDE820
:1004C000F08F40462146F9E7001B61EB0201001C5A
:1004D00041F5801300185B412018A2F5001747EB87
:1004E000030140EAD570B6196D4111E06D084FEA7D
:1004F000360645EAC0754FEA0752001B61EB020160
:10050000001C41F5801149084FEA300000195141A3
:1005100032462B4603B0BDE8F04F00F0EAB9009830
:10052000012240000023D0EB020263EBE07300984D
:1005300021464FEAE074B8EB000061EB0401E9E703
:1005400083F000435BE781F0004158E72DE9FE4F5F
:1005500081EA030404F0004421F0004100944FF0CC
:10056000000B23F0004350EA01045ED052EA03047A
:100570005BD0C3F30A54C1F30A552C44A4F2F334FC
:100580000194A0FB0254C1F3130141F48011C3F3A1
:10059000130343F4801301FB024400FB034E840A5F
:1005A000970A44EA815447EA8357A4FB07680295F7
:1005B0008D0A05FB07854FEA932C04FB0C54270595
:1005C000029D4FEA065847EA1637B5EB08056EEB71
:1005D000070C870E920E47EA811742EA8312A7FBA7
:1005E0000201B6EB0B0164EB00042B0D43EA0C3364
:1005F0005E1844EB1C50DA465146E7FB0201C5F396
:1006000013044FEA0B3343EA14534FEA0432019CBC
:1006100043EA0603A4F10C040294009CCDE900B463
:1006200000F076F903B0BDE8F08F00200146F9E74D
:100630002DE9F04D81EA030404F0004B21F0004560
:1006400014464FF0000A23F0004150EA050220D082
:1006500054EA01021DD0C5F30A570246C5F313033D
:10066000C1F31300C1F30A5640F4801543F480131C
:10067000A7EB0608101BD64608F2FD3873EB050001
:1006800002D308F1010801E092185B41B8F1000FB4
:1006900003DA00200146BDE8F08D00204FF4801100
:1006A000064684460EE0171B73EB050705D3121BA5
:1006B00063EB050306434CEA010C49084FEA30009E
:1006C00092185B4150EA0107EDD152EA030012D0C3
:1006D00082EA040083EA0501084305D0101BAB4100
:1006E00006D20122002306E000224FF0004302E080
:1006F0006FF0010253101AEB06004CEB085110EB9F
:100700000A0041EB0B01BDE8F04D00F0F2B8962372
:100710000022114600F0BFB80EB5C10F80EAE070AC
:100720000844CA07002140F233438DE80E000A4610
:100730000B4600F0EDF803B000BD0EB540F23341BA
:1007400002910021CDE900110A460B4600F0E0F8C5
:1007500003B000BD70B5C1F30A5201F0004500249A
:10076000C1F3130140F2FF3341F480119A4201DAE0
:10077000002070BD40F233439A42A2F2334203DCC0
:10078000524200F05DF800E090402C43F1D040422E
:1007900070BDC1F30A5210B5C1F3130140F2FF332B
:1007A00041F480119A4201DA002010BD40F2334337
:1007B0009A42A2F2334203DC524200F041F810BDEB
:1007C000904010BD00F0004230F000400AD0C10D52
:1007D00001F56071C0F3160042EA0151C2084007FA
:1007E0001143704700200146704701F0004330B4C8
:1007F00021F0004150EA010206D00A0DA2F5607214
:10080000C1F31301002A02DC30BC00207047440F02
:1008100044EAC104C100E01830BC00EBC25000F053
:1008200031B8202A04DB203A00FA02F10020704798
:100830009140C2F1200320FA03F31943904070471E
:10084000202A04DB203A21FA02F00021704721FA25
:1008500002F3D040C2F1200291400843194670478C
:10086000202A06DBCB17203A41FA02F043EAE07374
:1008700006E041FA02F3D040C2F120029140084361
:10088000194670470029A8BF7047401C490008BF9F
:1008900020F00100704710B4B0FA80FC00FA0CF0B0
:1008A00050EA010404BF10BC704749B1CCF12004E8
:1008B00021FA04F411FA0CF118BF01212143084375
:1008C000A3EB0C01CB1D4FEA00614FEA102042BFA1
:1008D000002010BC704700EBC35010440029A4BF97
:1008E00010BC7047401C490008BF20F0010010BC3C
:1008F000704710B5141E73F1000408DA401C41F172
:10090000000192185B411A4301D120F0010010BD93
:100910002DE9F04D92469B4611B1B1FA81F202E009
:10092000B0FA80F220329046FFF77BFF04460F4674
:1009300040EA0A0041EA0B0153465A46084313D0E5
:10094000114653EA010019D0C8F140025046FFF7A2
:1009500077FF05460E46504659464246FFF761FF6F
:10096000084305D0012004E020463946BDE8F08D5B
:100970000020054346EAE0762C4337430A98630596
:10098000E40AA0EB08000022FD0A44EA47540A30BA
:1009900002D500200146E9E7010510196941DDE9AA
:1009A000084500196941BDE8F04DA2E72DE9F04185
:1009B000054621F000400C46284309D0C4F30A50F4
:1009C00040F23341884205DD28462146BDE8F081EA
:1009D0002846FBE740F2FE31884210DC0CDB4FEA90
:1009E000043040EA155050EA053105D0104804F0B3
:1009F000004101430020E9E700200146E6E7A0F2BC
:100A000033404642C6F1400228462146FFF709FF1F
:100A100007468846284621463246FFF711FF4346DF
:100A20003A46FFF766FF3246BDE8F041FFF7F9BEF0
:100A30000000F03F30B5041E71F1000404DB4FF0FC
:100A40000044404264EB0101141E73F1000405DB15
:100A50001C464FF00043524263EB04038B4208BF35
:100A6000824230BD30B5041E71F1000404DB4FF04A
:100A70000044404264EB0101141E73F1000405DBE5
:100A80001C464FF00043524263EB0403994208BFF7
:100A9000904230BD064C074D06E0E06840F001038F
:100AA00094E8070098471034AC42F6D3FFF770FB88
:100AB00080980608A098060870B58C1810F8015B9D
:100AC00015F0070301D110F8013B2A1106D110F8E7
:100AD000012B03E010F8016B01F8016B5B1EF9D1EB
:100AE0002B0705D40023521E0DD401F8013BFAE771
:100AF00010F8013BCB1A921C03E013F8015B01F8DC
:100B0000015B521EF9D5A142D8D3002070BD000070
:100B1000B0B5E1B14FF0000C02EB4C0432F81C30E0
:100B20000CF1020C64888C4523F0030324F00304C9
:100B300050F803E00559C55040F804E0034404446C
:100B4000D3F804E065685D60C4F804E0E4D3B0BDA8
:100B50002DE9F047B0F800A0984691460C460746AC
:100B6000012A0ED1BAF1000F42D0261D554600BF12
:100B700031684FF00040FFF7CCFB46F8080B013D11
:100B8000F6D1BAF1FF0F0CDDBAF5806F13DBBAF5C1
:100B9000805F27D0BAF5006F14D0BAF5806F1CD0F3
:100BA00026E0BAF13F0F12DCBAF1100F15D0BAF1FE
:100BB000200F07D01CE0BAF5807F03D0BAF5007F84
:100BC00010D015E03846214600F084F910E0BAF163
:100BD000400F07D0BAF1800F0AD13846214600F005
:100BE00037F805E07A6820465146012300F034FDCD
:100BF000B8F1000F04D0BA68B9892046FFF788FF22
:100C0000B9F1010F22D15046FFF781FD01464FF0A7
:100C10007E50FFF7B6FBBAF1000F08BFBDE8F087C2
:100C2000064600BFD4E900173046FFF778FB206086
:100C300030463946FFF773FB01464FF00040FFF79F
:100C400068FB60600834BAF1010AEBD1BDE8F087B7
:100C50002DE9F04F9BB00288059101EB82011491C0
:100C6000019040680021B1EBD20F04904FEA52008E
:100C7000029000F01D81D008029A05994FF0000AF9
:100C8000404201EB82010391149901EB820113911F
:100C90001290059D55F80A000A90149A52F80A100D
:100CA00014460991FFF7E3FA139B05EB0A0703EBE0
:100CB0000A0153F80AB04A68119108928A68C96813
:100CC0001A921791DDF80C9009EB0A0659F80A8080
:100CD00071681591B1681691F168189104EB0A01D9
:100CE000CDF82CB0CDF8308019914A688C68C9686D
:100CF00045F80A007868BD6807920E941091069036
:100D0000F8680D950F90FFF7B2FAF8602846214673
:100D1000FFF7ADFA079C069DB86028462146FFF70D
:100D2000A6FA786040465946FFF7A1FA49F80A004A
:100D3000DDE91710FFF79BFAF06016981A99FFF794
:100D400096FADDF82080B06015984146FFF78FFADB
:100D50007060DDE90910FFF7DCFA074628462146F6
:100D6000FFF7D7FA049E0446384656F80A904946DB
:100D7000FFF7D5FA06EB0A0B05462046DBF80460C0
:100D80003146FFF7CCFA01462846FFF770FA14996E
:100D900041F80A0020464946FFF7C1FA04463846A2
:100DA0003146FFF7BCFA01462046FFF7B2FA19991F
:100DB0004860DDE90B01FFF7ACFA1599044640469F
:100DC000FFF7A7FA054620463146FFF7A8FA07467F
:100DD00028464946FFF7A3FA01463846FFF799FA35
:100DE000139941F80A0028463146FFF798FA05465C
:100DF00020464946FFF793FA2946FFF738FADDF80F
:100E00004490C9F80400DDE90D01FFF782FA0646B7
:100E1000DDE90F01FFF77DFADBE9028B074641466A
:100E2000FFF77DFA044630465946FFF778FA014647
:100E30002046FFF76EFA199D4146E8603046FFF7FD
:100E40006EFA044638465946FFF769FA01462046CD
:100E5000FFF70DFAA8601A981699FFF75AFA044698
:100E6000DDE91701FFF755FA59460646FFF757FA2D
:100E7000074620464146FFF752FA3946FFF7F7F991
:100E8000C9F80C00204659464F46FFF748FA044679
:100E900030464146FFF743FA01462046FFF739FA4C
:100EA000C9F8080012980AF1100A01307FF4F0AE78
:100EB000029C0598049A0223214600F0CDFB01987C
:100EC00021460223426814981BB0BDE8F04F00F0A1
:100ED000C3BB00002DE9F04FB3B0834600880C4639
:100EE00062684FEA500A2D90206801EB8A0858F892
:100EF0002A102E912C902B92FFF7B9F954F82A1052
:100F000032903091FFF7B3F908EB8A0555F82A10B3
:100F10002F91FFF7ACF905EB8A01D5F80490D8F8CA
:100F2000047005914E68DBF80410CDF810B0206015
:100F300006914946DDF8ACB05846FFF798F93946B6
:100F40003190FFF794F93146FFF791F960602C98E2
:100F50002E99FFF7DEF939462E90FFF788F93146D2
:100F6000FFF7D7F944F82A00584649462394FFF77B
:100F7000D0F9DDF8C09004464946FFF7CAF9DDF81C
:100F8000BCB05946FFF773F9C8F8040032984946D7
:100F9000FFF7BFF95946FFF7BCF9CDF80C8048F8C8
:100FA0002A0039463198FFF7B4F93146FFF7B1F915
:100FB00068602E983946FFF7ACF93146FFF757F9CC
:100FC00045F82A00204649460295FFF750F9594650
:100FD000FFF79FF90599002700234FEA8A0548602B
:100FE0006FF0030000EB8A012B916FF0070101EB1A
:100FF0008A0230926FF001022D9E31934FEACA03AC
:1010000002EB9602A7EB52022E9200EBCA022A9242
:1010100001EBCA02329201EB0A122F9200EB0A1284
:1010200029920AEB4A0201EB820100EB8200970051
:1010300028912790B008002101902D9100212C913A
:1010400087E100BFCDE91565DDF88C902A9809EBA2
:1010500000060C962B9809EB000A279809EB000173
:1010600012910968299809EB000507F118001E95EF
:10107000139002F110000F9004F1080014970790EC
:10108000DAF800000A9010910D92FFF7F0F831683D
:1010900011902691FFF7EBF829682591FFF7E7F803
:1010A0002F9F59F807200B922F97329E59F8062050
:1010B00024923296289959F801100991309D59F8D7
:1010C0000530CAF80000184608933095FFF7CFF8AE
:1010D00059F806100E90FFF7CAF859F80710FFF7F5
:1010E000C6F849F805000798209DD0F800A02846CA
:1010F0005146FFF714F9E468229F06463846214618
:10110000FFF70DF901463046FFF7B1F8C8F80000C7
:1011100038465146FFF703F9064628462146FFF7B1
:10112000FEF801463046FFF7F4F8CBF80000DDE9A1
:101130000801FFF7EEF8209005460A981099FFF78E
:10114000E8F822900646DDE92510FFF7E2F80146AF
:1011500010902846FFF78BF8DDF890800546304662
:101160004146FFF7D6F8DDF82CB05946FFF77FF877
:1011700021460646FFF7D3F8074628465146FFF7B3
:10118000CEF801463846FFF7C4F80C9908602846A7
:101190002146FFF7C4F8044630465146FFF7BFF832
:1011A0002146FFF764F832991F9F49F801000F9814
:1011B000D0F800A038465146FFF7B1F805460D9823
:1011C000219C466920463146FFF7A9F8014628468A
:1011D000FFF74DF81899086020465146FFF79FF831
:1011E000054638463146FFF79AF801462846FFF78C
:1011F00090F8179908600E984146FFF78AF859460B
:10120000FFF787F8054611982699FFF782F8259988
:10121000FFF77FF851460746FFF781F801464FF088
:101220000040FFF776F8044628463146FFF777F886
:1012300001462046FFF76DF812990860284651468E
:10124000FFF76DF8044638463146FFF768F8214647
:10125000FFF75FF8DDF8A0A0159C49F80A00139885
:10126000D0F8008020464146FFF759F8064614980A
:10127000169FC56938462946FFF751F801463046A2
:10128000FEF7F5FF1999086038464146FFF747F821
:10129000064620462946FFF742F801463046FFF74A
:1012A00038F81A99086010982099FFF732F82499B5
:1012B00006465846FFF72DF82299FFF72AF82946E7
:1012C0000746FFF72CF8044630464146FFF727F85B
:1012D00001462046FFF71DF81E9908603046294652
:1012E000FFF71DF8044638464146FFF718F8214637
:1012F000FEF7BDFF2F9949F801002B9808382B9075
:101300003098083830902E9801302E902A9808385E
:101310002A903298083832905046AAF10800289056
:101320002798083827900846A1F108002F9029989F
:10133000083829903198083031902D9810302D9030
:101340002C9818302C901B9F1D9B1C9D0837083330
:101350000835239C319904EB010AE618DAF80800F5
:10136000DAF80C9022901D93159656F8081F2091DC
:10137000FEF77DFF04EB050826901C95CDF8508004
:1013800058F8081F2591FEF772FF1B972744169700
:1013900057F8081F2491FEF76AFF199757F8041FA2
:1013A000C3465BF8045F1E91189656F8044FCAF8BE
:1013B0000800484621461796FEF759FFDBF8001053
:1013C0002190FEF754FF39681A97FEF750FFCAF8CC
:1013D0000C0022982099FEF79CFF29460646AA4653
:1013E000FEF745FF1E9D2946FEF793FF20904846D5
:1013F0002146FEF78EFF259F04463946FEF789FFFA
:10140000DDF890904946FEF732FF22903946269843
:10141000FEF77FFF4946FEF77CFF1F90514621985B
:10142000FEF777FF2946FEF774FF219030465146BC
:10143000FEF76FFF2946FEF71AFF0646204639469B
:10144000FEF715FF4946FEF764FF054606982C99FE
:1014500047182D994218319944182E9800287FF486
:10146000F1ADD4E902949246329449462298FEF7AF
:1014700056FFDDF880B0804621465846FEF74FFF04
:1014800001464046FEF745FFDDF850804946C8F862
:101490000C005846FEF743FF044622983299FEF7A7
:1014A0003EFF01462046FEF7E2FEC8F80800DAE9F2
:1014B000048ADDF884B058464146FEF730FF1F9C91
:1014C000814651462046FEF72AFF01464846FEF770
:1014D00020FFDDF854904146C9F80C002046FEF785
:1014E0001EFF804658465146FEF719FF014640460A
:1014F000FEF7BDFEC9F808002846D7E90648214690
:10150000FEF70DFF074630464146FEF708FF01464D
:101510003846FEF7FEFE169F2146F8603046FEF77D
:10152000FEFE044628464146FEF7F9FE01462046E7
:10153000FEF79DFE019DB8602398069A0423294674
:1015400000F08AF8049C039829460423626800F09E
:1015500083F8626802982946042300F07DF86268E7
:1015600005982946042333B0BDE8F04F00F074B865
:101570002DE9F04381B00546002090460C46B0EBC3
:10158000920F4CD04FEA9800C0F10009D5E900074E
:101590000146FEF7C4FE064638463946FEF7BFFE52
:1015A00001463046FEF763FE08F078FF2060D5E97B
:1015B00002060146FEF7B3FE074630463146FEF707
:1015C000AEFE01463846FEF752FE08F067FF606047
:1015D000D5E904060146FEF7A2FE0746304631462D
:1015E000FEF79DFE01463846FEF741FE08F056FF25
:1015F000A060D5E906060146FEF791FE0746304693
:101600003146FEF78CFE01463846FEF730FE08F004
:1016100045FFE0601034203519F10109B6D118F00A
:10162000030016D0474200BFD5E900060146FEF789
:1016300076FE804630463146FEF771FE0146404652
:10164000FEF715FE08F02AFF44F8040B08350137B1
:10165000EAD101B0BDE8F0832DE9F04FC3B00C46EC
:101660000392CDE901031891E208DDF804B0E60029
:10167000D5000592A5EBD4002095C0004290100142
:101680001D905001199002EB420002EB8202C30050
:10169000070100201C93D300CDE91A64CDE91E7325
:1016A0004190DDF86490DDE91C785BF805005BF89B
:1016B000031035903691FEF7DAFDDDF808A10446F7
:1016C0002F905BF807005BF80A1034903391FEF717
:1016D000CEFD01462D902046FEF7C9FD06465BF87B
:1016E0000910DBF8000038913790FEF7C0FD1E9915
:1016F00004462B905BF808005BF801103D903C918C
:10170000FEF7B5FD01462A902046FEF7B0FD3146B2
:101710000446FEF7ACFDCBF8000020463146FEF74C
:10172000F8FD4BF809002098584442683E901F98F5
:10173000584431924168409010463091FEF797FD31
:101740000BEB0A01044626900BEB07003F90406824
:101750003B9149682E902C91FEF789FD82462046E8
:101760005146FEF784FD0BEB09040746DBF8040045
:101770000BEB08066168279639903A91FEF777FDE2
:1017800080461E98726858442992416828901046F5
:101790003291FEF76CFD064640463146FEF767FD86
:1017A00039468146FEF763FDCBF8040048463946CA
:1017B000FEF7AFFD606026985146FEF7AAFD07468A
:1017C000DDE92A10FEF7A5FD39460446FEF74FFD78
:1017D0001D994BF8010020463946FEF79AFD1E99E7
:1017E0004BF801002F982D99FEF793FD04464046D3
:1017F0003146FEF78EFD21460546FEF78AFD279904
:10180000486020462946FEF732FD28994860DDE908
:101810003501FEF77EFD36900446DDE93310FEF714
:1018200078FD014635902046FEF773FD40F2F34106
:10183000C3F63571FEF773FD0446DDE93010FEF79F
:1018400068FD054634902E982C99FEF762FD81467E
:1018500028464946FEF70BFD40F2F341C3F63571C9
:10186000FEF75DFD0546DDE93701FEF752FD214635
:101870000646FEF7FCFC074629983299FEF749FD1B
:1018800029468046FEF7F3FC824638465146FEF76D
:10189000EEFC20994BF80100384640F2F3475146E0
:1018A000C3F63577FEF735FD42994BF80100304617
:1018B0002146FEF72EFD044640462946FEF729FD47
:1018C000054620462946FEF7D2FC1F994BF8010039
:1018D00020462946FEF71DFD1C994BF80100DDE965
:1018E0003510FEF7C4FC3946FEF719FD80463498E2
:1018F0004946FEF70EFD3946FEF711FD8146DDE94A
:101900003C10FEF706FD41460646FEF7B0FC0746D2
:10191000DDE93901FEF7FDFC49460446FEF7A7FC68
:1019200039460546FEF7F5FC3E994860384629469B
:10193000FEF79DFC3B99486030464146FEF7E9FCC6
:10194000054620464946FEF7E4FC29460446FEF7D4
:10195000E0FC4099486028462146FEF788FCDDE916
:101960001F35DDE91A643F9A189950604198B344D5
:1019700020448842FFF494AE402CC0F0AD8202981F
:10198000DDF804C000244FF0010B80B204900598EC
:10199000C0EBC0004FEAC008CDF824800498039E35
:1019A000E146CDF81CB0CDF81890044456F8340048
:1019B000C4EBC40E04EB840C620104EB44010894F4
:1019C000179056F83E00169056F83C001590B05807
:1019D0000432B258149056F831001192139020013D
:1019E000021D3758B058E200043212974F4610904B
:1019F000B0580A010F90B0580E904FEACE00043054
:101A000030580D90101D30580C904FEACC00043027
:101A100030580B90C800043030580A90FA187819E2
:101A2000CDF800B1429741908068916891463E920E
:101A300035903691FEF71BFC04462A9042981C997B
:101A400000EB010B4298DBF80820CDF8FCB000EB6E
:101A5000080ADAF8081010463392CDF8F4A0349151
:101A6000FEF705FC01462B902046FEF700FC0746DA
:101A7000239042981999084481682190429882687D
:101A800042983891D0F80C8010463792CDF8E88013
:101A9000FEF7EDFB054629901D9842990C184298D7
:101AA0001E99A26827944618B16810463C922C965D
:101AB0003B91FEF7DCFB014628902846FEF7D7FB5A
:101AC00039462290FEF7D3FB429988604198D9F8B5
:101AD0000C10C0682F913090FEF7C9FB0546DBF86B
:101AE0000C00DAF80C102E902D91FEF7C0FB014689
:101AF00026902846AA46FEF7BAFBDDF884900546F4
:101B00004046D9F80C103991FEF7B1FBF168074651
:101B10002590E06832903191FEF7A9FB01462490B0
:101B20003846FEF7A4FB29460746FEF7A0FB42997C
:101B3000C860DDE92201FEF7ECFB04463846294681
:101B4000FEF7E7FB149E834659463046FEF7E7FB57
:101B5000119D074621462846FEF7E1FB014638461F
:101B6000FEF7D7FBC9F80C00304621464F46FEF77A
:101B7000D6FB044628465946FEF7D1FB01462046CF
:101B8000FEF775FBC9F80800DDE92A01FEF7C1FB85
:101B9000269905462B905046FEF7BBFB8146DDE9B2
:101BA0002810FEF7B6FB49468046FEF760FB044668
:101BB000DDE92410FEF7ADFB29468246FEF7A9FBBE
:101BC000129F064631463846FEF7A9FBDDF840B0C5
:101BD000054621465846FEF7A2FB01462846FEF779
:101BE00098FB279D2146E8603846FEF798FB04469F
:101BF00058463146FEF793FB2146FEF738FBA860B6
:101C000040464946FEF785FB04462B985146FEF7B1
:101C10002EFB0E9F804641463846FEF780FB0C9D0A
:101C2000064621462846FEF77AFB01463046FEF777
:101C300070FB2C9E2146F0603846FEF770FB044690
:101C400028464146FEF76BFB2146FEF710FBB060CD
:101C5000DDE93501FEF75DFB8046DDE93301FEF786
:101C600058FB834640465946FEF753FB40F2F34A81
:101C7000C3F6357A5146FEF752FB36900446DDE94D
:101C80002F10FEF746FB0646DDE92D10FEF741FB5F
:101C9000074630463946FEF7EAFA5146FEF73FFB63
:101CA00035900546DDE93701FEF733FB21463890D4
:101CB000FEF7DDFA30900446DDE93110FEF729FB2E
:101CC00029463790FEF7D3FA014632902046FEF7B8
:101CD000CEFA814640465946FEF7C9FA5146FEF70C
:101CE0001EFB0446349030463946FEF712FB51463F
:101CF000FEF715FB33900546DDE93B10FEF709FBC7
:101D000021463C90FEF7B3FA0646DDE93910FEF7AE
:101D100000FB29463B90FEF7AAFA31460746FEF73C
:101D2000F8FA179D824651462846FEF7F8FADDF884
:101D30003CB0044649465846FEF7F1FA01462046B3
:101D4000FEF7E7FADDF804814946C8F80C0028469A
:101D5000FEF7E5FA044658465146FEF7E0FA01461A
:101D60002046FEF784FAC8F8080030983299FEF74A
:101D7000D0FA044630463946FEF779FA169D804679
:101D800041462846FEF7CBFA0D9E074621463046CF
:101D9000FEF7C5FA01463846FEF7BBFA3D9F2146DD
:101DA000F8602846FEF7BBFA044630464146FEF787
:101DB000B6FA01462046FEF75AFAB86038983699C6
:101DC000FEF7A7FA0446419037983599FEF7A1FA35
:101DD00001463D902046FEF74AFA07463C98349962
:101DE000FEF797FA82463B983399FEF792FA5146EE
:101DF0008346FEF78EFA159D064631462846FEF7C5
:101E00008EFADDF82C80044639464046FEF787FA04
:101E100001462046FEF77DFADDF8F8903946C9F80C
:101E20000C002846FEF77BFA044640463146FEF792
:101E300076FA01462046FEF71AFAC9F808004198DA
:101E40003D99DDF82480FEF764FA04465046594671
:101E5000FEF70DFA139F834659463846FEF75FFAA0
:101E60000A9D064621462846FEF759FA01463046A5
:101E7000FEF74FFA3F9E2146F0603846FEF74FFAD4
:101E8000044628465946FEF74AFA01462046FEF720
:101E9000EEF9DDF800B1429FDDE91F351B9AB06015
:101EA0001A981899934407448B45FFF4B7ADDDF8B1
:101EB0001CB0DDF818C00598089C0BF1010B0CF163
:101EC000080C8345FFF46AAD0298059C3F2A4FEA4F
:101ED000C00002903FF6C8AB43B0BDE8F08FC8B178
:101EE0004FF4806141F6003201824FF40071C0F678
:101EF000060201804FF4E071818149F600214261C0
:101F000040F60032C0F60501C0F60602C0E9012124
:101F1000002000E0FF2040B27047C8B14FF40061DC
:101F200042F6003201824FF48061C0F60602018061
:101F30004FF4E161818146F69801426149F6805291
:101F4000C0F60501C0F60502C0E90121002000E04D
:101F5000FF2040B27047B8B14FF4807144F60032B0
:101F600001828021C0F606020180D021818147F2E2
:101F7000A86142614BF68052C0F60501C0F6050229
:101F8000C0E90121002000E0FF2040B27047B0B15D
:101F9000202144F6007201821021C0F60602018061
:101FA0001421818147F6480142614CF28012C0F64B
:101FB0000501C0F60502C0E90121002000E0FF2074
:101FC00040B27047C8B14FF4805144F6807201822C
:101FD0004FF40061C0F6060201804FF46E6181810A
:101FE00047F6700142614CF20022C0F60501C0F6CE
:101FF0000502C0E90121002000E0FF2040B2704747
:10200000C8B14FF4007148F6807201824FF48071BC
:10201000C0F6060201804FF4DC71818149F2306123
:10202000426140F20022C0F60501C0F60602C0E996
:102030000121002000E0FF2040B27047B0B14021F4
:1020400049F2807201822021C0F60602018030210F
:10205000818149F6A011426140F60022C0F60501D7
:10206000C0F60602C0E90121002000E0FF2040B2D6
:102070007047F0B581B00546008A14460E46002B25
:102080004FEA500028800ED02846314622461F468F
:1020900000F066F8284621463A46012301B0BDE823
:1020A000F040FEF755BD2846314600220123FEF7D9
:1020B0004FFD28463146224601B0BDE8F04000F011
:1020C000DDB8B1F5007F0DDBB1F5006F16DAB1F5C3
:1020D000007F1ED0B1F5806F2AD141F6DF61C0F6D6
:1020E00000010847202919D0402924D0B1F5807F6C
:1020F0001ED141F65771C0F600010847B1F5805F67
:1021000011D0B1F5006F13D141F61B71C0F600017B
:10211000084742F20101C0F60001084741F68F71FD
:10212000C0F60001084741F6C571C0F60001084736
:102130004FF0FF30704742F23D01C0F60001084702
:1021400070B55AB114460D4690ED000A061D06F012
:102150002BFFA5EC010A013C3046F5D170BD000013
:102160002DE9F04F89B0D1E90056894604469046E2
:1021700028463146FEF7CDF84FF07C51FEF7CFF8F8
:1021800027886469C8F8040028463146FEF76FF8CE
:102190004FF07C51FEF7C3F8012FC8F8000069D05A
:1021A0006FF00700C3460025019400EBC7016FF0F4
:1021B000030000EBC70AC7F1010000BFCDE907012A
:1021C00009EB05020898D76859F800109068049147
:1021D0000590FEF79EF8611903908A68C96802921B
:1021E0000691FEF79CF84E4659F80A90804638460C
:1021F0005C464946FEF78DF84146FEF738F88346BF
:1022000048463946B146FEF732F8DDF80880074601
:1022100039464046FEF783F801465846FEF779F8FE
:102220004FF07C51FEF77BF866194146A346F060FB
:102230000398FEF774F80446DDE90401FEF717F889
:102240002146FEF766F8069904463846FEF767F819
:1022500001462046019CFEF75CF84FF07C51FEF7EA
:102260005EF80899B0600798AAF1080A083508399D
:102270000130A3D109B0BDE8F08F00002DE9F04F87
:1022800089B00446086802914D6817460146FDF77B
:10229000EEFF064628462946FDF7E9FF054630468B
:1022A0002946FEF736F84FF07C51FEF738F86169A1
:1022B00024887860304601912946FDF7D8FF4FF019
:1022C0007C51FEF72CF838606FF00300002539468A
:1022D000039700EBC40B6FF0070000EBC40AC4F1D6
:1022E000010000BF029C0890621954F80A0091682E
:1022F000D76806900591FEF70CF802460490019805
:102300002844D0E9026110460791FEF708F854F816
:102310000B90804638464946FDF7FBFF4146FDF7E6
:10232000A6FF044648463946FDF7A1FF80463046E1
:1023300037464146FDF7F3FF01462046FDF7E9FF2A
:102340004FF07C51FDF7EBFF03994E193946F060D1
:102350000498FDF7E4FF0446DDE90510FDF787FF6B
:102360002146FDF784FF079904464046FDF7D7FF55
:1023700001462046FDF77BFF4FF07C51FDF7CFFF74
:10238000B0600898ABF1080BAAF1080A08350130D3
:10239000A8D109B0BDE8F08FFEE70000014800F0C9
:1023A00067BB0000D0560120014800F061BB00006F
:1023B000D8570120014800F05BBB000038580120CD
:1023C000014800F055BB000030570120014800F0E3
:1023D0004FBB00007C59012070470000924A10B4A6
:1023E00092ED050ADFED910A914960EE200AB0EE08
:1023F000080A60EE800AFDEEE00AC1ED0F0AD2ED98
:10240000050A9FED8C1A60EE810A60EE800AFDEEEF
:10241000E00AC1ED100AD2ED050A9FED871A60EEC1
:10242000810A60EE800AFDEEE00AC1ED110AD2EDEC
:10243000050A9FED821A60EE810A60EE800AFDEEC9
:10244000E00AC1ED120AD2ED050A9FED7D1A60EE99
:10245000810A60EE800AFDEEE00AC1ED130AD2EDBA
:10246000050A9FED781A60EE810AB2EE081A60EE56
:10247000800AFDEEE00AC1ED140AD2ED050A60EE15
:10248000810A20EE800ABDEEC00A81ED150AD1F85E
:1024900020C08B6DD0ED000A03EB8C0391ED011A87
:1024A00093ED000A40EE010AC3ED000A0B6A03F146
:1024B000010CC1F820C0CC6B0023A445A8BF0B625F
:1024C00090ED001AD1F85CC04C6AD1ED021A0CEB09
:1024D000840CDCED000A00EEA11A8CED001AD1F894
:1024E00024C00CF1010CC1F824C00C6CA445A8BF99
:1024F0004B6230EE201AD1F860C08C6AD0ED000A31
:102500000CEB840CD1ED031A9CED000A40EE210A7D
:10251000CCED000AD1F828C00CF1010CC1F828C09C
:102520004C6CA445A8BF8B6231EE001AD1F864C090
:10253000CC6AD0ED000A0CEB840CD1ED041A9CEDB2
:10254000000A40EE210ACCED000AD1F82CC00CF1B3
:10255000010CC1F82CC08C6CA445A8BFCB6231EE35
:10256000000AD1F868C00C6BF5EE000A0CEB840C85
:1025700060EE200A9CED000A91ED051A01EE600A5A
:1025800040EE010ACCED000AD1F830C00CF1010C8C
:10259000C1F830C0CC6CA445A8BF0B63D1F86CC0A7
:1025A0004C6B91ED061A0CEB840CDCED000A41EE4D
:1025B000400A00EE810A8CED000AD1F834C00CF11B
:1025C000010CC1F834C00C6DA445A8BF4B63D1F811
:1025D00070C08C6B91ED071A0CEB840C9CED000A1B
:1025E00001EE600A40EE010ACCED000AD1F838C0D5
:1025F0000CF1010CC1F838C04C6DA445A8BF8B6329
:10260000D2ED060AB7EE001A71EE600A90ED001ADC
:1026100060EE810A92ED061A41EE000A9FED0A0A69
:10262000C0ED000A10BC7047E85901200040614429
:10263000300100200080424400C07C4400608C4493
:102640000000FA42000028420000000072B6FEE7D7
:102650002DE9F04F80462DED048B8BB09FED608A05
:10266000604FB868FEF7AEF841EC100B53EC102B3E
:102670009FED5D0B51EC100BFDF7DAFFFEF76AF8EA
:102680000446002000900190029003900490059071
:1026900006900790089005460990B88881B2544882
:1026A000FFF70FFD01267E70002341465048FA6A6D
:1026B000FFF7DFFCD7E90B017A68FEF759FF786B6B
:1026C0004C4940F8041B882140F8041B79688900B4
:1026D0004A0840F8042B396BFDF7A5FD79682046C0
:1026E000C4EB510A824576D9DFF80CB106EB4409F8
:1026F000D7F830C06E4600BF5CF82010594538DD71
:10270000B0EE480A0027F0EE400AB0EE401AB9F1E8
:10271000000F24DD011B0CEB8103002249460CEB6A
:10272000800800BFA2EB040E864402EE10EAD3ED4F
:10273000001AA242B8EEC22A71EEA00A01EE821A75
:102740001EBF98ED002AB4EEE12AF1EE10FAC8BFE0
:102750007F1C491E02F1010203F10403E2D1B7EB31
:10276000440F06DB81EE200A06EB85016D1C81ED2E
:10277000000A401C8245BFD8002D18BF0024C8BFE6
:102780009DED009A27D01ADD06EB8400D0ED008A7B
:1027900088EE890A10EE100AFEF714F841EC100BCF
:1027A00006F0F6FC51EC100BFEF71FF800EE100AD5
:1027B000641CA542C8EE800A30EE888AE4DC00EE94
:1027C000105AF8EEC00A88EE200A0BB0BDEC048B5C
:1027D000BDE8F08FFFE7B0EE480AF6E70000000022
:1027E00000000000F800002000000000000044404D
:1027F0000C5A0120785634120000A04010B4B3F5F2
:10280000804F18BF6FF0704105D000BF40F8221014
:1028100010BC00207047D1F818C00B688C6843EAE0
:102820000C03D1F804C089894FEA0C1C4CEA042C33
:1028300043EA0C0343EA014150F82230DFF808C0B4
:1028400003EA0C031943E1E70000F0CF0A6850F8EF
:10285000223023F0010340F822308B68082B0CBF94
:1028600040220022D1F804C04CEA0303D1F80CC086
:102870004CEA02021A430B691A434B691A43CB69AB
:102880001A430B6A1A434B6A1A438B6A1A43CB6A80
:102890001A430B6B1A438B691A43CB6B09681A43B3
:1028A000044B50F821C02CEA03031A4340F82120BE
:1028B000002070477FFF0F0010B4D1E9003C43EACD
:1028C0000C13D1F808C08C894FEA0C2C4CEA044C4C
:1028D00043EA0C03B1F810C00B4C00EB820004EB90
:1028E0000C5C43EA0C0391F814C0640104EB0C6C1B
:1028F000896943EA0C034268194302F040421143DC
:10290000416010BC002070470000F0FF2DE9F0414D
:102910000446876D00F054FC054694F83500002607
:10292000022806D08020606584F834600120BDE86C
:10293000F0812068016821F016010160206841697A
:1029400021F080014161206C002804BFA06C0028A8
:1029500004D02068016821F0080101602068016846
:1029600021F0010101602068006810F0010F12D011
:1029700000F026FC401B052808D9202060650320B4
:1029800084F8350084F83460BDE8F0812068006880
:1029900010F0010FECD194F85C003F2101FA00F037
:1029A000B860012084F8350084F834600020BDE868
:1029B000F08190F83510022903D080214165012073
:1029C0007047052180F835100068016821F0010189
:1029D0000160002070470000002804BF01207047FC
:1029E00090F83510022904BF0220704701680A6878
:1029F00022F001020A600268002111600268516041
:102A0000026891600268D160026811610368212246
:102A10005A610268DFF844C0D3B2103BACFB03C379
:102A2000DFF83CC01B09032B1CF803C0C0F85CC0D6
:102A30006FF3090288BF121DC163016441648164A0
:102A4000C1643F23826503FA0CF30165936041651D
:102A500080F8351080F8341000207047ABAAAAAA7D
:102A6000F02D0508406D704790F835007047000064
:102A70002DE9F84304460027009773484FF4165198
:102A8000A56D0068B0FBF1F92E6894F85C00082190
:102A900001FA00F0304211D02068026812F0040FF1
:102AA0000CD0026822F00402026094F85C0001FA83
:102AB00000F0A860606D40F00100606594F85C0073
:102AC0004FF0010808FA00F0304209D02168496946
:102AD00011F0800F04D0A860606D40F002006065C6
:102AE00094F85C1004208840304209D021680968BD
:102AF00011F0020F04D0A860606D40F00400606522
:102B000094F85C1010208840304220D02168096879
:102B100011F0080F1BD0A8602068016811F4802F05
:102B200009D0006810F4002F02D0A16C79B10CE03C
:102B3000216C51B90BE0016811F4807F03D1016869
:102B400021F008010160216C09B12046884794F802
:102B50005C102020884030424AD02168096811F07A
:102B6000100F45D0A86094F835000528206801684A
:102B700009D011F4802F2BD0006810F4002F24D03E
:102B8000E16B21B332E021F0160101602068416958
:102B900021F080014161206C002804BFA06C002856
:102BA00004D02068016821F00801016094F85C00FD
:102BB0004FF03F0101FA00F0A86084F8358084F8F6
:102BC0003470216DD1BBBDE8F883616C71B90FE041
:102BD000016811F4807F07D1016821F010010160C4
:102BE00084F8358084F83470E16B09B12046884759
:102BF000606D002808BFBDE8F883606D10F0010F1C
:102C000017D04FF0050084F835002068016821F0E6
:102C100001010160009800F101000090484504D8CE
:102C20002068006810F0010FF4D184F8358084F832
:102C30003470E16C002908BFBDE8F883204601B07C
:102C4000BDE8F043084700005800002070B5044676
:102C500000F0B6FA0646002C04BF012070BD022029
:102C600084F83500002584F834502068016821F08C
:102C7000010101602068006810F0010F10D000BF52
:102C800000F09EFA801B052805D9202060650320EE
:102C900084F8350070BD2068006810F0010FEFD196
:102CA000216808683D4A1040D4E901231A43D4E959
:102CB000033C43EA0C031A4363691A43A3691A43AA
:102CC000E3691A43236A1A431043626A042A03D150
:102CD000D4E90B231A4310430860D4F800C0DCF891
:102CE0001400012320F00701606A40EA0102042871
:102CF00037D1A16AE06A0A4318B3A66956B1B6F59E
:102D0000005F14D000291CBF0129022921D003290A
:102D10001CD026E019B1012905D0022921D110F0DB
:102D2000807F1ED015E0B0F1C07F1AD111E081B1D3
:102D3000012907D002290CD0032908BFB0F1C07FB8
:102D400007D00EE010F0807F03D10AE010F0807F02
:102D500007D04FF04000606584F835304FF0010037
:102D600070BDCCF8142020680D4AC1B2A1F1100149
:102D7000A2FB01210B4A4FEA11110329525CE265C3
:102D80006FF3090088BF001D3F219140A06581605D
:102D9000656584F83530002070BD00003F8010F07C
:102DA000ABAAAAAAF02D050870B490F83450846D2F
:102DB0004FF0000C012D02BF022070BC70470125AE
:102DC00080F8345090F835600025012E1CBF80F843
:102DD00034504FF0020C02D070BC6046704702269F
:102DE00080F83560456505682E6826F480262E60DB
:102DF00005686B608368402B036803BF9A600268B4
:102E0000D16099601CBF0168CA6090F85C103F22D5
:102E100002FA01F1A16001680A6842F016020A6034
:102E2000016C21B101680A6842F008020A6000687A
:102E3000016841F001010160CEE7000070B5044671
:102E400000F0BEF90546B4F1FF3F02D00448007817
:102E5000044400F0B5F9401BA042FAD370BD000055
:102E60004C0000202DE9F04F0022DFF83CB14FF07C
:102E700001080F264FF0030908FA02FC01EA0C03CF
:102E800063457DD122F0030404F1804505F59835B2
:102E9000D5F808A89407270F06FA07F4A0F1804E8A
:102EA00004EA0A0ABEF5003E35D0584508BF4FF087
:102EB000010E30D0A0F1804EBEF5023E08BF4FF0AB
:102EC000020E28D0A0F1804EBEF5033E08BF4FF0A1
:102ED000030E20D0A0F1804EBEF5043E08BF4FF097
:102EE000040E18D0A0F1804EBEF5053E08BF4FF08D
:102EF000050E10D0A0F1804EBEF5063E08BF4FF083
:102F0000060E08D0A0F1804EBEF5073E0CBF4FF074
:102F1000070E4FF0080E0EFA07F757451FD1234F43
:102F2000D7F800A02AEA030AC7F800A03F1DD7F887
:102F300000A02AEA030AC7F800A01D4FD7F800A096
:102F40002AEA030AC7F800A03F1FD7F800A02AEA20
:102F500003033B60D5F80838A343C5F80838046874
:102F6000530009FA03F39C430460D40800EB840483
:102F7000256A5707FF0E06FA07F7BD43256200E0F2
:102F80000CE0C4689C43C460446824EA0C0CC0F89C
:102F900004C0D0F808C02CEA03038360521C102A36
:102FA000FFF46AAFBDE8F08F00040240003C01402E
:102FB0000C3C01402DE9F84F7B4D7A4C00224FF03C
:102FC00001094FF0030C4FF00F0A05F1040E00BF8A
:102FD0000B6809FA02F63340B34240F0DC800F7907
:102FE00007F00307012F18BF022F19D1D0F808806E
:102FF0004FEA42070CFA07FB28EA0B08D1F80CB09D
:103000000BFA07F747EA08078760476827EA0606CA
:103010000F79C7F3001707FA02F747EA060646607A
:103020004E683CEA06060BD0C76856000CFA06F854
:1030300027EA0807D1F8088008FA06F63E43C6607A
:103040000E7906F00306022E11D1D60800EB860792
:10305000D7F820805607F60E0AFA06FB28EA0B0876
:10306000D1F810B00BFA06F646EA08063E62076889
:1030700056000CFA06F827EA080791F8048008F0D1
:10308000030808FA06F63E4306604E6816F4403F11
:103090007DD0266846F480462660266806F4804681
:1030A000009622F0030606F1804707F59837D7F817
:1030B00008889607360F0AFA06FB28EA0B08A0F1E3
:1030C000804BBBF5003B38D0A0F1804BBBF5013BFA
:1030D00008BF4FF0010B30D0A0F1804BBBF5023B95
:1030E00008BF4FF0020B28D0A0F1804BBBF5033B8B
:1030F00008BF4FF0030B20D0A0F1804BBBF5043B81
:1031000008BF4FF0040B18D0A0F1804BBBF5053B76
:1031100008BF4FF0050B10D0A0F1804BBBF5063B6C
:1031200008BF4FF0060B08D0A0F1804BBBF5073B62
:103130000CBF4FF0070B4FF0080B0BFA06F646EAF0
:103140000806C7F808682E684F689E4317F4801F6A
:1031500018BF1E432E60DEF800604F689E4317F4D0
:10316000001F18BF1E43CEF80060104F3E68D1F814
:1031700004809E4318F4003F18BF1E433E600C4F6E
:103180003E68D1F804809E4318F4803F00E002E0DE
:1031900018BF1E433E60521C102AFFF419AFBDE851
:1031A000F88F000044380240083C0140043C0140D4
:1031B000003C0140002A08BF0904816170470000FB
:1031C00001488068704700004C000020704770473D
:1031D000002804BF0120704710B50446242084F85D
:1031E0003D002068016821F001010160204600F0E7
:1031F000C9FF0020206484F83D00206384F83E006D
:1032000084F83C0010BD00002DE9F0470168044639
:103210004F694E6890F83E00002517F4807F18BF74
:1032200016F4807F03D06FF4807201254A6117F491
:10323000007F18BF16F4807F05D022686FF40071FC
:1032400045F00205516117F4806F18BF16F4807FB6
:1032500068D0B4F82AC094F83D20236B6FF48061E5
:10326000202808BFBCF1000F07D1212A18BF292A46
:103270000CD0282A08BF212B08D02268516145F0C4
:103280000405102818BF40284CD146E094F83D3082
:103290002046D4F82CC0DFF8C0904FF000024FF069
:1032A0002008BCF1080F14BFBCF1200F282B05D05B
:1032B000212B1CBF2068416118D033E0C0F82C904E
:1032C0000368D3F804C02CF4E06CC3F804C00368AE
:1032D000596101680B6823F480630B60026380F816
:1032E0003D8080F83E2000F05BFD1BE0C0F82C9094
:1032F0002123036380F83D8080F83E2002685368F4
:1033000023F4E06353600268516101680A6822F4A3
:1033100080620A6001F002F904E02068016841F46B
:103320000071016017F4006F18BF16F4807F05D09C
:1033300021686FF4006045F008054861002D08BF62
:10334000BDE8F087206C40EA050020642046BDE817
:10335000F04703F03FBB00000000FFFF2DE9F84FEE
:1033600002684FF0000C5168D0F82C8090F83E7045
:1033700090F83D4020266546102F18BF402F21D0E1
:10338000036C002B08BFD2F818C053694FF0280710
:1033900013F0020F18BF11F4007F00F0F582016CEA
:1033A000002918BFD2F818C0002190F83D3037EA44
:1033B000030300F0D58251699169009180F83C5077
:1033C000BDE8F88FD2F818C053694FF0010913F027
:1033D000010F28D011F4007F2CD0C16AB1F52A0F5B
:1033E00008BFC0F82C9005D0C16AB1F12A4F04BFC4
:1033F0000821C16290F83E10402930D00169B1F532
:10340000804F36D0016D00294CD0016D012918BFC5
:10341000BDE8F88F406CF12100F4407041EAD01013
:103420001061BDE8F88FB8F52A0F14BFB8F12A4F24
:10343000BDE8F88F13F0080F18BF11F4007F3FD0DC
:10344000416CC9B21161416B00291CBFC96B0029D5
:103450002ED00068416841F4006100F0B2B9016DFE
:10346000406C00291ABF40F00100C0B200F0FE001D
:10347000D6E790F83D102129416C1ABF41F00101B7
:10348000C9B201F0FE011161416B00291CBFC96B7B
:103490000029DED1816B00291CBFC96B0029D8D15E
:1034A000BDE8F88F406C4FF0F00100F44070B5E7D4
:1034B000816B00291CBFC96B0029CAD1BDE8F88FF8
:1034C00013F0020F18BF11F4007F6ED090F83EC0C9
:1034D000C16A036B90F83D40222C04D0506990697A
:1034E0000090BDE8F88F046D002C08BFBCF1400FC0
:1034F000F4D0D0F850C0BCF1000F04BFD0F810C019
:10350000BCF5404F26D0B0F82AC0BCF1000F2ED039
:10351000B0F82AC0BCF1010F31D0438D022B63D02B
:10352000136843F4806313600268536813F4006FF8
:1035300009D011F5803F18BF012975D008291CBF9B
:103540001029202970D001684A69896900910565B0
:10355000BDE8F88F516991690091116841F480715B
:103560001160016D01F101010165BDE8F88F51693C
:1035700091690091116841F400711160E7E711F55C
:10358000803F13D0082918BF202927D0122B23D021
:10359000042919BF02291029116841F4806102D061
:1035A000116821F480611160CDE742E0116821F4D7
:1035B0008061116001684A6812F4006F04D00A68E3
:1035C00022F480620A60BEE74A698A6900920A684A
:1035D00042F400720A60BAE70129E1D0116821F4CF
:1035E000806111600168EFE704291CBF02291029DE
:1035F000136808BF43F4806306D023F4806313602C
:103600000268136843F4006313600268536813F49C
:10361000006F98D011F5803F18BF012904D0082908
:103620001CBF102920298ED1516841F4805151606E
:1036300089E71CF0040FD2F804C00CF4006C7DD0B4
:10364000BCF1000F18BFBDE8F88F13F0800F4FF0EA
:10365000110C18BF11F4806F57D013F0040F59D11B
:1036600090F83D3090F83E40C16A078DBFB1212BE4
:1036700004D0402C0CBF222BBDE8F88F418DB9B38C
:1036800090F83E10402950D0416A09781161416A92
:10369000491C4162418D491E4185BDE8F88F212BAF
:1036A000E7D108291CBF202911F5803F0AD05168B5
:1036B00021F4E0615160C0F830C080F83E5080F8DD
:1036C0003D6018E0516821F4E061516001680A68CA
:1036D00042F400720A60056380F83D6090F83E1085
:1036E000402906D180F83E5000F075FCBDE8F88F07
:1036F00005E080F83E5000F055FBBDE8F88F5068BB
:1037000020F480605060BDE8F88F13F0040F08BF0C
:10371000BDE8F88F11F4007F08BFBDE8F88F212CB9
:1037200007D0402F18BFBDE8F88FBDE8F84F03F071
:10373000FFB9C16A90F83D30212B00E01CE018BFB2
:10374000BDE8F88F438D002B9ED108291CBF20298E
:1037500011F5803FABD1516821F4E06151600168FF
:103760000A6842F400720A60056380F83D6090F8D0
:103770003E104029BDD1B5E7BCF1000FC3D113F015
:10378000400F4FF0120C18BF11F4806F76D013F079
:10379000040F77D190F83D102229B4D1418D03292F
:1037A00011D91169426A1170416A491C4162418D07
:1037B000491E4185418D0329A5D10068416821F446
:1037C000806141609FE7C36A022B98D0012918BF2E
:1037D000002994D1FB4946F2A8120968B1FBF2F125
:1037E00001EB810100910168009A521E00921DD0E8
:1037F0000A6812F4007FF7D10A6822F480620A6036
:1038000001684A6822F4E0624A6001680969426A14
:103810001170416A491C4162418D491E418580F801
:103820003D6090F83E1040291FD118E0026C42F034
:10383000200202644A6822F4E0624A600168096971
:10384000426A1170416A491C4162418D491E41859D
:1038500080F83D6080F83E5000F0C6F953E780F8EC
:103860003E50056300F0B6FB4DE780F83E50C0F8CF
:1038700030C000F096FA46E700E003E013F0040FD2
:103880003FF441AF11F4007F3FF43DAFC16A438D77
:10389000042B0FD0438D032B11D0438D022B28D046
:1038A0001169426A1170416A491C4162418D491E89
:1038B000418528E7516821F4806151600CE053682C
:1038C00023F480635360042918BF022904D00168DF
:1038D0000A6822F480620A6001680969426A11700C
:1038E000416A01F101014162418DA1F1010141856E
:1038F00009E7012918BF10292DD0042918BF022972
:1039000011680CBF41F4806141F4007111600168DD
:103910000969426A1170416A01F101014162418DF8
:10392000A1F10101418501680969426A1170416A8A
:1039300001F101014162418DA1F10101418501685F
:103940004A6822F440724A6080F83D6090F83E1068
:1039500040298AD183E7116821F480611160D6E79C
:10396000536823F4806353601CF0040F08BF0121E7
:103970001CF0800F0CBF8289028B92B280F83C5001
:10398000FFF725FCBFE600BF13F0100F18BF11F4BE
:10399000007F7DD090F83D800446506820F4E060C0
:1039A0005060206841690091016841F001010160A7
:1039B0002068016821F4806101602068406810F48B
:1039C000006F25D0DFF80092B8F1220F18BFB8F1D0
:1039D0002A0F48D0606B006840686085608D18B120
:1039E000206C40F0040020642068416821F40061EC
:1039F0004160606BFFF738F8012809D0606BC0F8B0
:103A00005090606BFEF7D5FF10B1606B016D884779
:103A1000608D08B32068416911F0040F08D0006977
:103A2000616A0870606A401C6062608D401E60853B
:103A30002068416911F0400F08D00069616A087080
:103A4000606A401C6062608D401E6085608D18B1A8
:103A5000206C40F004002064206C30B32046BDE8A8
:103A6000F84F02F0B7BFA06B006840686085608DBA
:103A700018B1206C40F0040020642068416821F4F3
:103A800000614160A06BFEF7EFFF0128C0D000E0AD
:103A900031E0A06BC0F85090A06BFEF78AFF0028C1
:103AA000B6D0A06B016D8847B2E7B8F12A0F05D1F7
:103AB000256384F83D70204600F082FC94F83D00B8
:103AC00028280DD0206B222818BFB8F1220F7FF4D0
:103AD0001AAE256384F83D6084F83E5020466EE0BF
:103AE0003A48E062256384F83D6084F83E50204601
:103AF00000F056F907E6212C18BF292C09D013F045
:103B0000400F18BF11F4806F62D013F0040F37D04C
:103B100062E013F0800F18BF11F4806F24D013F00F
:103B2000040F25D190F83D10438D002B3FF4EBADF1
:103B3000436A1B781361426A521C4262428D521ED4
:103B40004285428D002A08BF29297FF4DCAD016837
:103B50004A6822F480624A604FF02101016380F8D4
:103B60003D7000F0DBFCCEE513F0040F3FF4CBAD6D
:103B700011F4007F1CBF418D00293FF4C4AD83E5E3
:103B800090F83D10438D002B3FF4BDAD1269436AA0
:103B90001A70426A521C4262428D521E4285428D08
:103BA000002A08BF2A297FF4AEAD01684A6822F4D2
:103BB00080624A604FF02201016380F83D7000F09E
:103BC000FFFBA0E558000020A56700080000FFFFEC
:103BD00013F0040F3FF497AD11F4007F1CBF418D2B
:103BE00000297FF45DAE8EE502480178491C017022
:103BF0007047000040000020002804BF01207047EB
:103C000070B5044690F83D00002520B984F83C507A
:103C1000204600F0F9FA242084F83D00206801686D
:103C200021F0010101602068016841F40041016058
:103C30002068016821F40041016001F0BFFC544A92
:103C40006168914203D85349814203D804E0524944
:103C5000814201D9012070BD50492368B0FBF1F1C8
:103C6000D3F804C02CF03F0C4CEA010CC3F804C09C
:103C700063689A4228BF4B1C07D24FF4967359438E
:103C80004FF47A73B1FBF3F14B1C2168D1F820C0DB
:103C90002CF03F0C43EA0C030B6261688A420FD39D
:103CA0004900401EB0FBF1F2521CC2F30B02042A81
:103CB00031BF0420B0FBF1F0401CC0F30B0023E047
:103CC000A268002A53D001EBC10303EB0113A0F15A
:103CD000010CBCFBF3F35B1C43F480431B051B0D81
:103CE00008BF012010D0002A49D001EBC10202EB2D
:103CF0000111401EB0FBF1F0401CC0F30B0040F47A
:103D0000804000BF40F400402168CA6922F0FF02F1
:103D100022F44F421043C861D4E9070101432068EF
:103D2000026822F0C00211430160D4E9031001438C
:103D30002068826822F0FF0222F40342114381606E
:103D4000D4E9050101432068C26822F0FF02114353
:103D5000C1602068016841F00101016025642020F4
:103D600084F83D00256384F83E50002070BD01EBCF
:103D70004103A0F1010CBCFBF3F35B1CAEE701EBCC
:103D80004101401EB0FBF1F0401CC0F30B00B9E74D
:103D9000A086010080841E0000093D0040420F0003
:103DA00070477047704700002DE9F84F99469246DA
:103DB000884604460A9DFFF703FA074694F83D003B
:103DC000202840F0FB80192301227E4920460097DD
:103DD00002F062FF002840F0F18094F83C000128D6
:103DE00000F0EC80012084F83C002068016811F0AC
:103DF000010F03D1016841F00101016020680168F1
:103E000021F400610160212084F83D00102084F835
:103E10003E0000262664C4F824A0A4F82A90608DF1
:103E200020856948E062E06A08281CBF012810F577
:103E3000803F02D0206B122804D12068016841F431
:103E4000807101602B4600224FF00111204600973F
:103E500002F022FF40B12068006810F4807F1CBF90
:103E60004FF400702064A6E02069B0F5804F0ED0BA
:103E7000062000EAD81040F0F001206801613B46BE
:103E80002A465249204602F05AFF28B193E02068A2
:103E900008F0FE01016103E0206808F0FF01016104
:103EA0003B462A464A49204602F049FF002873D182
:103EB0002068416980690090208D4FF0200800281B
:103EC0005CD03A462946204602F09DFF40B1206C66
:103ED000042870D12068016841F4007101606AE033
:103EE000606A216800780861606A421C6262608DC5
:103EF000401E6085208D401E80B2208521684B6960
:103F000013F0040F18BF00280DD010780861606A04
:103F100000F101006062608DA0F101006085208DDC
:103F2000A0F1010020852068406910F0040F22D123
:103F30002068406910F4806F0FD021686FF48060B2
:103F40004861266384F83D8084F83E60206C40F030
:103F50000400206484F83C602AE0B5F1FF3F05D0FE
:103F6000FFF72EF9C11BA94217D8B5B120684069E7
:103F700010F0040FDCD0208D0028A2D12068016849
:103F800041F40071016084F83D8084F83E6084F85B
:103F90003C600020BDE8F88F0DE0266384F83D808A
:103FA00084F83E60206C40F02000206484F83C607F
:103FB000206C04288ED00120BDE8F88F0220BDE8D7
:103FC000F88F0000020010000000FFFF0800010051
:103FD00002000100704770472DE9FF4F83B09A46F9
:103FE000DDE9118793460446DDF84090FFF7E8F8D5
:103FF000064694F83D0020287ED1192301225F490E
:104000002046009602F048FE002875D194F83C0046
:10401000012871D0012084F83C002068016811F06B
:10402000010F03D1016841F00101016020680168BE
:1040300021F400610160212084F83D00402084F8D3
:104040003E0000252564C4F82490A4F82A80608DE1
:1040500020854B48E062CDE9007653465A4620461B
:10406000049902F0BFFD00287FD1208D002830D0B8
:1040700032463946204602F0C6FE40B1206C042884
:1040800073D12068016841F4007101606DE0606ADD
:10409000216800780861606A411C6162208D401EC1
:1040A00080B22085628D521E62852268536913F0AA
:1040B000040F0BD068B108781061606A401C606220
:1040C000208D401E2085608D401E6085208D00283B
:1040D000CED12068B04640694FF0200610F0040FA2
:1040E00025D12068406910F4806F11D021686FF4E9
:1040F00080604861256300E03BE084F83D6084F81F
:104100003E50206C40F00400206484F83C5029E0CC
:10411000B7F1FF3F06D0FFF753F8A0EB0800B84215
:1041200015D8A7B12068406910F0040FD9D02068D5
:10413000016841F40071016084F83D6084F83E50EC
:1041400084F83C5007B00020BDE8F08F0DE02563F7
:1041500084F83D6084F83E50206C40F020002064DC
:1041600084F83C50206C04288BD007B00120BDE8B7
:10417000F08F07B00220BDE8F08F000002001000B1
:104180000000FFFF70B5016804461B48A1F18042A2
:10419000B2F5A84215D0A1F18042B2F5B84218BFDD
:1041A00070BD016821F4000101604FF400711348F3
:1041B000FEF758FEBDE870404FF480711048FEF7DE
:1041C00051BE016821F4001101600E4D40212846C6
:1041D000FEF748FE80212846FEF744FEA06BFEF75E
:1041E000FBFB606BFEF7F8FB1F2000F0E9FFBDE86A
:1041F0007040202000F0E4BF403802400008024038
:1042000000000240000402402DE9F04786B000267D
:1042100005460096019602960396049600685F494B
:1042200012275F4CA0F180424FF001084FF00409C3
:10423000B2F5A84255D0A0F18042B2F5B8421CBFF9
:1042400006B0BDE8F087206840F4000020602068D8
:1042500000F400000590086840F004000860086859
:1042600000F004000590086840F00100086008684C
:10427000DFF830A100F0010005904FF40070CDE9A7
:1042800000076946CDF81090CDF808805046FEF73B
:1042900091FE4FF48070CDE90007434FCDE90286CF
:1042A0006946CDF810903846FEF784FE206840F449
:1042B000000020602068012200F400000590092120
:1042C0005046FEF777FF012208213846FEF772FFBD
:1042D00029684FF4004008602868066006B0BDE811
:1042E000F087086840F0020008600868694600F03E
:1042F00002000590C020CDE90007CDF81090CDF860
:1043000008802A48FEF756FE206840F4001020601E
:104310002068284C00F400100590254820604FF0DC
:104320000078C4E901860715C4E903676661A661E0
:10433000E661266220466662FEF788FC002818BF08
:10434000FEF784F9AC63A5631C4C1B48C4E9000864
:104350004020C4E90206C4E90476A661E66126624B
:1043600020466662FEF772FC002818BFFEF76EF961
:104370006C63002211461F20A56300F043FF1F203D
:1043800000F031FF00221146202000F03BFF2020EA
:1043900000F029FF06B0BDE8F08700003038024089
:1043A0004038024000080240000002400004024081
:1043B00010600240D0560120A0600240305701201A
:1043C0004549884218BF704770B544482DED028BAF
:1043D00045682889FCF7B1F99FED411B53EC112B7F
:1043E000FCF7B4F89FED408B53EC182BFCF707F863
:1043F000FCF7FBF93E4C00EE100A84ED010AA88997
:10440000FCF79BF99FED3C1B53EC112BFCF79EF83E
:1044100053EC182BFBF7F3FFFCF7E7F900EE100A5B
:1044200084ED030A6889FCF788F99FED351B53EC8E
:10443000112BFCF78BF89FED341B53EC112BFBF782
:10444000DEFFFCF7D2F900EE100A84ED020A288A9A
:10445000FCF773F99FED2E8B53EC182BFCF776F8D5
:10446000FCF7C3F900EE100A84ED060A688AFCF72F
:1044700064F953EC182BFCF769F8FCF7B6F900EE79
:10448000100A012084ED050A6B880021224AB3F549
:10449000004F87BF2070507021705170AB88B3F50A
:1044A000004F87BF6070907061709170EB88B3F5BA
:1044B000004F87BFA070D070A170D1702B88B3F56A
:1044C000004F87BFE0701070E1701170BDEC028B7F
:1044D00070BD0000000000002856012040000020B0
:1044E000D5CC5A0A48FB0F3F000000000000F03F07
:1044F000E859012000000000821DFF058200493FAD
:104500000598C7D43CCBEC3E9A9999999999B93FB3
:104510007CAC09375300F03EDC59012070470000A5
:1045200070B5044690F83D0020286BD1002912BFD9
:10453000002A012070BD94F83C00012862D00120BF
:1045400084F83C002068036813F0010F03D103686E
:1045500043F0010303602068036823F400630360F1
:10456000222084F83D00202684F83E600025256442
:1045700061626285608D20852348E062A06B08B38C
:104580002249C163A16B2248C864A06B0564A06B7B
:104590004564A06B8564A06B05652068238D00F1E0
:1045A0001001626AA06BFEF7FFFBC0B184F83D60AA
:1045B00084F83E50206C40F01000206484F83C5099
:1045C000012070BD282084F83D0084F83E50206C06
:1045D00040F08000206484F83C50012070BD2068C9
:1045E000016841F48061016084F83C5020684168B2
:1045F00041F4407141602068416841F400614160CC
:10460000002070BD022070BD0000FFFFBF680008E1
:1046100079680008F0B50446006885B08168AE4D41
:10462000AE4F0091A8420CBF39464FF04021896837
:104630000191406802900CBF38464FF0402040681E
:10464000039060684FF00106B0F5007F18BF0028A6
:104650001DD011F0020F1CBF039810F0800F00F066
:10466000CD80616A204601F10202626222680988F7
:10467000AA420CBF3A464FF04022D160418D491EFC
:104680004185418D002900F0A48000F0B7B8009862
:1046900010F0020F1CBF029810F0800F19D0616A51
:1046A000204601F10202626222680988D160618DB0
:1046B000A1F101016185618D59B901684A6822F053
:1046C000A0024A60418E002904BF80F8416000F0DA
:1046D000EFF9019810F0010F1CBF039810F0400F84
:1046E00025D021682046A9420CBF39464FF0402111
:1046F000CA68C16A8B1CC3620A80418E491E41860A
:10470000418EA1B90168A94214BF4FF0402139463A
:10471000496821F060020CBF39464FF040214A60E1
:10472000418D002904BF80F8416000F0C1F9019873
:1047300010F0400F1CBF039810F0200F1FD020680E
:10474000A8420CBF38464FF04020406820F060017E
:104750000CBF38464FF0402041602068416821F08E
:10476000A00141602068C1688068019084F84160C0
:10477000606C40F002006064204600F039FB009855
:1047800010F0080F19BF029810F0200F05B0F0BD0F
:104790002068416821F0A00141602068A8420CBF58
:1047A00038464FF04020406820F0600018BF4FF0BE
:1047B0004027786020688068009084F84160606CD1
:1047C00040F00400606405B02046BDE8F04000F011
:1047D0000FBB0168A94214BF4FF040213946496818
:1047E00021F0A0020CBF39464FF040214A60418EB3
:1047F000002904BF80F8416000F05AF9009810F0D9
:10480000010F1CBF029810F0400F19D021682046FC
:10481000CA68E16A01F10203E3620A80618EA1F1D4
:1048200001016186618E59B901684A6822F060020F
:104830004A60418D002904BF80F8416000F038F9DA
:10484000009810F0400F1CBF029810F0200F1BD0F2
:104850002068416821F0600141602068A8420CBFD7
:1048600038464FF04020406820F0A0010CBF384689
:104870004FF04020416084F84160606C40F00200DD
:104880006064204600F0B4FA019810F0080F19BFD8
:10489000039810F0200F05B0F0BD2068A8420CBFAF
:1048A00038464FF04020406820F0A00018BF4FF07D
:1048B000402778602068416821F06001416084F8F9
:1048C0004160606C40F00400606405B02046BDE8C3
:1048D000F04000F08DBA0000003800400034004085
:1048E0002DE9F84F044690F8410016460D464FF06A
:1048F0000009C846012818BF4FF002097ED10029DF
:1049000019BF002A002B0120BDE8F88F94F8400061
:10491000012804BF0220BDE8F88F012084F8400080
:10492000E26261622068C06900F00700032818BFD6
:1049300005282DD02385638523866386C4F84480AB
:104940004FF0050084F84100E36B54481864E36BB2
:104950005348D863E36B5348D864A36BC3F84080D3
:10496000A36BC3F83C80A36BD8642068C3694E4F27
:1049700003F44073DFF834A1B3F5007F18BF002BB8
:104980000FD0C2694FF4407333EA02024ED050E0B8
:104990004FF6FF7000EA4300208560852086608620
:1049A000CCE7238EB8420CBF50464FF0402000F1B8
:1049B0000C01E06BFEF7F8F92068B8420CBF5046D6
:1049C0004FF04020406840F001000CBF51464FF0CE
:1049D00040214860238D2068294600F10C02A06B1D
:1049E000FEF7E2F92068416841F002014160206869
:1049F000C16911F4806F14D1B84200E011E014BF16
:104A00004FF040205046C06940F4806002D000BFA3
:104A10004FF0402ACAF81C002068C16941F4806147
:104A2000C16184F840804846BDE8F88FC26882685A
:104A30000092238DB8420CBF50464FF0402000F149
:104A40000C02A06BFEF7B0F92068B8420CBF5046CC
:104A50004FF04020406840F002000CBF51464FF03C
:104A600040214860238E2068324600F10C01E06B43
:104A7000FEF79AF92068416841F001014160206821
:104A8000C16911F4806FCCD1B84214BF4FF04020FF
:104A90005046C06940F48060BCD0B9E7716F00082F
:104AA000916E0008216F000800380040003400407B
:104AB0002DE9F05F64252DED0A8B9FED599B9FED4D
:104AC0005A8ADFF868B15A4E0BF1080AB7EE00AA0D
:104AD000F0EE00AABFEE00BADFED568ADFF858818B
:104AE000DFED56BADFF858919FED56CA564FAAF13E
:104AF000180400224FF480613846FEF75BFB6068C3
:104B000000EB8500B0F90200FBF706FE53EC192B11
:104B1000FBF71CFDFBF769FE00EE100AE06800EBF6
:104B2000C50080ED010AF07858B12068008805F0D2
:104B3000D5FCE16801EBC50080ED018A80ED008ABB
:104B400041E005F07BFD307850B1E068D6ED010A18
:104B500000EBC50090ED010A20EE200A80ED010A6D
:104B6000707808B3E06896ED030A00EBC50037499A
:104B7000D0ED010A0122A1F1080020EEC00A8BED60
:104B8000000AFDF7DDFA9AED000AE06870EE0A0A05
:104B900000EBC5008AEEA00AD6ED020A30EE0B0A41
:104BA00020EE200A80ED010AB07860B1E06800EBE9
:104BB000C500001DFDF712FCE16801EBC50090ED9A
:104BC000010A80ED000AE16801EBC50090ED010AE1
:104BD00020EE280A80ED010A10EE100A4045C8BFF9
:104BE000B0EE6B0A05DC10EE100A484588BFB0EE47
:104BF0004C0ABDEEC00AA26810EE100A02EB850155
:104C00000122488091023846FEF7D4FA6D1CC82D67
:104C1000FFF66FAFBDEC0A8BBDE8F09F000000000F
:104C2000000000000000003F00000000E80000203D
:104C3000E85901200000004700FEFF4600FEFF4645
:104C400000FEFFC600FEFFC600140240F000002078
:104C50002DE9F05F00252DED0A8B9FED599B9FED0F
:104C60005A8ADFF868B15A4E0BF1080AB7EE00AA6B
:104C7000F0EE00AABFEE00BADFED568ADFF85881E9
:104C8000DFED56BADFF858919FED56CA564FAAF19C
:104C9000180400224FF480613846FEF78BFA6068F2
:104CA00000EB8500B0F90200FBF736FD53EC192B41
:104CB000FBF74CFCFBF799FD00EE100AE06800EBF7
:104CC000C50080ED010AF07858B12068008805F031
:104CD00005FCE16801EBC50080ED018A80ED008AEA
:104CE00041E005F0ABFC307850B1E068D6ED010A48
:104CF00000EBC50090ED010A20EE200A80ED010ACC
:104D0000707808B3E06896ED030A00EBC5003749F8
:104D1000D0ED010A0122A1F1080020EEC00A8BEDBE
:104D2000000AFDF70DFA9AED000AE06870EE0A0A33
:104D300000EBC5008AEEA00AD6ED020A30EE0B0A9F
:104D400020EE200A80ED010AB07860B1E06800EB47
:104D5000C500001DFDF742FBE16801EBC50090EDC9
:104D6000010A80ED000AE16801EBC50090ED010A3F
:104D700020EE280A80ED010A10EE100A4045C8BF57
:104D8000B0EE6B0A05DC10EE100A484588BFB0EEA5
:104D90004C0ABDEEC00AA26810EE100A02EB8501B3
:104DA0000122488091023846FEF704FA6D1C642DFA
:104DB000FFF66FAFBDEC0A8BBDE8F09F000000006E
:104DC000000000000000003F00000000E80000209C
:104DD000E85901200000004700FEFF4600FEFF46A4
:104DE00000FEFFC600FEFFC600140240F0000020D7
:104DF0007047416B08470000002804BF012070473E
:104E00002DE9F041044690F84100002730B984F8BC
:104E100040705D486063204600F0C0F8022684F8C8
:104E200041602068C16921F0BF0121F47061C16156
:104E3000206806626069022808BF002143D0E0684C
:104E400000280CBF10252025A068202898BF6D00E1
:104E5000012000F01BFA2169B1F5007F1BD0B0FBE7
:104E6000F5F000EB800061694000B0FBF1F0401DFF
:104E70004649A1FB0010C00800F00101401A40089B
:104E80000902821EFE2A1ED3606C40F0100060648E
:104E90000120BDE8F081E16851B1A900B0FBF1F05B
:104EA00000EB800061694000B0FBF1F0401DDFE7DE
:104EB000E900B0FBF1F000EB800061694000B0FB5D
:104EC000F1F0401DD4E708432269216810430862CD
:104ED000D4E901010843A269E16811430143206854
:104EE000C26922F0BF0222F47062114341F40061F2
:104EF000C161206A012806D06764012084F841005E
:104F00000020BDE8F0812248606322482168DFF874
:104F100088C0814214BF4FF040216146C96921F029
:104F2000BF0121F470610CBF62464FF04022D16195
:104F3000216881420CBF61464FF040210E62226819
:104F400082420CBF61464FF04021C9698BB2616853
:104F5000B1F5007F16BF00294FF48071002125892B
:104F6000A689824245EA0605268B46EA010145EA02
:104F7000010189B241EA030141F4006118BF4FF019
:104F8000402CCCF81C10B7E77B6F0008CDCCCCCC04
:104F90001546000800380040003400402DE9F04775
:104FA0008AB0002401940294039404940646009469
:104FB00006940794089409940068A0F18041B1F523
:104FC00060511CBF0AB0BDE8F08701254FF4817025
:104FD000CDE906500327089706A800F089F90028B4
:104FE00018BFFDF733FB3F48016841F48041016081
:104FF000006800F4804005903B48016841F00401DE
:105000000160016801F004010591016841F00201AD
:10501000016000684FF0020800F0020005900420D3
:10502000CDE9000802950620CDE90370DFF8BCA0A9
:1050300069465046FDF7BEFF4820CDE90008CDE99E
:1050400002574FF005096946CDF810905046FDF71C
:10505000B1FF4FF44050CDE90008CDE90257694651
:10506000CDF810902248FDF7A5FF234D21484FF4BD
:10507000806728604FF0C060C5E9010405F10C00AD
:105080004FF400684FF400594FF4807A80E890079D
:105090002C6228466C62FDF7D9FD002818BFFDF789
:1050A000D5FAF563AE63164D1448E5E802044020D6
:1050B000A5E89107124845F820496C62FDF7C6FD46
:1050C000002818BFFDF7C2FAB5630022114624205C
:1050D000AE6300F097F8242000F085F80AB0BDE830
:1050E000F08700004038024030380240000802409B
:1050F0000004024058600240D8570120706002400E
:10510000385801207047704702488168027811447E
:10511000816070474C0000200B4810B5016841F4D5
:1051200000710160016841F480610160016841F42F
:1051300080710160032000F097F80F2000F006F85E
:1051400000F024F8002010BD003C024070B50D4D69
:1051500004464FF47A712878B1FBF0F00A490968E7
:10516000B1FBF0F000F076FE48B9102C07D2002217
:105170002146501E00F046F800206C6070BD0120F2
:1051800070BD00004C000020580000200A4881B08B
:10519000016841F480410160006800F480400090A3
:1051A0000648016841F080510160006800F08050BD
:1051B000009001B07047000044380240403802407F
:1051C0000028B8BF704700F01F01012202FA01F168
:1051D0004009800000F1E020C0F88011BFF34F8F3C
:1051E000BFF36F8F70470028B8BF704700F01F01F2
:1051F000012202FA01F14009800000F1E020C0F82C
:1052000000117047174B10B41B68C3F30223C3F19E
:10521000070CBCF1040F88BF4FF0040C1C1D072CB9
:1052200034BF0023DB1E012404FA0CFCACF1010C9A
:105230000CEA0101994004FA03F35B1E1A40114382
:1052400000284FEA0111A1BF00F1E02080F800140E
:1052500010BC704700F00F0000F1E02080F8141D32
:1052600010BC70470CED00E0074900F007000A6829
:105270004FF6FF031A4042EA002040F0FD7040F074
:1052800080600860704700000CED00E001460020DF
:10529000012918BF70471049096811F4000103D0B3
:1052A000012908BF0D4870470D480168006811F4D6
:1052B000800F00F03F0014BF0A490B49B1FBF0F02A
:1052C0000A490A680968C2F388125043C1F302719F
:1052D000B0FBF1F070470000083802400080BB00CE
:1052E0000438024000127A000024F400843802409E
:1052F0002DE9F843054600784FF0010810F0050F3E
:105300004FF000072FD0DFF83891C9F86870FDF72B
:1053100057FF4C4C0646206810F0006F09D000BFC4
:10532000FDF74EFF801B022865D8206810F0006F43
:10533000F6D16868297A800140EA01704249086024
:10534000C9F86880FDF73CFF0646206810F0006F42
:1053500009D100BFFDF734FF801B02284BD820681D
:1053600010F0006FF6D0287810F0020F5CD03748AC
:10537000016841F0805101600068354C00F08050B8
:105380000090206840F480702060FDF719FF064609
:10539000206810F4807F08D1FDF712FF801B0228DF
:1053A00029D8206810F4807FF6D02A4C206810F4A9
:1053B000407027D0A98901F44071814222D0206831
:1053C00020F440712448C0F8008007602160206804
:1053D00010F0010F16D0FDF7F3FE0646206810F01E
:1053E000020F08BF41F288370CD100BFFDF7E8FE7D
:1053F000801BB84202D90320BDE8F883206810F072
:10540000020FF3D0E9684FF4407030EA010213480C
:105410001CBF016821F4F81109D001602068A98936
:10542000C1F30B01084320600020BDE8F883026847
:1054300021F4407122F4F81221F070411143ECE79D
:1054400000004742003802408438024040380240A1
:105450000070004070380240400E47420838024059
:10546000002804BF012070472DE9F0474D4E044647
:105470000F46306801F0FF0800F00700B84206D27E
:1054800086F80080306800F00700B84261D12068DB
:10549000454D10F0020F14D010F0040F03D028680F
:1054A00040F4E0502860207810F0080F03D02868FE
:1054B00040F4604028602868A16820F0F0000843AC
:1054C0002860207810F0010F37D060683749012834
:1054D00023D0022818BF0328096823D011F0020F37
:1054E00037D0296821F0030141EA00002860FDF768
:1054F00067FE81462868616800F00C00B0EB810F00
:1055000018BF41F2883A18D0FDF75AFEA0EB090007
:1055100050450BD90320BDE8F087096811F4003F1E
:10552000DFD116E011F0007FDBD112E0286861685E
:1055300000F00C00B0EB810FE6D1306800F00700FE
:10554000B84209D986F80080306800F00700B842F8
:1055500002D00120BDE8F087207810F0040F05D0BC
:105560002868E16820F4E05008432860207810F0B3
:10557000080F06D02868216920F4604040EAC10085
:10558000286000F03BF82968094AC1F30311515C17
:10559000C8400849086008480068FFF7D7FD0020A8
:1055A000BDE8F087003C0240083802400038024065
:1055B000F82D050858000020500000200448054937
:1055C00000680968044AC1F38221515CC8407047F1
:1055D0005800002008380240082E050804480549F4
:1055E00000680968044AC1F34231515CC840704701
:1055F0005800002008380240082E050818480068A6
:1056000010F00C02174808BF70471749042A04BF5E
:1056100008467047082A18BF704710B5134C226817
:10562000236802F03F0213F4800F08D020680023A3
:10563000C0F38810A0FB0101FAF7C4FD07E0216860
:105640000023C1F38811A1FB0001FAF7BBFD21681B
:10565000C1F30141491C4900B0FBF1F010BD00004D
:10566000083802400024F40000127A000438024096
:10567000002804BF012070472DE9F84F0446007848
:10568000DFF8CC8310F0010FA8F1040558D008F121
:105690000400016801F00C01042909D0006800F041
:1056A0000C0008280DD1D8F8000010F4800F08D0A5
:1056B000286810F4003F43D06068002800F0C181E2
:1056C0003EE06068B0F5803F19D0B0F5A02F2868A3
:1056D0000CBF40F4802020F48030286028680CBF84
:1056E00040F4803020F4802028606068B8B1FDF775
:1056F00067FD0646286810F4003F05D020E02868C2
:1057000040F480302860F0E7FDF75AFD801B6428E4
:1057100000F22F81286810F4003FF5D010E0FDF76B
:105720004FFD0646286810F4003F09D0FDF748FDFC
:10573000801B642800F21D81286810F4003FF5D119
:105740002078C44F10F0020F47D0C349086810F00A
:105750000C0F16D0086800F00C00082804BFD8F819
:10576000000010F4800F0CD0E06820B34FF001006F
:105770003860FDF725FD0646286810F0020F09D0B5
:1057800011E0286810F0020F1CBFE06801280AD061
:1057900000F057B9FDF714FD801B02287ED8286859
:1057A00010F0020FF6D02868216920F0F80040EAD6
:1057B000C100286011E000203860FDF701FD0646B9
:1057C000286810F0020F08D0FDF7FAFC801B0228B1
:1057D00064D8286810F0020FF6D1207810F0080F76
:1057E0002AD09E489E4E616999B101210160FDF762
:1057F000E7FC8146306810F0020F1DD1FDF7E0FC98
:10580000A0EB0900022849D8306810F0020FF5D04B
:1058100012E000210160FDF7D3FC8146306810F0F2
:10582000020F09D0FDF7CCFCA0EB0900022835D807
:10583000306810F0020FF5D1207810F0040F7FD0FF
:1058400088484FF0000B006810F0805F0AD185484F
:10585000016841F08051016000684FF0010B00F0D9
:1058600080500090DFF80092D9F8000010F4807F9B
:105870001AD1D9F8000040F48070C9F80000FDF793
:105880009FFC0646D9F8000010F4807F0CD100BFC1
:10589000FDF796FC801B02286BD800E069E0D9F880
:1058A000000010F4807FF3D0A068704E01281BD058
:1058B000052830680CBF40F0040020F00100306083
:1058C00030680CBF40F0010020F00400C6F8000072
:1058D000A06841F2883AB8B1FDF772FC81463068A1
:1058E00010F0020F05D021E0306840F00100306078
:1058F000EEE7FDF765FCA0EB0900504539D83068AC
:1059000010F0020FF5D011E0FDF75AFC8146306827
:1059100010F0020F0AD000BFFDF752FCA0EB090007
:10592000504526D8306810F0020FF5D1BBF1000FBA
:1059300006D04C48016821F0805100E000E0016091
:10594000A069E8B34449096801F00C01082950D066
:1059500002284FF0000038660ED0FDF731FC0446F7
:10596000286810F0007F6FD0FDF72AFC001B02288A
:105970003AD90320BDE8F88FFDF722FC06462868D7
:1059800010F0007F09D000BFFDF71AFC801B022831
:10599000EFD8286810F0007FF6D1D4E9070108435A
:1059A000A16A334A490802EB0141626A41EA821165
:1059B000084394F82C1040EA0160C8F8000000E0A9
:1059C00042E001203866FDF7FBFB0446286810F032
:1059D000007F39D1FDF7F4FB001B0228C9D82868E5
:1059E00010F0007FF6D02FE0286810F0007FBBD1C8
:1059F0002AE0012808BFBDE8F88FD8F80000E26966
:105A000000F4800191421CD1226A00F03F019142D2
:105A100017D147F6C071626A0140B1EB821F10D105
:105A2000A26A4FF0FF3300F4403103EB5202B1EBB6
:105A3000024F06D194F82C1000F07060B0EB016FAB
:105A400002D00120BDE8F88F0020BDE8F88F0000EB
:105A5000043802400000474208380240800E4742A6
:105A600074380240403802400070004070380240F4
:105A70000000FFFF002804BF0120704770B50446F6
:105A8000406A002500281CBF2561656104D0A5621D
:105A900094F8510058B905E06068B0F5827F18BFEE
:105AA000E561F4E784F85050204600F045F8022004
:105AB00084F851002068016821F040010160A0884D
:105AC000218900F4827001F404410843A18901F4A2
:105AD00000610843217C01F002010843217D01F0AF
